:020000040800F2
:10000000E00600207D02000881020008830200084B
:10001000850200088702000889020008000000002D
:100020000000000000000000000000008B0200083B
:100030008D020008000000008F02000891020008F5
:10004000AD1A00089302000893020008930200080A
:10005000930200089302000859180008A918000824
:10006000C9180008E91800080919000893020008D7
:10007000930200089302000893020008930200080C
:1000800093020008930200089302000893020008FC
:10009000930200089302000893020008291900083F
:1000A00093020008930200089302000893020008DC
:1000B00093020008930200089302000893020008CC
:1000C00093020008930200089302000893020008BC
:1000D000930200089D1A000893020008930200088A
:1000E00079180008930200089302000893020008A0
:1000F000930200089302000893020008930200088C
:10010000930200089302000893020008930200087B
:10011000930200089302000893020008930200086B
:10012000930200089302000893020008930200085B
:1001300000F002F800F092F80AA090E8000C824467
:100140008344AAF10107DA4501D100F087F8AFF244
:10015000090EBAE80F0013F0010F18BFFB1A43F0A5
:1001600001031847FC2E00001C2F0000103A24BF8A
:1001700078C878C1FAD8520724BF30C830C144BF0C
:1001800004680C607047000000230024002500264E
:10019000103A28BF78C1FBD8520728BF30C148BFEA
:1001A0000B6070476E2900F04981702900F08B8246
:1001B000662902F0E686652902F0E386672902F0E7
:1001C000E0866129AFF3008003681B0A28BF41F075
:1001D0008001692900F0F680642900F0F380752918
:1001E00000F0F0806F2900F01882782900F0578223
:1001F000E92900F0B381E42900F0B081F52900F08D
:10020000AD81EF2900F01582F82900F056820368CD
:10021000DB0928BF41F08001632900F0DA857329EA
:1002200000F0DF85E32900F0EA85F32900F0EF858F
:10023000002070471FB500F03BFE040000200021A5
:1002400002F0AAF9401C60600020002102F08EF943
:10025000E06000F043F81FBD10B510BD00F0FBFDDD
:100260001146FFF7E7FF02F01DF900F0D7FE03B4D7
:10027000FFF7F2FF03BC00F021FF00000848004731
:10028000FEE7FEE7FEE7FEE7FEE7FEE7FEE7FEE746
:10029000FEE7FEE703480449024A044B70470000AA
:1002A00031010008E0020020E0060020E00200200A
:1002B0001CB50C46064B7B4469460090204600F076
:1002C000D6F804460020694600F0E4F820461CBD3C
:1002D000DB010000704770477047000070B5064CA6
:1002E0007C44064D7D4403E0206820448047241D63
:1002F000AC42F9D170BD0000C82E0000C82E00002D
:1003000070B5044685690068C10601D5302600E055
:100310002026C00707D070BDD4E9012130469047A0
:10032000206A401C20626D1EF6D570BD70B5044673
:1003300085690078C00707D170BDD4E9012120206C
:100340009047206A401C20626D1EF6D570BD09687A
:100350004A0501D540B27047C905FCD500B27047C7
:1003600009684A0501D5C0B27047C905FCD580B2FD
:10037000704770B50C460546012A05D028788006DE
:1003800000D5EA69002302E0012305E05B1C9342EB
:1003900002D2E05C0028F9D1A869E618C01AA86169
:1003A000286A184428622846FFF7AAFF04E0D5E926
:1003B000012114F8010B9047B442F8D32846FFF707
:1003C000B5FF70BD2DE9F04106460024106875297F
:1003D000314616A510D0FFF7BAFF002802DA4042D6
:1003E00013A507E031688A0701D512A502E0490785
:1003F00004D511A5012401E0FFF7B2FF00210A2274
:1004000006F1240709E0B0FBF2FCB0FBF2F302FBBB
:100410001C00303078541846491C0028F3D123467C
:100420002A463046BDE8F04100F061BA0000000005
:100430002D0000002B000000200000001168026861
:10044000006A530501D508700AE0D30501D508807C
:1004500006E0130603D5C217C1E9000200E00860F8
:100460000120704701694A1C02610878704700B595
:100470008FB0CDE901310021059105497944CDE9DD
:1004800003101146684600F029F90FB000BD0000C6
:10049000E5FFFFFF0A6802F8010B0A6070470000E1
:1004A0002DE9FF5F15468A460446DFF8AC80F84424
:1004B0000027D8E900103E46CDE9001010E03AF8D8
:1004C00016106A4602A800F0A6FC411C07D021784D
:1004D000890603D5E269391891420DD80744761C84
:1004E0002078800602D5E069B84205DDAE42E6DB41
:1004F0003AF816000028E2D1A069C01BA06120468E
:10050000FFF7FEFED8E90010CDE90010002017E04B
:100510003AF818106A4602A800F07DFCB0F1FF3FDF
:1005200081460BD000250DF1080B05E0D4E901212F
:100530001BF8050090476D1C4D45F7D308F10100ED
:10054000B0428046E4DB206A384420622046FFF750
:10055000EDFEBDE8FF9F0000D62A00002DE9F04126
:100560008046D21D22F007020025D2E90002F529BB
:1005700015A614D0011E72F1000106DA0023D0EB9B
:10058000030063EB020211A608E0D8F800108B0705
:1005900001D50FA602E0490701D50EA60125114697
:1005A000002408F1240704E000F05CF930323A55E9
:1005B000641C50EA0102F7D12B46324621464046E0
:1005C000BDE8F04100F093B9000000002D000000EC
:1005D0002B0000002000000030B4002100F12404B2
:1005E00008E002F00705D208303542EA4372DB0822
:1005F0006554491C52EA0305F3D10468002310A294
:10060000250707D5A40600D421B1C46901230DA292
:10061000641EC46130BC00F06AB910B504462146BE
:100620001068FFF79DFE02462046BDE810400023FB
:10063000D2E7D21D22F00701D1E90023CCE7000068
:100640000000000030000000F0B40D4601880905EC
:1006500002D5214C7C4402E01F4C7C440E34002126
:1006600000F1240608E002F00F071209E75D42EAF4
:1006700003721B097754491C52EA0307F3D102782D
:100680000023120704D5702D06D009B102231134BE
:100690002246F0BC00F02BB901231034F8E770B506
:1006A00004460D4621461068FFF75AFE02462946C9
:1006B0002046BDE870400023C6E7D21D22F00703A4
:1006C000D3E90023C0E70368126843F02003036006
:1006D0000823C3610023B7E7382900002DE9F05F44
:1006E000894604464FF0000ADFF874B1FB44C0F8B5
:1006F00020A02046E1688847002874D0252806D02D
:10070000D4E901219047206A401C2062F1E70026CD
:100710005F462046E16888472028054607DB312DE3
:1007200005D2781910F8200C08B10643F1E7B0079C
:1007300001D526F00406C4F81CA00027C4F818A0B0
:100740002A2D09D0284601F0A5FE38B304EB87080E
:10075000303DC8F8185019E059F8041B204604EB46
:1007600087029161E1688847012F054618D1E06949
:10077000002820DA26F020061DE0D8F8180000EB4B
:10078000800005EB40003038C8F818002046E168CA
:100790008847054601F07EFE0028EED1012F0AD0E1
:1007A0002E2D08D12046E16888477F1C0546022F80
:1007B00046F02006C4DBA069002803DA404246F078
:1007C0000106A061F00701D026F010066C2D0BD0B9
:1007D000682D09D04C2D39D06A2D35D0742D35D0E7
:1007E0007A2D33D016E038E0E1682F46204688475E
:1007F000B842054609D16C2F26D04FF48060E168DD
:10080000064320468847054604E06C2F1AD04FF473
:10081000807006430DB3A5F14100192802D8203598
:1008200046F400664A462946204626604E46FFF7B3
:10083000B9FC80B101280BD0F61D26F0070000F1AD
:10084000080956E74020E4E78020D8E70020D6E7F3
:1008500006F104094DE7284652E7206ABDE8F09FFB
:10086000C828000030B5B0F10A024FEA900E71F1CD
:1008700000034EEA817EB0EB0E0061EB91014FEA7E
:10088000101E4EEA017E10EB0E0041EB11114FEAF3
:10089000102E4EEA016E10EB0E0041EB11214FEAD3
:1008A000104E4EEA014E10EB0E0041EB1141401884
:1008B00041F100014FEAD00040EA41704FEAD10116
:1008C00010EB80054FEA810444EA907444EB010484
:1008D0006D1944EB0404521BA3414FF0000348BFC1
:1008E0000A3200D530BD401C41F1000130BD2DE978
:1008F000F0470D4699469246044600F124080168E7
:10090000880604D5E06921F01001216000E0012093
:10091000A84201DD471B00E00027A1697A1902EB1C
:100920000900081AA0612078C00602D42046FFF70B
:10093000E7FC002608E0D4E901211AF806009047F8
:10094000206A401C761C20624E45F4DB2078C006ED
:100950000AD52046FFF7D4FC06E0D4E90121302077
:100960009047206A401C2062381EA7F10107F4DC82
:1009700007E0D4E9012118F805009047206A401CDF
:100980002062281EA5F10105F3DC2046FFF7CEFC0E
:100990002078000602D50220BDE8F0870120FBE7A1
:1009A00070472DE9FF4F0C461E464FF0FF378BB0C6
:1009B000D2E90001DDF860800A908A46C1F30A5549
:1009C00005B93D46002108464FF00000BAF1000F7E
:1009D00000F4400005DA00EB80004FF4400101EA2A
:1009E00050004FEA9059B9F1010F00DDB9460A985D
:1009F00050EA4A000ED044F61050A5F2FF354543A8
:100A00002F14B8F1000F1ED07542291E1EDDC9F14A
:100A100000021CE0B8F1010F4FF0000001D03021BE
:100A200003E0F24305E02154401CB042FBDB3046BA
:100A30000022002121540B99C1F80880C1E900204F
:100A40000FB0BDE8F08FBD1B6D1CDEE74A4600DA33
:100A5000694206A800F070FA06AB93E8070003AB02
:100A600083E8070050460A9900F02EFB8DE8070046
:100A7000A0F500501F3800900398002D0ADD42F2C7
:100A80001F014A460844002303A90390684600F06A
:100A900097FD09E0A0F500504A461F38002303A93E
:100AA0000390684600F0A1FD8DE807000004000CEB
:100AB00003D04FF0FF30410800E01046B8F1000FBE
:100AC00003D00022009215461EE0751E05D4FFF7E4
:100AD000C9FE303262556D1EF9D5B3460122084376
:100AE00002D000227F1C04E02078302801D10022AF
:100AF0007F1E002A099784D01DE0112D07DAFFF729
:100B0000B1FE303262556D1C50EA0102F5D1084346
:100B100002D00098C8B10EE00021681E05E0235CF9
:100B2000625C63542254401E491C8142F7DBAB4691
:100B3000A81B401E0990002004F80B000B98099A8E
:100B4000C0F80880C0E9002B7AE711264FF00008B2
:100B500057E72DE9F04F88460446D21D22F00701E1
:100B600091B0D1E90001CDE90A0101F067FC02462C
:100B70000B98C00F01D02D2007E02068810701D518
:100B80002B2002E0202101EAC000032A099001D0B5
:100B9000072A05DB03464146204600F08DF90BE1AC
:100BA0002078800601D5E06900E00620B8F1650FE5
:100BB000814606D0B8F1660F18D0B8F1670F70D132
:100BC00031E00020B9F1110F009001DB112301E0A9
:100BD00009F101030AAA01A90CA8FFF7E2FEDDE969
:100BE0000C70002609F10105834647E001204B46C1
:100BF00000904FF000470AAA01A90CA8FFF7D1FE08
:100C0000DDE90DB00C995D46002610B909F101002F
:100C10000D18B9EB050003D4C0F1FF3609F1010549
:100C2000A5EB09002BE0B9F1010F01DA4FF0010942
:100C30000020B9F1110F0090484601DD112300E0BA
:100C400003460AAA01A90CA8FFF7ABFEDDE90C7068
:100C50004D4600268346207800070AD4AB4500DACB
:100C60005D4601A8012D04DD411911F8011C302950
:100C700007D04F4502DA17F1040F04DA012082464B
:100C80000FE06D1EEEE7002F02DCED1B3E4403E09B
:100C9000781CA84200DD7D1CB81B00F1010A4FF052
:100CA00000472078000703D4AA4501DB4FF0FF3A44
:100CB0000021B7F1004F0DF143088DF8431024D007
:100CC00002202B23002F01DA7F422D230A21021E4E
:100CD000A0F1010000DC5FB197FBF1FC97FBF1F2A2
:100CE00001FB1C7C17460CF1300C08F801CDEEE737
:100CF000A8F1010003702188090501D5452100E014
:100D00006521A0F1010800F8011C09980FA9A1EBC9
:100D10000807FF1D00B10120411901EBEA70A1692C
:100D20003844081A401EA0612078C00602D420462C
:100D3000FFF7E6FA099828B1D4E901219047206A23
:100D4000401C20622078C00622D52046FFF7D8FA42
:100D50001EE0002E04DBB34502DD01A8805D00E04B
:100D60003020D4E901219047206A401C2062761C83
:100D7000AAF101005FEA000A0AD100F099F8C06800
:100D80000168405CD4E901219047206A401C206240
:100D9000281EA5F10105DCDC07E0D4E9012118F8E3
:100DA000010B9047206A401C2062381EA7F1010702
:100DB000F3DC2046FFF7BAFA032011B041E610B584
:100DC000436913B1AFF3008001E0FFF7D2FA0120CD
:100DD00010BD127800F124010A7000224A7001222D
:100DE000EDE711684FF0FF32E9E710B5436913B141
:100DF000AFF3008001E0FFF753FB012010BD128824
:100E000000F1240182840022C2840122EDE71168EE
:100E10004FF0FF32E9E770B516460C46054600F084
:100E20003FF8036893F80101012806D0FF2C0FD882
:100E3000185D68B101202C7070BDD3F807013246EF
:100E4000214603F2071303442846BDE870401847C3
:100E50004FF0FF3070BD754600F0EAF8AE46050071
:100E60006946534620F00700854618B020B5FFF7C5
:100E700011FABDE820404FF000064FF000074FF098
:100E800000084FF0000B21F00701AC46ACE8C009A8
:100E9000ACE8C009ACE8C009ACE8C0098D467047B1
:100EA00010B500F005F8001D10BD00BFED160000E4
:100EB00000487047A00200202DE9F0411F4604467B
:100EC00003260168072A01F4006004DB08B116A5B7
:100ED00005E016A503E008B115A500E015A521F071
:100EE00010002060A069C01EA0610FB1401EA0616B
:100EF0002046FFF705FA4FB1D4E901213846904763
:100F0000206A401C2062C01C206206E0206AFAE7CA
:100F1000D4E9012115F8010B9047761EF8D220463E
:100F2000FFF704FABDE8F0814E414E006E616E009D
:100F3000494E4600696E66002DE9F0478146164627
:100F40008AB0354878440DC88DE80D0032487844A1
:100F5000801C03AC0DC884E80D0041F69B300844AA
:100F6000372190FBF1F290FBF1F5A5F1800501FB33
:100F700012041B3C02D56442012000E00020DFF88F
:100F800098A080460027FA44AAF1BE0A0EE0E007C6
:100F90000AD03246684607EB470101230AEB81017C
:100FA00000F023FB8DE8070064107F1C002CEED1BD
:100FB000194F7F44AE3F19E0E80715D007EB041046
:100FC0000DF1180A90E80E008AE80E00C068F042A1
:100FD00001D1981908903246012306A903A800F010
:100FE00004FB03AB83E807006D10641C002DE3D104
:100FF0004FF0010332466946B8F1000F03A802D052
:1010000000F0DEFA01E000F0F0FAC9E90001C9F8E9
:1010100008200AB0BDE8F0870021000010B50446A2
:10102000AFF300802046BDE81040FFF720B9000074
:1010300000487047800200204FF0013C50F8042B1C
:1010400051F8043B9A4221D1A2EB0C03934313EADB
:10105000CC1317D150F8042B51F8043B9A4215D108
:10106000A2EB0C03934313EACC130BD150F8042BDF
:1010700051F8043B9A4209D1A2EB0C03934313EAC3
:10108000CC13DBD04FF00000704700BFD01A01BA7C
:10109000B1FA81F101F0180122FA01F0CB40C1F15F
:1010A0002001DBB2C0B2C01A2CFA01F3D11A91436D
:1010B00011EAC311E6D170477047000001491820BA
:1010C000ABBEFEE7260002005FEA400C08BF91F0CD
:1010D000000F4FEA8C234FEAC12243EA51514FEAF5
:1010E0001C5018BF00F5F0404FEA300018BF41F027
:1010F00000415FEA6C5C00F02980BCF1FF3F08BF53
:1011000040F080407047130C06BF12044FF0100CE3
:101110004FF0000C130E04BF12020CF1080C130F59
:1011200004BF12010CF1040C930F04BF92000CF1E8
:10113000020CD30F04BF52000CF1010C11464FF00A
:101140000002A0F11F00A0EB0C00704711F0004F4F
:1011500008BF704731F000413FF4D5AF0B0C06BF1C
:1011600009044FF0100C4FF0000C0B0E04BF0902E5
:101170000CF1080C0B0F04BF09010CF1040C8B0FD0
:1011800004BF89000CF1020CCB0F04BF49000CF125
:10119000010CCCF12003A0EB0C0022FA03F302FABD
:1011A0000CF241EA030100F10100704720F07F4C8E
:1011B00080EA030023F07F47ACEB070303F57C5381
:1011C00000F0004003F1FF032DE980494FEA154B81
:1011D00009B44FEA144325EA0B4E24EA03480FF200
:1011E000042606EB132749083E785FEA320203FB28
:1011F0000667C7F5000707FB06F64FEA54374FEAC4
:10120000D64606F1020607FB066CCCF1005C4FEAFD
:101210001C472CEA074C07FB06F40CFB06F504EB15
:1012200015464FEA961634BF00204FF000404FEAB3
:10123000D13706FB07FC4FEA1C4C0CFB0BF7D21B0B
:1012400003FB0CF761EB07010CFB0EF7B0EB07405B
:1012500072EB17420CFB08F734BFA2EB0742B2EB6C
:10126000074261EB17414FEA0C444FEA910706FB36
:1012700007FC4FEA1C4C0CFB0BF7B0EBC74072EBC2
:10128000573203FB0CF734BFA2EBC742B2EBC742A5
:1012900061EB57310CFB0EF7B0EBC70072EB5772E6
:1012A0000CFB08F734BFA2EBC702B2EBC70261EB3D
:1012B0005771039F4FEA816141EA921104EBCC041C
:1012C0004FEAD1374FEA826206FB07FC42EA9012EE
:1012D0004FEA80604FEA1C4C0CFB0BF7D21B03FB60
:1012E0000CF761EB07010CFB0EF7B0EB074072EB5C
:1012F00017420CFB08F734BFA2EB0742B2EB0742E0
:1013000061EB17414FEA8C554FEA910704EB9C249F
:1013100006FB07FC4FEA1C4C0CFB0BF7B0EBC7407D
:1013200072EB573203FB0CF734BFA2EBC742B2EBB0
:10133000C74261EB57310CFB0EF7B0EBC70072EB05
:1013400057720CFB08F734BFA2EBC702B2EBC7021F
:1013500061EB577115EB4C254FEA816141EA92111F
:101360004FEA82624FEAD13742EA901206FB07FC4D
:1013700044F100044FEA80604FEA1C4C0CFB0BF771
:10138000D21B03FB0CF761EB07010CFB0EF7B0EB74
:10139000074072EB17420CFB08F734BFA2EB074281
:1013A000B2EB074261EB174115EB1C154FEA813197
:1013B00041EA92414FEA823242EA90424FEA80305B
:1013C0004FEA0C7644F1000448EA03434EEA0B4826
:1013D0004FF0000EB2EB080C71EB030724BF62461E
:1013E00039464EEB0E0E4FF0000B001852414941AA
:1013F0004BEB0B0BB2EB080C71EB03077BF1000B13
:1014000024BF624639464EEB0E0E4FF0000B00181B
:10141000524149414BEB0B0BB2EB080C71EB03074C
:101420007BF1000B24BF624639464EEB0E0E51EAAB
:10143000020718BF46F0010616EB0E7655F10002C2
:1014400054F1000103D5BDE88901BDE80088BDE87D
:101450008901BDE80048B619524141EB0101A3F1F1
:101460000103704780807F7E7D7C7B7A79787776F8
:1014700076757473727171706F6E6E6D6C6C6B6A71
:101480006A6968686766666564646363626161600F
:10149000605F5F5E5E5D5D5C5C5B5B5A5A5959588C
:1014A00058575756565555555454535352525251F6
:1014B000515050504F4F4F4E4E4D4D4D4C4C4C4B4C
:1014C0004B4B4A4A4A494949484848474747474693
:1014D00046464545454444444443434343424242CF
:1014E00042414141002B9C4630D477002BD01CB5A3
:1014F0004FEA370703B44FF010004FF01001BAF174
:10150000000F06D0BCF1000FDCBF40F0080040F037
:1015100008014FF000000FBCBDE810400BF1010BBB
:10152000BBF1010F08BF5FEA170722BF12F10102EA
:1015300011F101014FF0004143F1000300F00040C0
:1015400043EA00007047F9D35708D0E746EA064659
:1015500013F1400F4FEA16461FDD13F1200FDFBFD6
:1015600016430A46002120335B42BED0C3F1200758
:1015700046EA064602FA07F74FEA164646EA070623
:10158000C3F1200722FA03F201FA07F721FA03F167
:101590004FF0000342EA0702A7E746EA020646EADE
:1015A00006464FEA164646EA0106BCBF46EA06462C
:1015B000360C4FF000034FF000024FF0000194E7AB
:1015C0002DE9804C9A46934670B491E8380007C8DC
:1015D00031EA400C48BF34EA430C03D5FFF7E6FD7F
:1015E000FFF780FFF0BCBDE8008C2DE9804C9A46E7
:1015F000934670B491E8380007C810F0804F08BFD8
:1016000013F0804F03D100F005F8FFF76BFFF0BC3B
:10161000BDE8008C20F07F4780EA030023F07F4C78
:1016200007EB0C03A3F57C5300F00040A3F1FE038D
:1016300092F0000F00F0B38095F0000F00F077807B
:101640002DE901494FEA11404FEA144621EA0048CA
:1016500000FB06FC24EA064708FB06F607FB08F831
:1016600000FB07F718EB06484CEB164C4FEA124B01
:1016700018EB07484FEA15464CEB174022EA0B4E91
:101680000BFB06FC25EA06470EFB06F607FB0EFEE3
:101690000BFB07F71EEB064E4CEB164C4FF000060B
:1016A0001EEB074E4CEB174B18EB0B0840F10000FC
:1016B00018EB0E0B58EB000840F100008F1A4FF0AA
:1016C00000013CBFC943661B14BFB5EB040C0021ED
:1016D0003CBFC943F61B4FEA17444EEA8E0E27EA79
:1016E00004454FEA1C4704FB07622CEA074C05FB44
:1016F00007F70CFB05F604FB0CFC16EB074642EB68
:10170000174216EB0C4642EB1C421BEB060658EB4D
:101710000202414146EA9E0601D5BDE80189B6199B
:10172000524141EB0101A3F10103BDE801894FEAF8
:1017300014454FEA114724EA054621EA074C05FB08
:1017400007F406FB07F70CFB06F105FB0CFC11EB9D
:10175000074144EB17444FEA124711EB0C4144EBAD
:101760001C4422EA074C05FB07F206FB07F70CFBBB
:1017700006F605FB0CFC16EB074642EB174216EB90
:101780000C4642EB1C456A1854F1000148BF7047F3
:10179000B619524141EB0101A3F10103704795F0E5
:1017A000000F37D04FEA11424FEA144721EA0246B0
:1017B00024EA074C02FB07F106FB07F70CFB06F4D3
:1017C00002FB0CFC14EB074441EB17414FEA1547B1
:1017D00014EB0C4441EB1C4125EA074C02FB07F5D6
:1017E00006FB07F70CFB06F602FB0CFC16EB0746A4
:1017F00045EB174516EB0C4645EB1C42121951F10F
:10180000000148BF7047B619524141EB0101A3F1F5
:10181000010370474FEA14454FEA114724EA054691
:1018200021EA074C05FB07F106FB07F70CFB06F264
:101830004FF0000605FB0CFC12EB074241EB174191
:1018400012EB0C4251EB1C4148BF7047921841EB20
:101850000101A3F10103704710B50548006810B1FC
:1018600003490868804701200249086010BD000054
:10187000400200201404014010B50A240DE008487D
:1018800050F8240018B1064951F82400804701207F
:10189000A04004490860601CC4B2102CEFDB10BDEE
:1018A000400200201404014010B50548406810B102
:1018B00003494868804702200249086010BD0000C3
:1018C000400200201404014010B50548806810B1A2
:1018D00003498868804704200249086010BD000061
:1018E000400200201404014010B50548C06810B142
:1018F0000349C868804708200249086010BD0000FD
:10190000400200201404014010B50548006910B1E0
:1019100003490869804710200249086010BD000093
:10192000400200201404014010B505240DE00848D1
:1019300050F8240018B1064951F8240080470120CE
:10194000A04004490860601CC4B20A2CEFDB10BD43
:1019500040020020140401402DE9F041074688466A
:1019600014461D46284600F033F8C5F1040007FA76
:1019700000F60F20284100EA0800064306F00F0693
:10198000E21704EBD2625211920002F1E022D2F887
:1019900000212146E31704EBD3635B11A4EB431C46
:1019A000012303FA0CF31A432046E31704EBD36335
:1019B0005B119B0003F1E023C3F800210348005DA5
:1019C00040EA061001490855BDE8F08100E400E056
:1019D0000146072323EA01021202054B18684FF65D
:1019E000FF031840034B18431043014B1860704726
:1019F0000CED00E00000FA05024A0A400243024BE7
:101A00001A60704780FFFF1F08ED00E030B5044604
:101A1000002500F059F81F48006840F480301D4947
:101A2000086000BF1B480068400C0028FAD04FF443
:101A3000806018494860A01EC4B20846406840EA69
:101A4000844048600846406840F48030486012484E
:101A5000006840F03200104908600E48006840F00D
:101A600080700C49086000BF0A480068400E0028DA
:101A7000FAD00848406840F002000649486005E096
:101A800004484068C0F3870505F00305022DF7D12F
:101A900030BD0000001002400020024010B5024896
:101AA00000F0D8F810BD000048000020044800787D
:101AB00004490860002003490831086070470000AD
:101AC00003000020002C004000B5002015490861EB
:101AD000C8601420486100208861C8610846006819
:101AE00040F001000860084640680F4908400D4971
:101AF0004860084600680D4908400A4908600846E1
:101B0000006820F4802008600846406820F4FE0049
:101B100048600020886000214FF00060FFF76CFFF4
:101B200000BD0000001002400000FFF8FFFFF6FEBD
:101B300030B503468D000F20A840C44303EA0400DB
:101B40008D0002FA05F5284330BD00007FB516462A
:101B50001D46009C194880694FF48031611A8A0A39
:101B6000012191400843154988619DF80400082827
:101B700007DA9DF8041020683246FFF7D9FF20608D
:101B800008E09DF80420083AD1B260683246FFF7B9
:101B9000CFFF6060012D07D1E0689DF8042001218E
:101BA00091400843E06007E035B9E0689DF8042003
:101BB000012191408843E0607FBD00000010024099
:101BC00010B5012308220D4803C8FFF7BFFF01230A
:101BD00008220A48C1688068FFF7B8FF012308227D
:101BE000064841690069FFF7B1FF00230822034856
:101BF000C1698069FFF7AAFF10BD00001400002032
:101C000010B501230322054803C8FFF79FFF0123F6
:101C10000322034803C8FFF799FF10BD040000200A
:101C20000C00002070B505460C46084805700848B1
:101C300004702046FFF7EAFE4FF0E020006920F034
:101C400004004FF0E021086170BD00000100002099
:101C5000020000200146D1F8A421128802F01002EF
:101C600052B1B1F8A82142F40042A1F8A821D1F85C
:101C7000A4219288D0B2A8E0D1F8A421128802F061
:101C80002002002A74D0D1F8A4219288D0B291F811
:101C9000A021052A6BD2DFE802F00304364D69006B
:101CA00065E0B1F8A82102F400425ABBB1F8A821BE
:101CB00002F4804262B10A2803D00022A1F8A821D0
:101CC00020E0B1F8A82142F40042A1F8A82119E0CF
:101CD0000D2806D1B1F8A82142F48042A1F8A8212C
:101CE00010E0B1F8A821C2F30D028854B1F8A82180
:101CF000521CA1F8A821B1F8A821C72A02DD0022B0
:101D0000A1F8A82133E0B1F8A82102F4004282B979
:101D1000B1F8A821C2F30D028854B1F8A821521CD1
:101D2000A1F8A821B1F8A821C72A02DD0022A1F854
:101D3000A8211CE0B1F8AC21B1F8AA319A4202DB2B
:101D4000B1F8AE2182B9B1F8AC218854B1F8AC2118
:101D5000521C92B2A1F8AC21C82A05DB0022A1F8DE
:101D6000AC210122A1F8AE2101E001E000BF2CE08E
:101D7000D1F8A421128802F0400232B391F8B031B8
:101D8000B1F8B221521E93420DDA91F8B021521CE3
:101D900081F8B02191F8B03101F1C802D25CD1F8DC
:101DA000A4319A8011E0012201F5D2710A740A6807
:101DB000928922F040020B689A810A68128822F008
:101DC00040020B68A1F5D2711A807047014691F864
:101DD000B40170472DE9F04F89B004468946924618
:101DE0008A4800788A4909784843C7B28949D4F8B3
:101DF000A401884210D18848C06840F480408649D8
:101E0000C8600846C06820F48040C8600846806901
:101E100040F48040886131E0384607EBD071C1F36F
:101E200047077D4800694FF48842D4F8A411891A05
:101E3000112202EB91220121914008437649086169
:101E4000084600694FF48842D4F8A411891A112277
:101E500002EB91220121914088436F4908610846B5
:101E6000C0694FF48842D4F8A411891A112202EBF8
:101E700091220121914008436749C8614FEA091046
:101E800000F020FF8046654907FB01F000F002FFEB
:101E90008346414600F000FE0546284600F0DAFE83
:101EA00086B2304600F00EFF2946079000F0EAFFA8
:101EB00083464FF0834100F019FF8046404600F012
:101EC000ADFE8346404600F0A9FE019000F0E2FE20
:101ED0004146029000F0D6FF039000F04FFD002233
:101EE0004F4BCDE9040100F06DFBCDE9060100F098
:101EF000C1FC584480B20890089800EB061004F525
:101F0000D074616808816068808942F20C010843DE
:101F1000616888816068808940EA4A2061688881B8
:101F20002078A4F5D074022807D1D4F8A4018089C0
:101F300040F01000D4F8A411888194F8A101012880
:101F400008D1D4F8A401808940F02000D4F8A4116D
:101F5000888100E000BF0223082204F5C0704169B7
:101F60000069FFF7F3FD02230B2204F5C870C16876
:101F70008068FFF7EBFD94F8A00118B194F8A10177
:101F8000012807D094F8A201012803D094F8A001F9
:101F9000022837D1234AD4F8A401811A904222D0D2
:101FA00006DC2149084480B1B0F5806F29D113E0E7
:101FB000B1F5806F1ED0B1F56C4F22D102232522DE
:101FC00003210846FFF7C8FC1BE002232622032159
:101FD0000846FFF7C1FC14E002232722032108462C
:101FE000FFF7BAFC0DE00223342203210846FFF775
:101FF000B3FC06E00223352203210846FFF7ACFCC0
:1020000000BF00BF09B0BDE8F08F00000100002054
:1020100002000020003801400010024040420F0042
:102020000000E03F004C004000BCFFBFF0B504469C
:102030000E461546002084F8B40194F8A201C0B9F8
:10204000002704E0F15D204600F039F87F1CAF4224
:10205000F8D3012084F8B40194F8A00102282DD10E
:10206000D4F8A401808940F01000D4F8A41188812C
:1020700024E094F8A201012820D1002005E0325C80
:1020800004F1C8010A54411C88B2A842F7D304F5F0
:10209000CA74E583002020772069008820F0400082
:1020A000216908802069808940F040002169888189
:1020B00014F8CC0C2169A4F5CA748880F0BD002204
:1020C00080F8B42190F8A221D2B900BFD0F8A421A1
:1020D000128802F04002002AF8D0D0F8A4219180A2
:1020E000012280F8B42190F8A021022A22D1D0F850
:1020F000A421928942F01002D0F8A4319A8119E00B
:1021000090F8A221012A15D100F5D2700268128838
:1021100022F0400203681A800268928942F040026D
:1021200003689A810122C281002202730268A0F52D
:10213000D2709180704700000FB410B5044604A817
:102140002E4908600846026804F1C8000399FEF7AA
:10215000AFF8A4F8B20100202849086084F8B00163
:1021600084F8B40194F8A20158BB14E000BFD4F87D
:10217000A401008800F040000028F8D094F8B011C5
:1021800004F1C800405CD4F8A411888094F8B00130
:10219000401C84F8B00194F8B001B4F8B211884240
:1021A000E4DB012084F8B40194F8A001022822D1D4
:1021B000D4F8A401808940F01000D4F8A4118881DB
:1021C00019E094F8A201012815D1002004F5CA7481
:1021D00020772069008820F040002169088020696C
:1021E000808940F040002169888114F8CC0C216975
:1021F000A4F5CA74888010BC5DF814FB440000206C
:10220000F0B504461D4694F8A001012803D094F8C7
:10221000A001022870D194F8A10100286DD17EE0C0
:10222000002600E0761C41F28830B6FBF0F0A842B0
:102230000BD2D4F8A401008800F0200028B9B4F82B
:10224000A80100F400400028ECD041F28830B6FB31
:10225000F0F0A84201D30020F0BDB4F8A80100F4CA
:10226000004000B162E0D4F8A4018088C3B26348A2
:1022700000680C3000F0704000F100705F4F3F6864
:102280000C37C7F3130700EB47105C4F3F7950F84A
:1022900027006FEA000C594800680C3000F07040CD
:1022A00000F10070554F3F680C37C7F3130700EB80
:1022B0004710524F3F7940F827C0B4F8A80100F406
:1022C000804060B10A2B03D00020A4F8A80126E0CA
:1022D000B4F8A80140F40040A4F8A8011FE00D2BB9
:1022E0000CD194F8A001022808D0B4F8A80140F459
:1022F0008040A4F8A80112E03BE020E0B4F8A80177
:10230000C0F30D000B54B4F8A801401CA4F8A801B8
:10231000B4F8A801C72802DD0020A4F8A801B4F889
:10232000A80100F4004000283FF47AAF00BFB4F8E1
:10233000A80110700020A4F8A80101208CE794F8EF
:10234000A101012858D1B4F8A80100F40040E0B37D
:10235000B4F8A8011070002003E0235C0B54431C68
:10236000D8B213788342F8DC0020A4F8A801012039
:1023700072E794F8A00103283ED1B4F8AA01B4F89A
:10238000AC31984202D1B4F8AE01F0B1D4F8A40156
:10239000808920F02000D4F8A431988100201070AA
:1023A00016E0B4F8AA01205C1378C8541078401CD9
:1023B0001070B4F8AA01401C80B2A4F8AA01C82881
:1023C00006DB0020A4F8AA0100E015E0A4F8AE01A5
:1023D000B4F8AA01B4F8AC319842E2DBB4F8AE012B
:1023E0000028DED1D4F8A401808940F02000D4F880
:1023F000A431988101202FE700202DE70400002060
:102400002DE9F041069CC0F8A44100F5C075DDE956
:1024100009C8DDE90767C5E90467C0F898C1C0F8D5
:102420009C8100F5D07001704270837001250575A4
:1024300000250581A0F5D070BDE8F081490050EA83
:10244000C12018BF04204A0D18BF40F0010040F21F
:10245000FF72B2EB515F08BF40F00200012808BFD5
:102460000520704700B585B0074B0FCBCDE903239E
:10247000CDE90101054800231A46022100900448D5
:10248000FFF7BEFF05B000BD34000020003801405A
:102490004800002030380A2801D20120704700206F
:1024A0007047000009210820FFF7BCFB00224FF411
:1024B000E1312648FFF78EFCFFF7A2FBFFF780FB18
:1024C00042E04FF47A73224A22492048FFF798FEEF
:1024D000D0B3214800680C3000F0704000F100706B
:1024E0001D4909680C31C1F3130100EB41101A4971
:1024F000097950F82100C243174800680C3000F0F9
:10250000704000F10070144909680C31C1F31301E7
:1025100000EB41101049097940F8212000BF0B4819
:10252000FFF754FC0028FAD0094802780949074807
:10253000FFF77CFD00BF0548FFF748FC0028FAD0F4
:1025400006A10248FFF7F8FDBBE7000048000020A5
:1025500000000020000200200C00002068656C6C68
:102560006F776F726C640D0A0000000010B50029CF
:102570000AD00878002807D005487844FEF75CFDAB
:10258000002801D0002010BD0248784410BD000092
:10259000060B0000FE0A000010B500290AD00878DA
:1025A000002807D005487844FEF746FD002801D0F2
:1025B000002010BD0248784410BD0000F60A00005B
:1025C000EE0A00002DE9C04130B4DFF8A0C23CEAB9
:1025D000111418BF3CEA131400F0EC8081EA0305E3
:1025E0001CEA111444EAD57418BF1CEA131500F054
:1025F000C780A4EB05044FF0004545EAC12145EA38
:10260000C32341EA505143EA525304F17F74994283
:1026100004F500344FEAC0204FEAC22208BF9042BE
:1026200000F09C804FEA13650FF24016765D4FEA8A
:10263000134506FB05F7C7F1807706FB07F74FEA5E
:10264000D737A7FB03687642C8F58038A7FB06CECC
:1026500038BFA8F1010807FB08E64FF0000EA6FB03
:10266000028CE6FB03CEDCF1000CCEF1004E38BF4D
:10267000AEF1010EA6FB0C584FF000074FF000051D
:10268000E6FB0E87A1FB08C6A0FB07CE16EB0E06E5
:1026900045F10005E1FB076515F1E04E7EBFA4F5AD
:1026A00080345FEA46066D4116F1800745F100056A
:1026B0004FEA17274FEA066647EA0567A6F1DE46A6
:1026C000B6F1805F4FEA15251FD9384624F0010C7A
:1026D00005EBC471BCF1FE6F01EB0C1102D8F0BC2C
:1026E000BDE8008124425CBF01F5801E9EEAC47FE4
:1026F00002D4F0BCBDE80081244238D4F0BCA1F182
:10270000C041BDE8004100F032B94FEAD22242EAAE
:1027100043524FEAD323A7FB02864FEAD02040EA78
:10272000415007FB03661EEA0E0F4FEAD12105FB5D
:10273000026658BFA6EB0056B6EB00564FEA520EA3
:102740004EEAC37E18EB0E0E56EB530EBDD518EBBA
:1027500002085E417F1C55F10005B6E74FF4801575
:102760004FF000074FF000064FF00008ADE7F0BC57
:102770004FF0000001F1C04101F00041BDE80081CF
:1027800011EA0C1F0CEA131500D00CE013EA0C1F21
:1027900000F025804FF00000F0BC81EA030101F059
:1027A0000041BDE80081F0BCBDE8004181EA0301C1
:1027B00000F0DDB8F0BCBDE8004170B500F089F86C
:1027C000097EFC3E00F007B881EA03014FF00000EB
:1027D00001F00041704781EA030100F0C8B8F0BC85
:1027E000BDE800414FF0000021497047FFFDFBF9B3
:1027F000F7F5F4F2F0EEEDEBE9E8E6E4E3E1E0DE34
:10280000DDDBDAD8D7D5D4D3D1D0CFCDCCCBCAC8A5
:10281000C7C6C5C4C2C1C0BFBEBDBCBBBAB9B8B7CC
:10282000B6B5B4B3B2B1B0AFAEADACABAAA9A8A8BF
:10283000A7A6A5A4A3A3A2A1A09F9F9E9D9C9C9B8D
:102840009A99999897979695959493939291919038
:102850008F8F8E8E8D8C8C8B8B8A898988888787C9
:102860008685858484838382828181800000FF073E
:102870000000F87F4FEA41034FEA5353A3F580630A
:10288000D3F11E03C8BFD3F1210C0CDD4FF0004281
:1028900042EAC12242EA505232FA03FC8CEAE17C5D
:1028A000ACEBE1707047102BC4BF0020704703F5FC
:1028B000787CBCF1FF3F04D06FF0004282EA210037
:1028C000704770B500F005F84992248000207047E9
:1028D000F2E70EF1020E2EF0030E5EF8046B3642A4
:1028E00005D4012A43EB030515F5001F12D8012872
:1028F00041EB010C1CF5001F0CD80ED14FEAD17C26
:1029000015F5001F0CEB4C0C0CF1020C08BF4CEB46
:10291000D37C04E04FF0080C01E04FEAD37C0CEBD1
:102920004C0526FA05F606F00706B6F1040C06D2A9
:102930000EEB860CBDE870404CF0010C6047DFE800
:102940000CF0090B02024FF000414FF00000A1F51E
:10295000002170BD19461046012851EB010418BF33
:10296000D4F5001484BF002001F0004170BD0808B8
:10297000A0F500114FEA31017047000043004FEA13
:10298000D30C4FEA3C0C43401FBF40070CF1605191
:1029900013F0FE4F70471CF0006F03D100200CF0C5
:1029A000004170470CF0004343EA507010B540EA14
:1029B000CC0000F01CFA00BF000000924FEA0001BA
:1029C000FFF7D5BF4FF000414FF00000A1F5002107
:1029D0007047000090EA010F48BF81F0004100F10C
:1029E0006282421A3CBF801A89184FEAD0524FF0D7
:1029F0007F4C1CEA410FA2EBD15318BF9CEA026F37
:102A000000F03B804FF0004C4CEA00204CEA0121E2
:102A100021FA03FC10EB0C0C1ED202F1FF325FEA2C
:102A20001C2040EBC25038BF70471CF07F0F4FEAAC
:102A3000400C18BFBCF17F4F38BF7047C3F1200373
:102A4000994008BF20F00100BCF17F4F38BF7047AC
:102A5000A0F1C04000F011BA4FEA3C00000A40EB80
:102A6000C25028BF1CF0FF0F4FEA400CE6D018BF41
:102A7000BCF17F4F38BF7047EAE79CEA026F05D090
:102A800010EA5C0F08BF00F00040704710B500F07E
:102A9000AEF900BF64FBBE3E4FF47F0C1CEAD012BF
:102AA0001EBF1CEAD11392EA0C0F93EA0C0F00F040
:102AB000858090EA010F48BF42F4807240F4000C18
:102AC00041F400002CF07F4120F07F4000B58142AE
:102AD000A2EB03020FF2081CACEB504EC0F1000059
:102AE0009EF800E04FEA4E0E00FB0EFC38BF490096
:102AF0004FEA2C1C02F5FA020CFB0EF34FEACE1E35
:102B00004FEA112C4FEAC1210EEB635E42EB2242E9
:102B10000EFB0CFC4FEA1C5300FB03114FEA112C77
:102B20004FEA01310EFB0CFC4FEADC4C00FB0C11B0
:102B3000C14228BF09184CEB03335DF804EB10EBDE
:102B4000410143EBC250B2F57C0F38BF704729D525
:102B500012F0F00F1CBF00F1C04000F000407047C1
:102B6000008182838485868788898B8C8D8E8F9166
:102B70009293959697999A9C9D9FA0A2A3A5A7A88A
:102B8000AAACAEB0B2B3B5B7B9BCBEC0C2C5C7C9B6
:102B9000CCCED1D4D7D9DCDFE2E6E9ECF0F3F7FA1A
:102BA000FE0000004FEA400C0CF1807CBCF17E4F2F
:102BB00028BF7047B0F1C04000F05FB990EA010F44
:102BC0000CEAD11348BF42F48072624538BF6345B6
:102BD00007D213F47F0F16D080EA010000F0004006
:102BE000704710B500F003F9097EFC3E00F005B80F
:102BF00080EA010000F00040704780EA010000F028
:102C0000004000F03AB912F47F0F04BF0248704749
:102C100080EA010000F031B90000C07F41000B0ED6
:102C2000D3F19E0208D950F400034FEA032323FA9C
:102C300002F048BF4042704710B500F0D8F800BF1E
:102C400049922480002070476FF0004282EA200001
:102C500070470000C10DD1F19E0206DB4FEA002350
:102C600043F0004323FA02F07047004207D54FEAD1
:102C70004001B1F1FE4F02D24FF00000704710B595
:102C800000F0B5F849922480002070476FEA2000D8
:102C90007047000010F0004148BF4042B0FA80F396
:102CA00010FA03F2C3F19D030BD051EAC35101EBBB
:102CB0001220530638BF704700F1010008BF20F012
:102CC00001007047B0FA80F310FA03F2C3F19D03DC
:102CD0000AD0D90501EB1220530638BF704700F126
:102CE000010008BF20F00100704700004FF47F0C86
:102CF0001CEAD0121EBF1CEAD11392EA0C0F93EA11
:102D00000C0F00F0478090EA010F48BF42F4807238
:102D10004FF0004C4CEA00204CEA012102EB030288
:102D2000A0FB0113A2F50002002918BF43F0010324
:102D30005B0028BF4FEA330342EB22425FEA132CC9
:102D40004CEBC2502EBFBCEB436FB2F57C0F70470B
:102D50004FEA036CBCF1004F08BF20F00100B2F550
:102D60007C0F38BF70470BD582F0FF0212F5803F11
:102D7000C8BF704700F1C040D8BF00F000407047A6
:102D800000F5000C5FEA4C0C48BF7047B0F1C04042
:102D900000F073B890EA010F0CEAD11348BF42F477
:102DA0008072624538BF634504D280EA010000F0BA
:102DB0000040704710B500F01AF800BF8900013ECE
:102DC00000F007B800F009B85FEA410C5FEA1C6C3C
:102DD00008D080EA010000F050B85FEA400C5FEADA
:102DE0001C6CF6D14FF00040A0F5800070470EF14A
:102DF000020E2EF0030E5EF8044B244204D44FEA78
:102E00004102B2F17F4F11D84FEA4003B3F17F4F37
:102E10000CD80ED14FEAD07CB2F17F4F0CEB4C0CAA
:102E20000CF1020C08BF4CEBD17C04E04FF0080C15
:102E300001E04FEAD17C0CEB4C0324FA03F404F0DC
:102E40000704B4F1040C06D20EEB840CBDE810406C
:102E50004CF0010C6047DFE80CF0070802024FF06D
:102E60000040A0F5800010BD0846420018BFD2F116
:102E7000807288BF00F0004010BDFF2141EAD050B1
:102E8000C005704780F0004090EA010F7FF5A9ADC2
:102E900081F0004100F007B890EA010F48BF81F0CF
:102EA00000413FF59EAD421A04D882F00042A0EBEB
:102EB000020011444FEAD0524FF07F4C1CEA410F00
:102EC000A2EBD15318BF9CEA026F4AD04FF0004CDE
:102ED0004CEA00204CEA012121FA03FCB0EB0C0C77
:102EE0000FD412F0FE0F36D05FEA4C001DD5001251
:102EF00040EBC25038BF70471CF03F0F18BF7047FF
:102F00000BE0A2F101025FEA1C2040EBC25038BF87
:102F100070471CF07F0F18BF7047C3F12003994022
:102F200014BF401E20F00100704780084FEA1223B2
:102F300008BF7047B0FA80FCA2EB0C02CCF1280C61
:102F400060FA0CF093EA122F04BF00EBC2507047F6
:102F50004FEAC3707047130A5FEADC1008BF70477E
:102F6000F6E79CEA026F04D010EA5C0F08BF00206D
:102F7000704710B5FFF73BFF40DFF63E81F00040A1
:102F80007047FDF7E6BD00000000000000000000F3
:102F9000303132333435363738394142434445468F
:102FA0004030580030313233343536373839616289
:102FB000636465664030780004000008000000008B
:102FC00000000002000100001000000002400000AC
:102FD000000000A00000000005400000000000C844
:102FE000000000000C4000000000409C00000000B9
:102FF000194000000020BCBE00000000344000006A
:10300000BFC91B8E00000004B5400000504BCFD05C
:103010006607E2CF010000006C4100003E8251AA29
:10302000DFEEA73401000000D9420000DCB5A0E2C9
:103030003A301F97FFFFFFFFB4450000FD25A0C8F1
:10304000E9A3C14FFFFFFFFFFF3F0000000000802A
:1030500000000000FF3F00000000008000000000B2
:10306000B031000800000020480000006C0100089A
:10307000F831000848000020980600008801000888
:103080001C00000043000000F8FFFFFF0C000000E0
:103090000E0000000F0000002E00000010010000D4
:1030A00043000000F8FFFFFF004040404040404028
:1030B000404041414141414040404040404040400B
:1030C00040404040404040404005020202020202AF
:1030D00002020202020202020220202020202020FE
:1030E0002020200202020202020290909090909012
:1030F00010101010101010101010101010101010D0
:103100001010101002020202020288888888888843
:10311000080808080808080808080808080808082F
:103120000808080802020202400000000000000037
:10313000000000000000000000000000000000008F
:10314000000000000000000000000000000000007F
:10315000000000000000000000000000000000006F
:10316000000000000000000000000000000000005F
:10317000000000000000000000000000000000004F
:10318000000000000000000000000000000000003F
:10319000000000000000000000000000000000002F
:1031A000000000000000000000000000B9F2FFFF76
:1031B0000008097F000C01400500000000180140D4
:1031C0000500000000180140040000000018014044
:1031D0000300000000180140020000000008014048
:1031E00000000000000801400A0000000008014043
:0831F0000900000000000000CE
:0400000508000131BD
:00000001FF
