:020000040800F2
:10000000B0110020BD020008C1020008C3020008B0
:10001000C5020008C7020008C9020008000000006D
:10002000000000000000000000000000CB020008FB
:10003000CD02000800000000CF020008BD1B000830
:10004000DD1C0008D3020008D3020008D302000818
:10005000D3020008D302000879190008C919000862
:10006000E9190008091A0008291A0008C11800082F
:10007000D1180008E1180008F1180008011900085B
:10008000111900082119000899180008D302000866
:10009000D3020008D3020008D3020008491A00085E
:1000A000D3020008ED1B0008DD1B0008CD1B000873
:1000B000FD1B00080D1C00081D1C0008D3020008D1
:1000C000D3020008D3020008D3020008D3020008BC
:1000D000D3020008AD1C0008BD1C0008CD1C0008A0
:1000E00099190008D3020008D3020008D3020008BF
:1000F0007D1C00086D1C00085D1C0008B11800087C
:10010000D3020008D30200082D1C0008D302000807
:100110008D1C00089D1C00083D1C00084D1C00089B
:100120003119000841190008511900086119000827
:1001300000F002F800F0B2F80AA090E8000C824447
:100140008344AAF10107DA4501D100F0A7F8AFF224
:10015000090EBAE80F0013F0010F18BFFB1A43F0A5
:1001600001031847D83C0000F83C00000A444FF057
:10017000000C10F8013B13F0070408BF10F8014B06
:100180001D1108BF10F8015B641E05D010F8016B4B
:10019000641E01F8016BF9D113F0080F1EBF10F8AF
:1001A000014BAD1C0C1B09D16D1E58BF01F801CBD2
:1001B000FAD505E014F8016B01F8016B6D1EF9D555
:1001C0009142D6D37047000000230024002500266A
:1001D000103A28BF78C1FBD8520728BF30C148BFAA
:1001E0000B6070476E2900F04981702900F08B8206
:1001F000662903F0A885652903F0A585672903F022
:10020000A2856129AFF3008003681B0A28BF41F073
:100210008001692900F0F680642900F0F3807529D7
:1002200000F0F0806F2900F01882782900F05782E2
:10023000E92900F0B381E42900F0B081F52900F04C
:10024000AD81EF2900F01582F82900F0568203688D
:10025000DB0928BF41F08001632900F0DA857329AA
:1002600000F0DF85E32900F0EA85F32900F0EF854F
:10027000002070471FB500F03BFE04000020002165
:1002800002F090FF401C60600020002102F074FF2B
:10029000E06000F043F81FBD10B510BD00F0FBFD9D
:1002A0001146FFF7E7FF02F013FF00F0D7FE03B49B
:1002B000FFF7F2FF03BC00F021FF000008480047F1
:1002C000FEE7FEE7FEE7FEE7FEE7FEE7FEE7FEE706
:1002D000FEE7FEE703480449024A044B704700006A
:1002E00031010008B00D0020B0110020B00D002039
:1002F0001CB50C46064B7B4469460090204600F036
:10030000D6F804460020694600F0E4F820461CBDFB
:10031000DB010000704770477047000070B5064C65
:100320007C44064D7D4403E0206820448047241D22
:10033000AC42F9D170BD0000643C0000743C000088
:1003400070B5044685690068C10601D5302600E015
:100350002026C00707D070BDD4E901213046904760
:10036000206A401C20626D1EF6D570BD70B5044633
:1003700085690078C00707D170BDD4E9012120202C
:100380009047206A401C20626D1EF6D570BD09683A
:100390004A0501D540B27047C905FCD500B2704787
:1003A00009684A0501D5C0B27047C905FCD580B2BD
:1003B000704770B50C460546012A05D0287880069E
:1003C00000D5EA69002302E0012305E05B1C9342AB
:1003D00002D2E05C0028F9D1A869E618C01AA86129
:1003E000286A184428622846FFF7AAFF04E0D5E9E6
:1003F000012114F8010B9047B442F8D32846FFF7C7
:10040000B5FF70BD2DE9F04106460024106875293E
:10041000314616A510D0FFF7BAFF002802DA404295
:1004200013A507E031688A0701D512A502E0490744
:1004300004D511A5012401E0FFF7B2FF00210A2233
:1004400006F1240709E0B0FBF2FCB0FBF2F302FB7B
:100450001C00303078541846491C0028F3D123463C
:100460002A463046BDE8F04100F061BA00000000C5
:100470002D0000002B000000200000001168026821
:10048000006A530501D508700AE0D30501D508803C
:1004900006E0130603D5C217C1E9000200E00860B8
:1004A0000120704701694A1C02610878704700B555
:1004B0008FB0CDE901310021059105497944CDE99D
:1004C00003101146684600F029F90FB000BD000086
:1004D000E5FFFFFF0A6802F8010B0A6070470000A1
:1004E0002DE9FF5F15468A460446DFF8AC80F844E4
:1004F0000027D8E900103E46CDE9001010E03AF898
:1005000016106A4602A800F0A6FC411C07D021780C
:10051000890603D5E269391891420DD80744761C43
:100520002078800602D5E069B84205DDAE42E6DB00
:100530003AF816000028E2D1A069C01BA06120464D
:10054000FFF7FEFED8E90010CDE90010002017E00B
:100550003AF818106A4602A800F07DFCB0F1FF3F9F
:1005600081460BD000250DF1080B05E0D4E90121EF
:100570001BF8050090476D1C4D45F7D308F10100AD
:10058000B0428046E4DB206A384420622046FFF710
:10059000EDFEBDE8FF9F0000723800002DE9F0413C
:1005A0008046D21D22F007020025D2E90002F5297B
:1005B00015A614D0011E72F1000106DA0023D0EB5B
:1005C000030063EB020211A608E0D8F800108B07C5
:1005D00001D50FA602E0490701D50EA60125114657
:1005E000002408F1240704E000F05CF930323A55A9
:1005F000641C50EA0102F7D12B46324621464046A0
:10060000BDE8F04100F093B9000000002D000000AB
:100610002B0000002000000030B4002100F1240471
:1006200008E002F00705D208303542EA4372DB08E1
:100630006554491C52EA0305F3D10468002310A253
:10064000250707D5A40600D421B1C46901230DA252
:10065000641EC46130BC00F06AB910B5044621467E
:100660001068FFF79DFE02462046BDE810400023BB
:10067000D2E7D21D22F00701D1E90023CCE7000028
:100680000000000030000000F0B40D4601880905AC
:1006900002D5214C7C4402E01F4C7C440E340021E6
:1006A00000F1240608E002F00F071209E75D42EAB4
:1006B00003721B097754491C52EA0307F3D10278ED
:1006C0000023120704D5702D06D009B1022311347E
:1006D0002246F0BC00F02BB901231034F8E770B5C6
:1006E00004460D4621461068FFF75AFE0246294689
:1006F0002046BDE870400023C6E7D21D22F0070364
:10070000D3E90023C0E70368126843F020030360C5
:100710000823C3610023B7E7D43600002DE9F05F5A
:10072000894604464FF0000ADFF874B1FB44C0F874
:1007300020A02046E1688847002874D0252806D0EC
:10074000D4E901219047206A401C2062F1E700268D
:100750005F462046E16888472028054607DB312DA3
:1007600005D2781910F8200C08B10643F1E7B0075C
:1007700001D526F00406C4F81CA00027C4F818A070
:100780002A2D09D0284602F09BFC38B304EB8708D9
:10079000303DC8F8185019E059F8041B204604EB06
:1007A00087029161E1688847012F054618D1E06909
:1007B000002820DA26F020061DE0D8F8180000EB0B
:1007C000800005EB40003038C8F818002046E1688A
:1007D0008847054602F074FC0028EED1012F0AD0AC
:1007E0002E2D08D12046E16888477F1C0546022F40
:1007F00046F02006C4DBA069002803DA404246F038
:100800000106A061F00701D026F010066C2D0BD078
:10081000682D09D04C2D39D06A2D35D0742D35D0A6
:100820007A2D33D016E038E0E1682F46204688471D
:10083000B842054609D16C2F26D04FF48060E1689C
:10084000064320468847054604E06C2F1AD04FF433
:10085000807006430DB3A5F14100192802D8203558
:1008600046F400664A462946204626604E46FFF773
:10087000B9FC80B101280BD0F61D26F0070000F16D
:10088000080956E74020E4E78020D8E70020D6E7B3
:1008900006F104094DE7284652E7206ABDE8F09FBB
:1008A0006436000030B5B0F10A024FEA900E71F1E3
:1008B00000034EEA817EB0EB0E0061EB91014FEA3E
:1008C000101E4EEA017E10EB0E0041EB11114FEAB3
:1008D000102E4EEA016E10EB0E0041EB11214FEA93
:1008E000104E4EEA014E10EB0E0041EB1141401844
:1008F00041F100014FEAD00040EA41704FEAD101D6
:1009000010EB80054FEA810444EA907444EB010443
:100910006D1944EB0404521BA3414FF0000348BF80
:100920000A3200D530BD401C41F1000130BD2DE937
:10093000F0470D4699469246044600F124080168A6
:10094000880604D5E06921F01001216000E0012053
:10095000A84201DD471B00E00027A1697A1902EBDC
:100960000900081AA0612078C00602D42046FFF7CB
:10097000E7FC002608E0D4E901211AF806009047B8
:10098000206A401C761C20624E45F4DB2078C006AD
:100990000AD52046FFF7D4FC06E0D4E90121302037
:1009A0009047206A401C2062381EA7F10107F4DC42
:1009B00007E0D4E9012118F805009047206A401C9F
:1009C0002062281EA5F10105F3DC2046FFF7CEFCCE
:1009D0002078000602D50220BDE8F0870120FBE761
:1009E00070472DE9FF4F0C461E464FF0FF378BB086
:1009F000D2E90001DDF860800A908A46C1F30A5509
:100A000005B93D46002108464FF00000BAF1000F3D
:100A100000F4400005DA00EB80004FF4400101EAE9
:100A200050004FEA9059B9F1010F00DDB9460A981C
:100A300050EA4A000ED044F61050A5F2FF35454367
:100A40002F14B8F1000F1ED07542291E1EDDC9F10A
:100A500000021CE0B8F1010F4FF0000001D030217E
:100A600003E0F24305E02154401CB042FBDB30467A
:100A70000022002121540B99C1F80880C1E900200F
:100A80000FB0BDE8F08FBD1B6D1CDEE74A4600DAF3
:100A9000694206A800F070FA06AB93E8070003ABC2
:100AA00083E8070050460A9900F02EFB8DE8070006
:100AB000A0F500501F3800900398002D0ADD42F287
:100AC0001F014A460844002303A90390684600F02A
:100AD00097FD09E0A0F500504A461F38002303A9FE
:100AE0000390684600F0A1FD8DE807000004000CAB
:100AF00003D04FF0FF30410800E01046B8F1000F7E
:100B000003D00022009215461EE0751E05D4FFF7A3
:100B1000C9FE303262556D1EF9D5B3460122084335
:100B200002D000227F1C04E02078302801D100226E
:100B30007F1E002A099784D01DE0112D07DAFFF7E8
:100B4000B1FE303262556D1C50EA0102F5D1084306
:100B500002D00098C8B10EE00021681E05E0235CB9
:100B6000625C63542254401E491C8142F7DBAB4651
:100B7000A81B401E0990002004F80B000B98099A4E
:100B8000C0F80880C0E9002B7AE711264FF0000872
:100B900057E72DE9F04F88460446D21D22F00701A1
:100BA00091B0D1E90001CDE90A0102F088F90246CD
:100BB0000B98C00F01D02D2007E02068810701D5D8
:100BC0002B2002E0202101EAC000032A099001D075
:100BD000072A05DB03464146204600F08DF90BE16C
:100BE0002078800601D5E06900E00620B8F1650FA5
:100BF000814606D0B8F1660F18D0B8F1670F70D1F2
:100C000031E00020B9F1110F009001DB112301E068
:100C100009F101030AAA01A90CA8FFF7E2FEDDE928
:100C20000C70002609F10105834647E001204B4680
:100C300000904FF000470AAA01A90CA8FFF7D1FEC7
:100C4000DDE90DB00C995D46002610B909F10100EF
:100C50000D18B9EB050003D4C0F1FF3609F1010509
:100C6000A5EB09002BE0B9F1010F01DA4FF0010902
:100C70000020B9F1110F0090484601DD112300E07A
:100C800003460AAA01A90CA8FFF7ABFEDDE90C7028
:100C90004D4600268346207800070AD4AB4500DA8B
:100CA0005D4601A8012D04DD411911F8011C302910
:100CB00007D04F4502DA17F1040F04DA012082460B
:100CC0000FE06D1EEEE7002F02DCED1B3E4403E05B
:100CD000781CA84200DD7D1CB81B00F1010A4FF012
:100CE00000472078000703D4AA4501DB4FF0FF3A04
:100CF0000021B7F1004F0DF143088DF8431024D0C7
:100D000002202B23002F01DA7F422D230A21021E0D
:100D1000A0F1010000DC5FB197FBF1FC97FBF1F261
:100D200001FB1C7C17460CF1300C08F801CDEEE7F6
:100D3000A8F1010003702188090501D5452100E0D3
:100D40006521A0F1010800F8011C09980FA9A1EB89
:100D50000807FF1D00B10120411901EBEA70A169EC
:100D60003844081A401EA0612078C00602D42046EC
:100D7000FFF7E6FA099828B1D4E901219047206AE3
:100D8000401C20622078C00622D52046FFF7D8FA02
:100D90001EE0002E04DBB34502DD01A8805D00E00B
:100DA0003020D4E901219047206A401C2062761C43
:100DB000AAF101005FEA000A0AD100F099F8C068C0
:100DC0000168405CD4E901219047206A401C206200
:100DD000281EA5F10105DCDC07E0D4E9012118F8A3
:100DE000010B9047206A401C2062381EA7F10107C2
:100DF000F3DC2046FFF7BAFA032011B041E610B544
:100E0000436913B1AFF3008001E0FFF7D2FA01208C
:100E100010BD127800F124010A7000224A700122EC
:100E2000EDE711684FF0FF32E9E710B5436913B100
:100E3000AFF3008001E0FFF753FB012010BD1288E3
:100E400000F1240182840022C2840122EDE71168AE
:100E50004FF0FF32E9E770B516460C46054600F044
:100E60003FF8036893F80101012806D0FF2C0FD842
:100E7000185D68B101202C7070BDD3F807013246AF
:100E8000214603F2071303442846BDE87040184783
:100E90004FF0FF3070BD754600F0EAF8AE46050031
:100EA0006946534620F00700854618B020B5FFF785
:100EB00011FABDE820404FF000064FF000074FF058
:100EC00000084FF0000B21F00701AC46ACE8C00968
:100ED000ACE8C009ACE8C009ACE8C0098D46704771
:100EE00010B500F005F8001D10BD00BFB9220000CC
:100EF000004870476C0D00202DE9F0411F46044664
:100F000003260168072A01F4006004DB08B116A576
:100F100005E016A503E008B115A500E015A521F030
:100F200010002060A069C01EA0610FB1401EA0612A
:100F30002046FFF705FA4FB1D4E901213846904722
:100F4000206A401C2062C01C206206E0206AFAE78A
:100F5000D4E9012115F8010B9047761EF8D22046FE
:100F6000FFF704FABDE8F0814E414E006E616E005D
:100F7000494E4600696E66002DE9F04781461646E7
:100F80008AB0354878440DC88DE80D003248784461
:100F9000801C03AC0DC884E80D0041F69B3008446A
:100FA000372190FBF1F290FBF1F5A5F1800501FBF3
:100FB00012041B3C02D56442012000E00020DFF84F
:100FC00098A080460027FA44AAF1BE0A0EE0E00786
:100FD0000AD03246684607EB470101230AEB81013C
:100FE00000F023FB8DE8070064107F1C002CEED17D
:100FF000194F7F44AE3F19E0E80715D007EB041006
:101000000DF1180A90E80E008AE80E00C068F04260
:1010100001D1981908903246012306A903A800F0CF
:1010200004FB03AB83E807006D10641C002DE3D1C3
:101030004FF0010332466946B8F1000F03A802D011
:1010400000F0DEFA01E000F0F0FAC9E90001C9F8A9
:1010500008200AB0BDE8F0879C2E000010B50446B9
:10106000AFF300802046BDE81040FFF720B9000034
:10107000004870474C0D00204FF0013C50F8042B05
:1010800051F8043B9A4221D1A2EB0C03934313EA9B
:10109000CC1317D150F8042B51F8043B9A4215D1C8
:1010A000A2EB0C03934313EACC130BD150F8042B9F
:1010B00051F8043B9A4209D1A2EB0C03934313EA83
:1010C000CC13DBD04FF00000704700BFD01A01BA3C
:1010D000B1FA81F101F0180122FA01F0CB40C1F11F
:1010E0002001DBB2C0B2C01A2CFA01F3D11A91432D
:1010F00011EAC311E6D1704770470000014918207A
:10110000ABBEFEE7260002005FEA400C08BF91F08C
:10111000000F4FEA8C234FEAC12243EA51514FEAB4
:101120001C5018BF00F5F0404FEA300018BF41F0E6
:1011300000415FEA6C5C00F02980BCF1FF3F08BF12
:1011400040F080407047130C06BF12044FF0100CA3
:101150004FF0000C130E04BF12020CF1080C130F19
:1011600004BF12010CF1040C930F04BF92000CF1A8
:10117000020CD30F04BF52000CF1010C11464FF0CA
:101180000002A0F11F00A0EB0C00704711F0004F0F
:1011900008BF704731F000413FF4D5AF0B0C06BFDC
:1011A00009044FF0100C4FF0000C0B0E04BF0902A5
:1011B0000CF1080C0B0F04BF09010CF1040C8B0F90
:1011C00004BF89000CF1020CCB0F04BF49000CF1E5
:1011D000010CCCF12003A0EB0C0022FA03F302FA7D
:1011E0000CF241EA030100F10100704720F07F4C4E
:1011F00080EA030023F07F47ACEB070303F57C5341
:1012000000F0004003F1FF032DE980494FEA154B40
:1012100009B44FEA144325EA0B4E24EA03480FF2BF
:10122000042606EB132749083E785FEA320203FBE7
:101230000667C7F5000707FB06F64FEA54374FEA83
:10124000D64606F1020607FB066CCCF1005C4FEABD
:101250001C472CEA074C07FB06F40CFB06F504EBD5
:1012600015464FEA961634BF00204FF000404FEA73
:10127000D13706FB07FC4FEA1C4C0CFB0BF7D21BCB
:1012800003FB0CF761EB07010CFB0EF7B0EB07401B
:1012900072EB17420CFB08F734BFA2EB0742B2EB2C
:1012A000074261EB17414FEA0C444FEA910706FBF6
:1012B00007FC4FEA1C4C0CFB0BF7B0EBC74072EB82
:1012C000573203FB0CF734BFA2EBC742B2EBC74265
:1012D00061EB57310CFB0EF7B0EBC70072EB5772A6
:1012E0000CFB08F734BFA2EBC702B2EBC70261EBFD
:1012F0005771039F4FEA816141EA921104EBCC04DC
:101300004FEAD1374FEA826206FB07FC42EA9012AD
:101310004FEA80604FEA1C4C0CFB0BF7D21B03FB1F
:101320000CF761EB07010CFB0EF7B0EB074072EB1B
:1013300017420CFB08F734BFA2EB0742B2EB07429F
:1013400061EB17414FEA8C554FEA910704EB9C245F
:1013500006FB07FC4FEA1C4C0CFB0BF7B0EBC7403D
:1013600072EB573203FB0CF734BFA2EBC742B2EB70
:10137000C74261EB57310CFB0EF7B0EBC70072EBC5
:1013800057720CFB08F734BFA2EBC702B2EBC702DF
:1013900061EB577115EB4C254FEA816141EA9211DF
:1013A0004FEA82624FEAD13742EA901206FB07FC0D
:1013B00044F100044FEA80604FEA1C4C0CFB0BF731
:1013C000D21B03FB0CF761EB07010CFB0EF7B0EB34
:1013D000074072EB17420CFB08F734BFA2EB074241
:1013E000B2EB074261EB174115EB1C154FEA813157
:1013F00041EA92414FEA823242EA90424FEA80301B
:101400004FEA0C7644F1000448EA03434EEA0B48E5
:101410004FF0000EB2EB080C71EB030724BF6246DD
:1014200039464EEB0E0E4FF0000B00185241494169
:101430004BEB0B0BB2EB080C71EB03077BF1000BD2
:1014400024BF624639464EEB0E0E4FF0000B0018DB
:10145000524149414BEB0B0BB2EB080C71EB03070C
:101460007BF1000B24BF624639464EEB0E0E51EA6B
:10147000020718BF46F0010616EB0E7655F1000282
:1014800054F1000103D5BDE88901BDE80088BDE83D
:101490008901BDE80048B619524141EB0101A3F1B1
:1014A0000103704780807F7E7D7C7B7A79787776B8
:1014B00076757473727171706F6E6E6D6C6C6B6A31
:1014C0006A696868676666656464636362616160CF
:1014D000605F5F5E5E5D5D5C5C5B5B5A5A5959584C
:1014E00058575756565555555454535352525251B6
:1014F000515050504F4F4F4E4E4D4D4D4C4C4C4B0C
:101500004B4B4A4A4A494949484848474747474652
:10151000464645454544444444434343434242428E
:1015200042414141002B9C4630D477002BD01CB562
:101530004FEA370703B44FF010004FF01001BAF133
:10154000000F06D0BCF1000FDCBF40F0080040F0F7
:1015500008014FF000000FBCBDE810400BF1010B7B
:10156000BBF1010F08BF5FEA170722BF12F10102AA
:1015700011F101014FF0004143F1000300F0004080
:1015800043EA00007047F9D35708D0E746EA064619
:1015900013F1400F4FEA16461FDD13F1200FDFBF96
:1015A00016430A46002120335B42BED0C3F1200718
:1015B00046EA064602FA07F74FEA164646EA0706E3
:1015C000C3F1200722FA03F201FA07F721FA03F127
:1015D0004FF0000342EA0702A7E746EA020646EA9E
:1015E00006464FEA164646EA0106BCBF46EA0646EC
:1015F000360C4FF000034FF000024FF0000194E76B
:101600002DE9804C9A46934670B491E8380007C89B
:1016100031EA400C48BF34EA430C03D5FFF7E6FD3E
:10162000FFF780FFF0BCBDE8008C2DE9804C9A46A6
:10163000934670B491E8380007C810F0804F08BF97
:1016400013F0804F03D100F005F8FFF76BFFF0BCFB
:10165000BDE8008C20F07F4780EA030023F07F4C38
:1016600007EB0C03A3F57C5300F00040A3F1FE034D
:1016700092F0000F00F0B38095F0000F00F077803B
:101680002DE901494FEA11404FEA144621EA00488A
:1016900000FB06FC24EA064708FB06F607FB08F8F1
:1016A00000FB07F718EB06484CEB164C4FEA124BC1
:1016B00018EB07484FEA15464CEB174022EA0B4E51
:1016C0000BFB06FC25EA06470EFB06F607FB0EFEA3
:1016D0000BFB07F71EEB064E4CEB164C4FF00006CB
:1016E0001EEB074E4CEB174B18EB0B0840F10000BC
:1016F00018EB0E0B58EB000840F100008F1A4FF06A
:1017000000013CBFC943661B14BFB5EB040C0021AC
:101710003CBFC943F61B4FEA17444EEA8E0E27EA38
:1017200004454FEA1C4704FB07622CEA074C05FB03
:1017300007F70CFB05F604FB0CFC16EB074642EB27
:10174000174216EB0C4642EB1C421BEB060658EB0D
:101750000202414146EA9E0601D5BDE80189B6195B
:10176000524141EB0101A3F10103BDE801894FEAB8
:1017700014454FEA114724EA054621EA074C05FBC8
:1017800007F406FB07F70CFB06F105FB0CFC11EB5D
:10179000074144EB17444FEA124711EB0C4144EB6D
:1017A0001C4422EA074C05FB07F206FB07F70CFB7B
:1017B00006F605FB0CFC16EB074642EB174216EB50
:1017C0000C4642EB1C456A1854F1000148BF7047B3
:1017D000B619524141EB0101A3F10103704795F0A5
:1017E000000F37D04FEA11424FEA144721EA024670
:1017F00024EA074C02FB07F106FB07F70CFB06F493
:1018000002FB0CFC14EB074441EB17414FEA154770
:1018100014EB0C4441EB1C4125EA074C02FB07F595
:1018200006FB07F70CFB06F602FB0CFC16EB074663
:1018300045EB174516EB0C4645EB1C42121951F1CE
:10184000000148BF7047B619524141EB0101A3F1B5
:10185000010370474FEA14454FEA114724EA054651
:1018600021EA074C05FB07F106FB07F70CFB06F224
:101870004FF0000605FB0CFC12EB074241EB174151
:1018800012EB0C4251EB1C4148BF7047921841EBE0
:101890000101A3F10103704710B5034800F05EFB9E
:1018A000024800F05BFB10BD6C02002074020020B7
:1018B00010B5024800F052FB10BD00007C02002071
:1018C00010B5024801F0B6F910BD00006C0300200D
:1018D00010B5024801F0AEF910BD000078030020F9
:1018E00010B5024801F0A6F910BD000084030020E5
:1018F00010B5024801F09EF910BD000090030020D1
:1019000010B5024801F096F910BD00009C030020BC
:1019100010B5024801F08EF910BD0000A8030020A8
:1019200010B5024801F086F910BD0000B403002094
:1019300010B5024801F07EF910BD0000C003002080
:1019400010B5024801F076F910BD0000CC0300206C
:1019500010B5024801F06EF910BD0000D803002058
:1019600010B5034801F066F9024801F063F910BDB3
:10197000E4030020F003002010B50548006810B112
:1019800003490868804701200249086010BD000033
:101990002C0300201404014010B50A240DE008486F
:1019A00050F8240018B1064951F82400804701205E
:1019B000A04004490860601CC4B2102CEFDB10BDCD
:1019C0002C0300201404014010B50548406810B1F4
:1019D00003494868804702200249086010BD0000A2
:1019E0002C0300201404014010B50548806810B194
:1019F00003498868804704200249086010BD000040
:101A00002C0300201404014010B50548C06810B133
:101A10000349C868804708200249086010BD0000DB
:101A20002C0300201404014010B50548006910B1D2
:101A300003490869804710200249086010BD000072
:101A40002C0300201404014010B505240DE00848C3
:101A500050F8240018B1064951F8240080470120AD
:101A6000A04004490860601CC4B20A2CEFDB10BD22
:101A70002C030020140401402DE9F041074688465C
:101A800014461D46284600F033F8C5F1040007FA55
:101A900000F60F20284100EA0800064306F00F0672
:101AA000E21704EBD2625211920002F1E022D2F866
:101AB00000212146E31704EBD3635B11A4EB431C25
:101AC000012303FA0CF31A432046E31704EBD36314
:101AD0005B119B0003F1E023C3F800210348005D84
:101AE00040EA061001490855BDE8F08100E400E035
:101AF0000146072323EA01021202054B18684FF63C
:101B0000FF031840034B18431043014B1860704704
:101B10000CED00E00000FA05024A0A400243024BC5
:101B20001A60704780FFFF1F08ED00E030B50446E3
:101B3000002500F0E1F81F48006840F480301D499E
:101B4000086000BF1B480068400C0028FAD04FF422
:101B5000806018494860A01EC4B20846406840EA48
:101B6000844048600846406840F48030486012482D
:101B7000006840F03200104908600E48006840F0EC
:101B800080700C49086000BF0A480068400E0028B9
:101B9000FAD00848406840F002000649486005E075
:101BA00004484068C0F3870505F00305022DF7D10E
:101BB00030BD0000001002400020024002480068D2
:101BC000401C0149086070476402002010B50248BB
:101BD00000F078FE10BD0000FC03002010B50248A4
:101BE00000F070FE10BD0000FC03002010B502489C
:101BF00000F068FE10BD0000FC03002010B5024894
:101C000000F060FE10BD00001804002010B502486E
:101C100000F058FE10BD00003404002010B502484A
:101C200000F050FE10BD00005004002010B5024826
:101C300000F048FE10BD00006C04002010B5024802
:101C400000F040FE10BD00008804002010B50248DE
:101C500000F038FE10BD0000A404002010B50248BA
:101C600000F030FE10BD0000C004002010B5024896
:101C700000F028FE10BD0000C004002010B502488E
:101C800000F020FE10BD0000C004002000B5024896
:101C900000F068FA00BD0000EC09002000B5024821
:101CA00000F060FA00BD00009C0B002000B5024867
:101CB00000F058FA00BD0000DC04002000B5024826
:101CC00000F050FA00BD00008C06002000B502486C
:101CD00000F048FA00BD00003C08002004480078ED
:101CE000044908600020034908310860704700007B
:101CF0006A020020002C004000B500201549086150
:101D0000C8601420486100208861C86108460068E6
:101D100040F001000860084640680F4908400D493E
:101D20004860084600680D4908400A4908600846AE
:101D3000006820F4802008600846406820F4FE0017
:101D400048600020886000214FF00060FFF7E4FE4B
:101D500000BD0000001002400000FFF8FFFFF6FE8B
:101D60000448B0F89A0140F400400249A1F89A01F1
:101D700070470000DC0400200448B0F89A0140F4E9
:101D800000400249A1F89A01704700008C0600202B
:101D90000448B0F89A0140F400400249A1F89A01C1
:101DA000704700003C0800200120024981F898019A
:101DB00070470000DC0400200120024981F89801EE
:101DC000704700008C0600200120024981F898012C
:101DD000704700003C080020044A116800BF034A15
:101DE0001268521A8242FAD370470000640200203F
:101DF00030B503468D000F20A840C44303EA040019
:101E00008D0002FA05F5284330BD00007FB5164667
:101E10001D46009C184880694FF48031611A8A0A77
:101E2000012191400843144988619DF80400082865
:101E300007DA9DF8041020683246FFF7D9FF2060CA
:101E400008E09DF80420083AD1B260683246FFF7F6
:101E5000CFFF6060012D07D1E0689DF804200121CB
:101E600091400843E06006E0E0689DF8042001210D
:101E700091408843E0607FBD0010024010B501230F
:101E800008220D4803C8FFF7C1FF012308220A48B2
:101E9000C1688068FFF7BAFF01230822064841693C
:101EA0000069FFF7B3FF002308220348C169806976
:101EB000FFF7ACFF10BD00009802002010B5012311
:101EC0000322054803C8FFF7A1FF012303220348AB
:101ED00003C8FFF79BFF10BD88020020900200207E
:101EE0002DE9F04105460C46174805701748047067
:101EF0002046FFF71BFE0020FFF7FAFD1449B1F161
:101F0000807F00D31DE021F07F40401E4FF0E02293
:101F1000506150170F22002807DA13071F0E0D4BD0
:101F200000F00F06361F9F5503E013071E0E0A4BE5
:101F30001E5400BF00204FF0E02290610720106186
:101F400000BFBDE8F08100006802002069020020A7
:101F50004019010018ED00E000E400E010B504466F
:101F60002068006800F0020048B1606808B160684D
:101F700080472068006820F002002168086010BDDA
:101F80007FB504460D46089E02230022DDE90201CA
:101F9000FFF73CFF092D12DC2068006905EB4502C4
:101FA000072191408843216808612068006905EB9A
:101FB000450106FA01F108432168086114E0A5F122
:101FC0000A00C5B22068C06805EB450207219140B0
:101FD00088432168C8602068C06805EB450106FA9F
:101FE00001F108432168C8607FBD000030B50B4691
:101FF000364D0468AC4201D1092106E0344D046835
:10200000AC4201D10A2100E00F21324CA469012524
:102010008D402C432F4DAC612C46E56801248C404B
:1020200025432C4CE560E56801248C40A543294CF0
:10203000E560646824F44044264D6C602C46646876
:1020400044F400446C600468646824F470240568F7
:102050006C600468646824F4807405686C605C00DB
:1020600004EB022404F5F0140568AD682C43056800
:10207000AC600468A46824F400640568AC6004687B
:10208000E46A24F470040568EC620468A46844F00F
:1020900001040568AC600468A46844F0080405689D
:1020A000AC6000BF0468A46804F00804002CF9D1F7
:1020B0000468A46844F004040568AC6000BF0468C8
:1020C000A46804F00404002CF9D130BD00240140C0
:1020D00000280140001002402DE9FC5F04468946BB
:1020E00015462068406B20F007002168486320688F
:1020F000406B40EA0900216848630026002010E098
:102100002168896841F480012268916000BF2168DC
:10211000096801F002010029F9D02168C96C0E4458
:10212000401CA842ECDBB6FBF5F6304601F0ACFCF7
:1021300083464FF08B4101F091FB824601F000FB9A
:102140004FF06632044BCDE9000101F0FBF9074680
:1021500001F03EF8BDE8FC9F66660A40016000227F
:10216000426070470146D1F8A021128802F0200297
:10217000002A74D0D1F8A0219288D0B291F89C2185
:10218000052A6BD2DFE802F00304364D690065E0F2
:10219000B1F89A2102F400425ABBB1F89A2102F434
:1021A000804262B10A2803D00022A1F89A2120E0DF
:1021B000B1F89A2142F40042A1F89A2119E00D28C1
:1021C00006D1B1F89A2142F48042A1F89A2110E098
:1021D000B1F89A21C2F30D028854B1F89A21521C29
:1021E000A1F89A21B1F89A21C72A02DD0022A1F8AC
:1021F0009A2133E0B1F89A2102F4004282B9B1F891
:102200009A21C2F30D028854B1F89A21521CA1F808
:102210009A21B1F89A21C72A02DD0022A1F89A2159
:102220001CE0B1F8A621B1F8A4319A4202DBB1F862
:10223000A82182B9B1F8A6218854B1F8A621521C70
:1022400092B2A1F8A621C82A05DB0022A1F8A62196
:102250000122A1F8A82101E001E000BF3DE0D1F892
:10226000A021128802F040023AB391F8AA31B1F8E5
:10227000AC21521E93420DDA91F8AA21521C81F82A
:10228000AA2191F8AA3101F1C802D25CD1F8A0319B
:102290009A8022E0012201F5CC710A708A68928945
:1022A00022F040028B689A818A68128822F04002EC
:1022B0008B68A1F5CC711A800FE0D1F8A0211288AB
:1022C00002F010024AB1B1F89A2142F40042A1F89A
:1022D0009A21D1F8A0219288D0B270472DE9F04F11
:1022E0008FB004460D4616461F46DDF8608084F820
:1022F0009C6184F89D7184F89E81F6480078F649C7
:1023000009784843C0B20D90F449D4F8A00188423E
:1023100010D1F348C06840F48040F149C8600846D5
:10232000C06820F48040C8600846806940F480405E
:10233000886132E00D9800EBD071C1F347010D9137
:10234000E74800694FF48842D4F8A011891A112295
:1023500002EB9122012191400843E14908610846BE
:1023600000694FF48842D4F8A011891A112202EBB7
:102370009122012191408843D94908610846C069EA
:102380004FF48842D4F8A011891A112202EB91224D
:10239000012191400843D249C8611999080101F00F
:1023A00073FB8346CF4A0D9901FB02F001F054FB09
:1023B0005946089001F052FA8146484601F02CFB3C
:1023C0001FFA80FA504601F05FFB4946079001F082
:1023D0003BFC83464FF0834101F06AFB089008986C
:1023E00001F0FEFA8346089801F0FAFA019001F034
:1023F00033FB0290089901F027FC039001F0A0F94B
:102400000022B94BCDE9040100F014FFCDE906012B
:1024100001F068F8584480B20E900E9800EB0A1054
:1024200004F5D074216808812068808942F20C018B
:10243000084321688881206881891A9841EA4020F0
:102440002168A4F5D0748881022E07D1D4F8A001A8
:10245000808940F01000D4F8A0118881B8F1020FF3
:1024600056D1D4F8A001808A40F08000D4F8A011A1
:1024700088820120002104910591CDE906100846CB
:1024800001210022C823CDE90032CDE90210D4F8A1
:10249000A021111D012304F1C802D4F8940100F019
:1024A000A9FC9249D4F8A001084498B1B0F5806F16
:1024B0001ED0B0F5744F29D18D490A88D4F8940103
:1024C000ADF8202089788DF822108A49089A00F00A
:1024D000FFFB1CE086490A88D4F89401ADF820205F
:1024E00089788DF822108449089A00F0F1FB0EE0FB
:1024F0007F490A88D4F89401ADF8202089788DF8B6
:1025000022107E49089A00F0E3FB00E000BF00BF04
:10251000012F08D1D4F8A001808940F02000D4F820
:10252000A011888157E0022F55D1D4F8A001808AEC
:1025300040F04000D4F8A0118882012000210491CD
:102540000591CDE90610084601210022C823CDE9F6
:102550000032CDE90210D4F8A021111D002322463B
:10256000D4F8900100F046FC6049D4F8A00108447A
:1025700098B1B0F5806F1ED0B0F5744F29D15C4989
:102580000A88D4F89001ADF8202089788DF82210BF
:102590005B49089A00F09CFB1CE055490A88D4F876
:1025A0009001ADF8202089788DF822105549089ABD
:1025B00000F08EFB0EE04E490A88D4F89001ADF889
:1025C000202089788DF822104F49089A00F080FB6E
:1025D00000E000BF00BF4549D4F8A0010844C8B1DD
:1025E000B0F5806F2AD0B0F5744F42D1474800EB68
:1025F00005130FCBCDE90B23CDE909014448406811
:1026000020F00400424948600846406840EA8500DE
:1026100048602FE03F4800EB05130FCBCDE90B23BB
:10262000CDE909013A48406820F00800384948607F
:102630000846406840EAC50048601BE0364800EBA9
:102640000513D3E90012D3E90203CDE90B03CDE969
:102650000912022D01D1681CC5B22D48406820F036
:1026600030002B4948600846406840EA0510486041
:1026700000E000BF00BF02230822DDE90901FFF7E7
:10268000C5FB02230B22DDE90B01FFF7BFFB0EB1F7
:10269000012F04D0B8F1010F01D0022E5ED11F4AE4
:1026A000D4F8A001811A904249D006DC0F490844B1
:1026B000B0B3B0F5806F50D13AE0B1F5806F45D03E
:1026C000B1F56C4F49D10223252203210846FFF7BB
:1026D000D3F942E06802002069020020003801407E
:1026E0000010024040420F000000E03F00BCFFBF6E
:1026F0005C020020A91D0008B91D0008C91D0008C2
:10270000611D0008791D0008911D0008B802002015
:1027100000000140D8020020F8020020004C0040D8
:10272000FFE70223262203210846FFF7A5F914E05C
:102730000223272203210846FFF79EF90DE002231A
:10274000342203210846FFF797F906E002233522D9
:1027500003210846FFF790F900BF00BF0FB0BDE8A6
:10276000F08F00000FB410B5044604A83849086083
:102770000846026804F1C8000399FDF7B9FDA4F802
:10278000AC0100203249086084F8AA0184F898015D
:1027900094F89E0158BB14E000BFD4F8A001008853
:1027A00000F040000028F8D094F8AA1104F1C80005
:1027B000405CD4F8A011888094F8AA01401C84F8E9
:1027C000AA0194F8AA01B4F8AC118842E4DB012014
:1027D00084F8980194F89C01022836D1D4F8A0011D
:1027E000808940F01000D4F8A01188812DE094F881
:1027F0009E01012816D1002004F5C674A0776069F7
:10280000008820F04000616908806069808940F09C
:1028100040006169888114F8C40C6169A4F5C6742C
:10282000888012E094F89E0102280ED1B4F8AC31F1
:10283000D4F8A021111D04F1C802D4F8940100F0CD
:1028400021FBD4F8940100F024FB10BC5DF814FBCC
:1028500028030020C0F8A011012280F8982100224E
:10286000A0F89A210E4A914206D10E4AC0F8902152
:102870000D4AC0F8942112E00C4A914206D10C4A4C
:10288000C0F890210B4AC0F8942108E00A4A91420E
:1028900005D10A4AC0F89021094AC0F8942170472E
:1028A00000440040A8030020B4030020004800407A
:1028B0008403002078030020003801409C0300209E
:1028C0009003002070B50446A069008A00F0010062
:1028D00050B1206808B120688047A069008A20F0C4
:1028E0000100A16908822EE0A069008A00F0400082
:1028F00050B1606808B160688047A069008A20F024
:102900004000A16908821EE001251AE0A069008A42
:102910000121A940084090B1681E04F1080151F856
:10292000200060B1691E04F1080252F821008047BE
:10293000A069018A0120A8408143A0690182681C26
:10294000C5B2042DE2DD70BD30B50A46084CB4FBBB
:10295000F2F1012301E049085B00B1F5803FFAD8AC
:102960004C1E8569AC855C1E85692C8530BD0000D8
:1029700000A24A04002283699A808269928842EA0E
:10298000011283699A80704710B5144B82699A428C
:1029900006D1134A926942F40062114B9A6116E023
:1029A000104B82699A4206D10D4A926942F4005254
:1029B0000B4B9A610BE08369A3F180439A0A084BA1
:1029C000DB69012494402343054CE36100BF826925
:1029D000128842EAC10283691A8010BD002C0140AE
:1029E00000100240003401408169098841F0010172
:1029F00082691180704710B50A468261002101602A
:102A0000416000BF06E0002400F1080343F82140C4
:102A10004B1CD9B20429F6DB10BD000010B50A4AE0
:102A2000126803781B019B1C01249C402243064B27
:102A30001A601A46126803781B01DB1C01FA03F3C3
:102A40001A43014B1A6010BD007400402DE9F0419B
:102A500088B006460F46154698460E9C3E480068CC
:102A6000317809010C3101228A4010433A4908604B
:102A70003078B8B1022001210022CDE904120023F0
:102A8000CDE90610A8B2CDE901310B463A460391D3
:102A9000009031491431314800F0ACF92F4800F072
:102AA000F8F916E0022001210022CDE904120023EA
:102AB000CDE90610A8B2CDE901310B463A460391A3
:102AC000009025490831264800F094F9244800F088
:102AD000E0F900212046FFF757FF08FB05F12046EB
:102AE000FFF732FF02212046FFF744FF1D488442D2
:102AF00004D104213046FFF791FF26E01A488442B2
:102B000004D105213046FFF789FF1EE017488442B3
:102B100004D103213046FFF781FF16E014488442B8
:102B200004D100213046FFF779FF0EE011488442BE
:102B300004D102213046FFF771FF06E00E488442BF
:102B400003D101213046FFF769FF2046FFF74CFF14
:102B500008B0BDE8F081000000740040E4030020EC
:102B6000D803002018040020500400206C0400202A
:102B700088040020A4040020C00400201CB50446E2
:102B8000207850B9274903C9CDE90001022300226A
:102B9000DDE90001FFF73AF90BE02249083103C9EA
:102BA000CDE9000102230022DDE90001FFF72EF943
:102BB00000BF1D48C06940F000501B49C8611B4858
:102BC000006821780901491C01228A4010431749F5
:102BD00008600846006821780901891D00228A40A2
:102BE000104312490860084600682178090108313D
:102BF00000228A4010430D490860207820B9002047
:102C00000A490831086003E00020084914310860CF
:102C1000064800682178090101228A4010430349CF
:102C200008601CBD543D00080010024000740040C4
:102C30000170704770B504462349A068884220D2CD
:102C40002249A068401A1421B0FBF1F51F4808384A
:102C50000068A900491C01228A40104080B11B482D
:102C600008384068A900491C01228A4010431749CE
:102C7000083948600120A071206808B120688047A9
:102C800020E011490831A068401A1421B0FBF1F589
:102C90000D480068A900491C01228A40104080B1FB
:102CA0000948001D0068A900491C01228A40104300
:102CB0000549091D08600120A071206808B120683D
:102CC000804700BF70BD00000004024008000240C1
:102CD00070B504460D462560A068006840F002000B
:102CE000A1680860404AA068811A90424FD012DC67
:102CF0003E4AA0EB0201904234D007DC3C49084434
:102D0000D8B1142820D028286BD124E0142930D041
:102D1000282966D134E0B1F56C7F4DD006DCB1F5E1
:102D2000627F3BD0B1F5677F5BD13EE0B1F5717F4B
:102D300049D0B1F5767F54D14CE002230B22032118
:102D40000846FEF799FE4CE002230C2203210846B8
:102D5000FEF792FE45E002230D2203210846FEF70E
:102D60008BFE3EE002230E2203210846FEF784FE7E
:102D700037E002230F2203210846FEF77DFE30E0F4
:102D80000223102203210846FEF776FE29E00223E3
:102D9000112203210846FEF76FFE22E002233822AB
:102DA00003210846FEF768FE1BE0022339220321B7
:102DB0000846FEF761FE14E002233A22032108468A
:102DC000FEF75AFE0DE002233B2203210846FEF7E0
:102DD00053FE06E002233B2203210846FEF74CFE89
:102DE00000BF00BF70BD00008000024044000240F0
:102DF000F8FFFDBF2DE9F05F04460D4616461F465D
:102E0000DDE90CABDDE90A891C49A068884206D2DD
:102E10001B48406940F001001949486105E0184825
:102E2000406940F0020016494861002020600520FA
:102E3000FEF7D2FFA0688560A068C660A4F8048091
:102E40000020A16808603901109801EB401000EBE8
:102E5000891000EBCA1000EB0B210E9801EB8021CA
:102E6000119801EB00310F9801EB8030A1680968DF
:102E70000843A1680860BDE8F09F0000000402401C
:102E80000010024010B58468A1608468E26083800D
:102E900010BD002181718168096821F001018268FB
:102EA00011608188826851608168096841F0010180
:102EB0008268116070478160012282717047490009
:102EC00050EAC12018BF04204A0D18BF40F001008D
:102ED00040F2FF72B2EB515F08BF40F002000128E0
:102EE00008BF05207047000000B506490648FFF7F7
:102EF00035F906490648FFF731F906490648FFF754
:102F00002DF900BD002401406C0200200028014082
:102F100074020020003C01407C02002000B500212A
:102F20000348FFF785FE01210248FFF781FE00BD3F
:102F3000840200208502002000B51D491D48FFF7CE
:102F4000BAFF1B4914311C48FFF7B5FF1849283157
:102F50001A48FFF7B0FF16493C311948FFF7ABFF9D
:102F6000134950311748FFF7A6FF1149643116483D
:102F7000FFF7A1FF0E4978311448FFF79CFF144971
:102F80001448FFF798FF124914311348FFF793FFD5
:102F90000F4928311148FFF78EFF0D493C31104889
:102FA000FFF789FF0A4950310E48FFF784FF00BD43
:102FB000080002406C0300207803002084030020F6
:102FC000900300209C030020A8030020B4030020ED
:102FD00008040240C0030020CC030020D8030020D6
:102FE000E4030020F003002000B511491148FFF769
:102FF00002FD4FF080411048FFF7FDFC0F491048DB
:10300000FFF7F9FC0F491048FFF7F5FC0F4910488E
:10301000FFF7F1FC0F491048FFF7EDFC0F4910488E
:10302000FFF7E9FC0F491048FFF7E5FC00BD000081
:10303000002C0140FC030020180400200004004084
:10304000340400200008004050040020000C004020
:103050006C04002000100040880400200014004090
:10306000A404002000340140C004002000B50A4937
:103070000A48FFF7EFFB0A490A48FFF7EBFB0A494A
:103080000A48FFF7E7FB0A490A48FFF7E3FB0A494A
:103090000A48FFF7DFFB00BD00380140DC040020D8
:1030A000004400408C060020004800403C080020FE
:1030B000004C0040EC090020005000409C0B002018
:1030C00030380A2801D201207047002070470000E4
:1030D00086B009210820FEF703FF00204FF4E131FC
:1030E000CDE9000101231A46014602901A48FFF774
:1030F000F5F8FEF7E3FEFEF7C1FE00221146174881
:10310000FEF774FF164903C9CDE9040107200090BA
:1031100001211248DDE90423FEF732FF1148FFF7D1
:103120002DFD11480A234FF48072104900900D487C
:10313000FFF78CFC0EE00A2201210848FEF7CCFFC5
:10314000064600F0FDFA044622460B4608A1024856
:10315000FFF708FBEFE70000DC0400206C02002012
:103160004C3D000884020020C00400205A000020CA
:10317000252E32660D0A000010B500290AD0087805
:10318000002807D005487844FDF776FF002801D0D5
:10319000002010BD0248784410BD0000D60C00008D
:1031A000CE0C000010B500290AD00878002807D0FE
:1031B00005487844FDF760FF002801D0002010BDCD
:1031C0000248784410BD0000C60C0000BE0C000090
:1031D00021F00042A2F16052B2F5801F01F00043DD
:1031E00028BFD2F17F6C0BD95FEA001C43EAC20210
:1031F00042EB507018BF704728BF20F001007047A5
:10320000B2F5801FBCBF184670474FEA410C1CF551
:10321000001F02D2084600F012BD70B500F03CFA63
:1032200000000089FFF7F6BF4FF00040A0F58000D6
:10323000704700002DE9C04130B4DFF8A0C23CEA7D
:10324000111418BF3CEA131400F0EC8081EA030566
:103250001CEA111444EAD57418BF1CEA131500F0D7
:10326000C780A4EB05044FF0004545EAC12145EABB
:10327000C32341EA505143EA525304F17F74994207
:1032800004F500344FEAC0204FEAC22208BF904242
:1032900000F09C804FEA13650FF24016765D4FEA0E
:1032A000134506FB05F7C7F1807706FB07F74FEAE2
:1032B000D737A7FB03687642C8F58038A7FB06CE50
:1032C00038BFA8F1010807FB08E64FF0000EA6FB87
:1032D000028CE6FB03CEDCF1000CCEF1004E38BFD1
:1032E000AEF1010EA6FB0C584FF000074FF00005A1
:1032F000E6FB0E87A1FB08C6A0FB07CE16EB0E0669
:1033000045F10005E1FB076515F1E04E7EBFA4F530
:1033100080345FEA46066D4116F1800745F10005ED
:103320004FEA17274FEA066647EA0567A6F1DE4629
:10333000B6F1805F4FEA15251FD9384624F0010CFD
:1033400005EBC471BCF1FE6F01EB0C1102D8F0BCAF
:10335000BDE8008124425CBF01F5801E9EEAC47F67
:1033600002D4F0BCBDE80081244238D4F0BCA1F105
:10337000C041BDE8004100F0DDB94FEAD22242EA87
:1033800043524FEAD323A7FB02864FEAD02040EAFC
:10339000415007FB03661EEA0E0F4FEAD12105FBE1
:1033A000026658BFA6EB0056B6EB00564FEA520E27
:1033B0004EEAC37E18EB0E0E56EB530EBDD518EB3E
:1033C00002085E417F1C55F10005B6E74FF48015F9
:1033D0004FF000074FF000064FF00008ADE7F0BCDB
:1033E0004FF0000001F1C04101F00041BDE8008153
:1033F00011EA0C1F0CEA131500D00CE013EA0C1FA5
:1034000000F025804FF00000F0BC81EA030101F0DC
:103410000041BDE80081F0BCBDE8004181EA030144
:1034200000F088B9F0BCBDE8004170B500F034F997
:10343000097EFC3E00F007B881EA03014FF000006E
:1034400001F00041704781EA030100F073B9F0BC5C
:10345000BDE800414FF0000021497047FFFDFBF936
:10346000F7F5F4F2F0EEEDEBE9E8E6E4E3E1E0DEB7
:10347000DDDBDAD8D7D5D4D3D1D0CFCDCCCBCAC829
:10348000C7C6C5C4C2C1C0BFBEBDBCBBBAB9B8B750
:10349000B6B5B4B3B2B1B0AFAEADACABAAA9A8A843
:1034A000A7A6A5A4A3A3A2A1A09F9F9E9D9C9C9B11
:1034B0009A999998979796959594939392919190BC
:1034C0008F8F8E8E8D8C8C8B8B8A8989888887874D
:1034D0008685858484838382828181800000FF07C2
:1034E0000000F87F4FEA41034FEA5353A3F580638E
:1034F000D3F11E03C8BFD3F1210C0CDD4FF0004205
:1035000042EAC12242EA505232FA03FC8CEAE17CE0
:10351000ACEBE1707047102BC4BF0020704703F57F
:10352000787CBCF1FF3F04D06FF0004282EA2100BA
:10353000704770B500F0B0F84992248000207047C1
:10354000F2E70000DFF848C170B51CEA111E1EBF8B
:103550001CEA13159EEA0C0F95EA0C0F00F06F8021
:1035600081EA030423EA4C134EEAD47E21EA4C118B
:1035700041F4801143F48013AE44A1FB024CA0FB44
:103580000365AEF17F7E361955EB0C05A1FB034CAC
:103590004CF10003A0FB021C16EB0C06654153F135
:1035A0000003094218BF46F0010613F4007F0BD157
:1035B0004FEA03314FEA0530340341EA155140EA3E
:1035C00016506FF003020AE04FEAC3214FEAC5200C
:1035D000F40241EA555140EA56506FF0020202EB04
:1035E0002E4201EB025585EACE710AD05FEA440C07
:1035F00018BF24F0004450F1000041F1000120EA1E
:10360000D47040F2FE7C624500D270BDA84214BF67
:103610004FF080444FF04044002E08BF0024BEF11C
:10362000806FA8BFA1F1C041BDE8704080F28280E8
:103630004FF0000001F1C04101F0004170479EEAE7
:103640000C0F0CEA131518BF95EA0C0F06D04FF0BB
:10365000000081EA030E0EF0004170BD00F01CF87E
:103660008900013E00F007B800F009B84FEA430CAA
:103670005FEA5C5C08D081EA030100F05BB84FEAC6
:10368000410C5FEA5C5CF6D14FF0000001497047E5
:103690000000FF070000F87F0EF1020E2EF0030E6F
:1036A0005EF8046B364205D4012A43EB030515F599
:1036B000001F12D8012841EB010C1CF5001F0CD88B
:1036C0000ED14FEAD17C15F5001F0CEB4C0C0CF120
:1036D000020C08BF4CEBD37C04E04FF0080C01E077
:1036E0004FEAD37C0CEB4C0526FA05F606F00706EC
:1036F000B6F1040C06D20EEB860CBDE870404CF01F
:10370000010C6047DFE80CF0090B02024FF00041AA
:103710004FF00000A1F5002170BD194610460128A8
:1037200051EB010418BFD4F5001484BF002001F050
:10373000004170BD0808A0F500114FEA3101704743
:1037400043004FEAD30C4FEA3C0C43401FBF4007F5
:103750000CF1605113F0FE4F70471CF0006F03D165
:1037600000200CF0004170470CF0004343EA507019
:1037700010B540EACC0000F01CFA00BF0000009237
:103780004FEA0001FFF7D6BF4FF000414FF00000B5
:10379000A1F500217047000090EA010F48BF81F0B9
:1037A000004100F16282421A3CBF801A89184FEA38
:1037B000D0524FF07F4C1CEA410FA2EBD15318BFFF
:1037C0009CEA026F00F03B804FF0004C4CEA002076
:1037D0004CEA012121FA03FC10EB0C0C1ED202F181
:1037E000FF325FEA1C2040EBC25038BF70471CF02C
:1037F0007F0F4FEA400C18BFBCF17F4F38BF7047B6
:10380000C3F12003994008BF20F00100BCF17F4FB5
:1038100038BF7047A0F1C04000F011BA4FEA3C0039
:10382000000A40EBC25028BF1CF0FF0F4FEA400CCB
:10383000E6D018BFBCF17F4F38BF7047EAE79CEA7B
:10384000026F05D010EA5C0F08BF00F0004070471F
:1038500010B500F0AEF900BF64FBBE3E4FF47F0C24
:103860001CEAD0121EBF1CEAD11392EA0C0F93EA95
:103870000C0F00F0858090EA010F48BF42F480727F
:1038800040F4000C41F400002CF07F4120F07F4018
:1038900000B58142A2EB03020FF2081CACEB504EC4
:1038A000C0F100009EF800E04FEA4E0E00FB0EFC57
:1038B00038BF49004FEA2C1C02F5FA020CFB0EF34C
:1038C0004FEACE1E4FEA112C4FEAC1210EEB635E88
:1038D00042EB22420EFB0CFC4FEA1C5300FB03118F
:1038E0004FEA112C4FEA01310EFB0CFC4FEADC4C85
:1038F00000FB0C11C14228BF09184CEB03335DF8E3
:1039000004EB10EB410143EBC250B2F57C0F38BF22
:10391000704729D512F0F00F1CBF00F1C04000F035
:1039200000407047008182838485868788898B8CDC
:103930008D8E8F919293959697999A9C9D9FA0A218
:10394000A3A5A7A8AAACAEB0B2B3B5B7B9BCBEC068
:10395000C2C5C7C9CCCED1D4D7D9DCDFE2E6E9EC09
:10396000F0F3F7FAFE0000004FEA400C0CF1807C07
:10397000BCF17E4F28BF7047B0F1C04000F05FB986
:1039800090EA010F0CEAD11348BF42F480726245FD
:1039900038BF634507D213F47F0F16D080EA0100C9
:1039A00000F00040704710B500F003F9097EFC3EBE
:1039B00000F005B880EA010000F00040704780EA9E
:1039C000010000F0004000F03AB912F47F0F04BF8C
:1039D0000248704780EA010000F031B90000C07F62
:1039E00041000B0ED3F19E0208D950F400034FEAB8
:1039F000032323FA02F048BF4042704710B500F09D
:103A0000D8F800BF49922480002070476FF0004230
:103A100082EA200070470000C10DD1F19E0206DB52
:103A20004FEA002343F0004323FA02F070470042BC
:103A300007D54FEA4001B1F1FE4F02D24FF000002E
:103A4000704710B500F0B5F8499224800020704707
:103A50006FEA20007047000010F0004148BF40426C
:103A6000B0FA80F310FA03F2C3F19D030BD051EAD0
:103A7000C35101EB1220530638BF704700F101001B
:103A800008BF20F001007047B0FA80F310FA03F28B
:103A9000C3F19D030AD0D90501EB1220530638BFAC
:103AA000704700F1010008BF20F0010070470000DE
:103AB0004FF47F0C1CEAD0121EBF1CEAD11392EA0D
:103AC0000C0F93EA0C0F00F0478090EA010F48BFFB
:103AD00042F480724FF0004C4CEA00204CEA012185
:103AE00002EB0302A0FB0113A2F50002002918BF9C
:103AF00043F001035B0028BF4FEA330342EB22424D
:103B00005FEA132C4CEBC2502EBFBCEB436FB2F5F7
:103B10007C0F70474FEA036CBCF1004F08BF20F0E8
:103B20000100B2F57C0F38BF70470BD582F0FF0261
:103B300012F5803FC8BF704700F1C040D8BF00F009
:103B40000040704700F5000C5FEA4C0C48BF70471E
:103B5000B0F1C04000F073B890EA010F0CEAD11345
:103B600048BF42F48072624538BF634504D280EAA0
:103B7000010000F00040704710B500F01AF800BFD7
:103B80008900013E00F007B800F009B85FEA410C77
:103B90005FEA1C6C08D080EA010000F050B85FEAD0
:103BA000400C5FEA1C6CF6D14FF00040A0F580009D
:103BB00070470EF1020E2EF0030E5EF8044B244205
:103BC00004D44FEA4102B2F17F4F11D84FEA4003CB
:103BD000B3F17F4F0CD80ED14FEAD07CB2F17F4FBA
:103BE0000CEB4C0C0CF1020C08BF4CEBD17C04E04C
:103BF0004FF0080C01E04FEAD17C0CEB4C0324FAA7
:103C000003F404F00704B4F1040C06D20EEB840CA8
:103C1000BDE810404CF0010C6047DFE80CF00708ED
:103C200002024FF00040A0F5800010BD084642009F
:103C300018BFD2F1807288BF00F0004010BDFF2194
:103C400041EAD050C005704780F0004090EA010F73
:103C50007FF5A9AD81F0004100F007B890EA010FAF
:103C600048BF81F000413FF59EAD421A04D882F072
:103C70000042A0EB020011444FEAD0524FF07F4CBB
:103C80001CEA410FA2EBD15318BF9CEA026F4AD045
:103C90004FF0004C4CEA00204CEA012121FA03FCD1
:103CA000B0EB0C0C0FD412F0FE0F36D05FEA4C00D4
:103CB0001DD5001240EBC25038BF70471CF03F0FBB
:103CC00018BF70470BE0A2F101025FEA1C2040EB35
:103CD000C25038BF70471CF07F0F18BF7047C3F148
:103CE0002003994014BF401E20F001007047800857
:103CF0004FEA122308BF7047B0FA80FCA2EB0C0217
:103D0000CCF1280C60FA0CF093EA122F04BF00EB00
:103D1000C25070474FEAC3707047130A5FEADC1065
:103D200008BF7047F6E79CEA026F04D010EA5C0F08
:103D300008BF0020704710B5FFF73BFF40DFF63E9D
:103D400081F000407047FCF724BF000000080140EC
:103D500001000000000801400400000000080140CC
:103D60000500000000000000000000003031323388
:103D7000343536373839414243444546403058009F
:103D800030313233343536373839616263646566D1
:103D9000403078000400000800000000000000022D
:103DA000000100001000000002400000000000A020
:103DB0000000000005400000000000C800000000F6
:103DC0000C4000000000409C000000001940000072
:103DD0000020BCBE0000000034400000BFC91B8EA4
:103DE00000000004B5400000504BCFD06607E2CF82
:103DF000010000006C4100003E8251AADFEEA734B2
:103E000001000000D9420000DCB5A0E23A301F9763
:103E1000FFFFFFFFB4450000FD25A0C8E9A3C14F87
:103E2000FFFFFFFFFF3F00000000008000000000D8
:103E3000FF3F000000000080000000009C3F0008E1
:103E4000000000202C0300006C010008D041000895
:103E50002C030020840E0000C80100081C00000094
:103E600043000000F8FFFFFF0C0000000E00000000
:103E70000F0000002E0000001001000043000000B1
:103E8000F8FFFFFF0040404040404040404041417B
:103E9000414141404040404040404040404040401F
:103EA00040404040400502020202020202020202B9
:103EB00002020202022020202020202020202002B6
:103EC0000202020202029090909090901010101046
:103ED00010101010101010101010101010101010E2
:103EE0000202020202028888888888880808080876
:103EF0000808080808080808080808080808080842
:103F00000202020240000000000000000000000069
:103F100000000000000000000000000000000000A1
:103F20000000000000000000000000000000000091
:103F30000000000000000000000000000000000081
:103F40000000000000000000000000000000000071
:103F50000000000000000000000000000000000061
:103F60000000000000000000000000000000000051
:103F70000000000000000000000000000000000041
:103F80000000000000000000B1EFFFFF5DF0FFFF48
:103F900059EFFFFF89EFFFFFD5F0FFFF0110230668
:103FA0000132C429045ADC08415AF71C32045A0869
:103FB00004290CE904B1387F08320864089608C85F
:103FC00008FA082C095E098F09C009F109220A5272
:103FD0000A820AB10AE10A0F0B3D0B6B0B980BC565
:103FE0000BF10B1C0C470C710C9B0CC30CEB0C1352
:103FF0000D390D5F0D840DA80DCB0DED0D0E0E2F9F
:104000000E4E0E6C0E8A0EA60EC20EDC0EF50E0EB5
:104010000F250F3B0F500F640F760F880F980FA7D7
:104020000FB50FC20FCE0FD80FE10FE90FF00FF64B
:104030000FFA0FFD0FFF021AFD0C1AF6141AE91CF5
:104040001AD8241AC22C1AA7341A883C1A64441AA3
:104050003B4C1C0E0FF5581AC2601A8A681A4E7033
:104060001C0E0EED7C1AA8841A5F8C1C130DEB98A5
:104070001A9BA01E470C1C0CF1B01A98B81E3D0BE1
:104080000F0BE1C81A82D01C220AF1DC1A8FE41C43
:104090002C09FAF01A96F8133208105908CD079B2C
:1040A00007690737070507D306A10670063F060E06
:1040B00006DD05AD057D054E051E05F004C2049420
:1040C0000467043A040E04E303B8038E0364033C5C
:1040D000031403EC02C602A0027B02570234021250
:1040E00002F101D001B1019301750159013D012394
:1040F000010A01F112DA12C412AF129B128912776F
:1041000012671258124A123D12311227121E12164D
:10411000120F1209120572021A020C1A09141A1649
:104120001C1A27241A3D2C1A58341A773C1A9B441F
:104130001AC44C12F11A0A581A3D601A75681AB15D
:10414000701CF101127C1A57841AA08C1CEC02140A
:10415000981A64A01EB803E3030EB01A67B81EC213
:1041600004F0041EC81A7DD01CDD050EDC1A70E4B4
:104170001CD30605F01A69F81BCD077E6602030200
:104180000103041E08097F450C0140058A18085ADE
:1041900004083943190839D64C080140515C0140E4
:1041A0000A085A0940197339085A06183938190883
:1041B00039385A14181908396019285A0B0839481F
:1041C0005A1010190839101928395819087208009E
:0400000508000131BD
:00000001FF
