:020000040800F2
:1000000018060020D1010008D5010008D70100081A
:10001000D9010008DB010008DD0100080000000034
:10002000000000000000000000000000DF010008E8
:10003000E101000800000000E3010008E5010008FC
:10004000F9040008E7010008E7010008E7010008DB
:10005000E7010008E7010008A5020008F502000812
:10006000150300083503000855030008E7010008E0
:10007000E7010008E7010008E7010008E7010008C0
:10008000E7010008E7010008E7010008E7010008B0
:10009000E7010008E7010008E70100087503000810
:1000A000E7010008E7010008E7010008E701000890
:1000B000E7010008E7010008E7010008E701000880
:1000C000E7010008E7010008E7010008E701000870
:1000D000E7010008E9040008E7010008E70100085B
:1000E000C5020008E7010008E7010008E701000871
:1000F000E7010008E7010008E7010008E701000840
:10010000E7010008E7010008E7010008E70100082F
:10011000E7010008E7010008E7010008E70100081F
:10012000E7010008E7010008E7010008E70100080F
:1001300000F002F800F03CF80AA090E8000C8244BD
:100140008344AAF10107DA4501D100F031F8AFF29A
:10015000090EBAE80F0013F0010F18BFFB1A43F0A5
:1001600001031847AC120000CC120000103A24BF63
:1001700078C878C1FAD8520724BF30C830C144BF0C
:1001800004680C607047000000230024002500264E
:10019000103A28BF78C1FBD8520728BF30C148BFEA
:1001A0000B6070471FB500F031F81FBD10B510BDD2
:1001B00000F03EF81146FFF7F5FF00F037FC00F0C5
:1001C0005CF803B4FFF7F2FF03BC00F065F8000031
:1001D00008480047FEE7FEE7FEE7FEE7FEE7FEE72A
:1001E000FEE7FEE7FEE7FEE703480449024A044B48
:1001F0007047000031010008180200201806002096
:1002000018020020704770477047000070B5064C18
:100210007C44064D7D4403E0206820448047241D33
:10022000AC42F9D170BD00001C1200001C1200008D
:10023000754600F02BF8AE4605006946534620F09F
:100240000700854618B020B5FFF7CEFFBDE8204077
:100250004FF000064FF000074FF000084FF0000B82
:1002600021F00701AC46ACE8C009ACE8C009ACE835
:10027000C009ACE8C0098D46704710B50446AFF31D
:1002800000802046BDE81040FFF79BBF0048704744
:10029000B40100207047000001491820ABBEFEE702
:1002A0002600020010B50548006810B1034908682F
:1002B000804701200249086010BD00007401002041
:1002C0001404014010B50A240DE0084850F8240039
:1002D00018B1064951F8240080470120A040044984
:1002E0000860601CC4B2102CEFDB10BD740100204C
:1002F0001404014010B50548406810B1034948682E
:10030000804702200249086010BD000074010020EF
:100310001404014010B50548806810B1034988688D
:10032000804704200249086010BD000074010020CD
:100330001404014010B50548C06810B10349C868ED
:10034000804708200249086010BD000074010020A9
:100350001404014010B50548006910B1034908694B
:10036000804710200249086010BD00007401002081
:100370001404014010B505240DE0084850F824008D
:1003800018B1064951F8240080470120A0400449D3
:100390000860601CC4B20A2CEFDB10BD74010020A1
:1003A000140401402DE9F0410746884614461D46D5
:1003B000284600F033F8C5F1040007FA00F60F20D4
:1003C000284100EA0800064306F00F06E21704EB96
:1003D000D2625211920002F1E022D2F800212146AD
:1003E000E31704EBD3635B11A4EB431C012303FA73
:1003F0000CF31A432046E31704EBD3635B119B0015
:1004000003F1E023C3F800210348005D40EA061031
:1004100001490855BDE8F08100E400E001460723EA
:1004200023EA01021202054B18684FF6FF03184039
:10043000034B18431043014B186070470CED00E06C
:100440000000FA05024A0A400243024B1A60704754
:1004500080FFFF1F08ED00E030B50446002500F0E6
:1004600059F81F48006840F480301D49086000BFFB
:100470001B480068400C0028FAD04FF480601849EF
:100480004860A01EC4B20846406840EA8440486004
:100490000846406840F4803048601248006840F0E8
:1004A0003200104908600E48006840F080700C4926
:1004B000086000BF0A480068400E0028FAD00848CB
:1004C000406840F002000649486005E00448406882
:1004D000C0F3870505F00305022DF7D130BD0000FC
:1004E000001002400020024010B5024800F0D8F889
:1004F00010BD00004C00002004480078044908604A
:100500000020034908310860704700000200002005
:10051000002C004000B5002015490861C860142077
:10052000486100208861C8610846006840F0010009
:100530000860084640680F4908400D494860084671
:1005400000680D4908400A4908600846006820F420
:10055000802008600846406820F4FE0048600020C3
:10056000886000214FF00060FFF76CFF00BD0000C5
:10057000001002400000FFF8FFFFF6FE30B5034612
:100580008D000F20A840C44303EA04008D0002FA46
:1005900005F5284330BD00007FB516461D46009C7A
:1005A000194880694FF48031611A8A0A012191400B
:1005B0000843154988619DF80400082807DA9DF86A
:1005C000041020683246FFF7D9FF206008E09DF84C
:1005D0000420083AD1B260683246FFF7CFFF60606E
:1005E000012D07D1E0689DF80420012191400843C6
:1005F000E06007E035B9E0689DF8042001219140F2
:100600008843E0607FBD00000010024010B5012368
:1006100008220D4803C8FFF7BFFF012308220A483C
:10062000C1688068FFF7B8FF0123082206484169C6
:100630000069FFF7B1FF002308220348C169806900
:10064000FFF7AAFF10BD00001400002010B5012321
:100650000322054803C8FFF79FFF01230322034835
:1006600003C8FFF799FF10BD040000200C00002014
:1006700070B505460C4608480570084804702046C9
:10068000FFF7EAFE4FF0E020006920F004004FF091
:10069000E021086170BD0000000000200100002082
:1006A0000146D1F8DC20128802F010024AB1DC3198
:1006B0008A8842F400428A8051F8DC299288D0B2BC
:1006C00079E0D1F8DC20128802F02002002A72D0F2
:1006D000D1F8DC209288D0B291F8D820052A69D2CE
:1006E000DFE802F00304354B670063E0B1F8E02077
:1006F00002F4004252BBB1F8E02002F4804262B141
:100700000A2803D00022A1F8E0201FE0B1F8E02081
:1007100042F40042A1F8E02018E00D2806D1B1F81B
:10072000E02042F48042A1F8E0200FE0B1F8E020A0
:10073000C2F30D02885431F8E02F521C0A8031F8C0
:10074000E029C72A02DD0022A1F8E02032E0B1F85A
:10075000E02002F400427AB9B1F8E020C2F30D02C1
:10076000885431F8E02F521C0A8031F8E029C72A5A
:1007700002DD0022A1F8E0201CE091F8E32091F8CE
:10078000E2309A4202DB91F8E42082B991F8E3204A
:10079000885491F8E320521CD2B281F8E320C82A91
:1007A00005DB002281F8E320012281F8E42001E04A
:1007B00001E000BF00BF70472DE9F04F89B004464B
:1007C000894692467F4800787F4909784843C7B2F6
:1007D0007E49D4F8DC00884210D17D48C06840F4DE
:1007E00080407B49C8600846C06820F48040C860EB
:1007F0000846806940F48040886130E0384607EB65
:10080000D071C1F347077248006954F8DC1F4FF4F8
:100810008842891A112202EB91220121914008435A
:100820006B490861084600694FF488422168891ABB
:10083000112202EB91220121914088436449086111
:100840000846C06954F8DC194FF48842891A11220D
:1008500002EB91220121914008435D49C8614FEAB2
:10086000091000F075FC80465A4907FB01F000F0C2
:1008700057FC8346414600F055FB0546284600F0EC
:100880002FFC86B2304600F063FC2946079000F04A
:100890003FFD83464FF0834100F06EFC80464046AA
:1008A00000F002FC8346404600F0FEFB019000F0A1
:1008B00037FC4146029000F02BFD039000F0A4FAB3
:1008C0000022454BCDE9040100F0C2F8CDE9060154
:1008D00000F016FA584480B20890089800EB061011
:1008E000D834616808816068808942F20C0108434D
:1008F000616888816068808940EA4A2061688881EF
:1009000014F8D809022807D1D4F8DC00808940F017
:100910001000D4F8DC1088810223082204F1800042
:10092000C16C806CFFF738FE02230B2204F1C80073
:10093000C1688068FFF730FE94F8D80078B354F8A7
:10094000DC0F808940F020002168888154F8DC09A0
:10095000224A811A904223D006DC2149084480B102
:10096000B0F5806F2AD113E0B1F5806F1FD0B1F5DB
:100970006C4F23D10223252203210846FFF712FDE5
:100980001CE00223262203210846FFF70BFD15E099
:100990000223272203210846FFF704FD0EE00EE0A4
:1009A0000223342203210846FFF7FCFC06E0022361
:1009B000352203210846FFF7F5FC00BF00BF09B050
:1009C000BDE8F08F00000020010000200038014049
:1009D0000010024040420F000000E03F004C004089
:1009E00000BCFFBF0FB4F0B5C0F8DC2000F18003FD
:1009F00008ACF0CC4833F0C380F8D810F0BC5DF8F8
:100A000014FB00000EB5064A121D07CA8DE8070048
:100A10000348044A022103680348FFF7E3FF0EBDC1
:100A200034000020003801404C000020092108203B
:100A3000FFF71EFE00224FF4E1310448FFF7BCFE31
:100A4000FFF704FEFFF7E2FD00BFFEE74C000020C9
:100A50002DE9C04130B4DFF8A0C23CEA111418BF40
:100A60003CEA131400F0EC8081EA03051CEA11143F
:100A700044EAD57418BF1CEA131500F0C780A4EB34
:100A800005044FF0004545EAC12145EAC32341EA88
:100A9000505143EA525304F17F74994204F50034F3
:100AA0004FEAC0204FEAC22208BF904200F09C806B
:100AB0004FEA13650FF24016765D4FEA134506FBC9
:100AC00005F7C7F1807706FB07F74FEAD737A7FB93
:100AD00003687642C8F58038A7FB06CE38BFA8F178
:100AE000010807FB08E64FF0000EA6FB028CE6FBB0
:100AF00003CEDCF1000CCEF1004E38BFAEF1010E9A
:100B0000A6FB0C584FF000074FF00005E6FB0E87E0
:100B1000A1FB08C6A0FB07CE16EB0E0645F10005AB
:100B2000E1FB076515F1E04E7EBFA4F580345FEA76
:100B300046066D4116F1800745F100054FEA17277B
:100B40004FEA066647EA0567A6F1DE46B6F1805F22
:100B50004FEA15251FD9384624F0010C05EBC47166
:100B6000BCF1FE6F01EB0C1102D8F0BCBDE80081B6
:100B700024425CBF01F5801E9EEAC47F02D4F0BC13
:100B8000BDE80081244238D4F0BCA1F1C041BDE8E9
:100B9000004100F032B94FEAD22242EA43524FEA12
:100BA000D323A7FB02864FEAD02040EA415007FB3F
:100BB00003661EEA0E0F4FEAD12105FB026658BFFD
:100BC000A6EB0056B6EB00564FEA520E4EEAC37E35
:100BD00018EB0E0E56EB530EBDD518EB02085E4116
:100BE0007F1C55F10005B6E74FF480154FF0000764
:100BF0004FF000064FF00008ADE7F0BC4FF00000EA
:100C000001F1C04101F00041BDE8008111EA0C1F73
:100C10000CEA131500D00CE013EA0C1F00F025803D
:100C20004FF00000F0BC81EA030101F00041BDE893
:100C30000081F0BCBDE8004181EA030100F0DDB8AD
:100C4000F0BCBDE8004170B500F089F8097EFC3EBB
:100C500000F007B881EA03014FF0000001F0004105
:100C6000704781EA030100F0C8B8F0BCBDE800415C
:100C70004FF0000021497047FFFDFBF9F7F5F4F252
:100C8000F0EEEDEBE9E8E6E4E3E1E0DEDDDBDAD827
:100C9000D7D5D4D3D1D0CFCDCCCBCAC8C7C6C5C485
:100CA000C2C1C0BFBEBDBCBBBAB9B8B7B6B5B4B39C
:100CB000B2B1B0AFAEADACABAAA9A8A8A7A6A5A487
:100CC000A3A3A2A1A09F9F9E9D9C9C9B9A9999984B
:100CD0009797969595949393929191908F8F8E8EEE
:100CE0008D8C8C8B8B8A898988888787868585847B
:100CF00084838382828181800000FF070000F87F67
:100D00004FEA41034FEA5353A3F58063D3F11E0327
:100D1000C8BFD3F1210C0CDD4FF0004242EAC122E2
:100D200042EA505232FA03FC8CEAE17CACEBE1700F
:100D30007047102BC4BF0020704703F5787CBCF1CE
:100D4000FF3F04D06FF0004282EA2100704770B587
:100D500000F005F84992248000207047F2E70EF178
:100D6000020E2EF0030E5EF8046B364205D4012A03
:100D700043EB030515F5001F12D8012841EB010CC8
:100D80001CF5001F0CD80ED14FEAD17C15F5001FC1
:100D90000CEB4C0C0CF1020C08BF4CEBD37C04E0C8
:100DA0004FF0080C01E04FEAD37C0CEB4C0526FA1F
:100DB00005F606F00706B6F1040C06D20EEB860C1B
:100DC000BDE870404CF0010C6047DFE80CF0090B07
:100DD00002024FF000414FF00000A1F5002170BD6C
:100DE00019461046012851EB010418BFD4F5001430
:100DF00084BF002001F0004170BD0808A0F500117B
:100E00004FEA31017047000043004FEAD30C4FEA2C
:100E10003C0C43401FBF40070CF1605113F0FE4FE4
:100E200070471CF0006F03D100200CF000417047A8
:100E30000CF0004343EA507010B540EACC0000F0DB
:100E40001CFA00BF000000924FEA0001FFF7D5BF77
:100E50004FF000414FF00000A1F500217047000065
:100E600090EA010F48BF81F0004100F16282421A0E
:100E70003CBF801A89184FEAD0524FF07F4C1CEAD1
:100E8000410FA2EBD15318BF9CEA026F00F03B80E8
:100E90004FF0004C4CEA00204CEA012121FA03FCFF
:100EA00010EB0C0C1ED202F1FF325FEA1C2040EB6B
:100EB000C25038BF70471CF07F0F4FEA400C18BF7C
:100EC000BCF17F4F38BF7047C3F12003994008BF82
:100ED00020F00100BCF17F4F38BF7047A0F1C04047
:100EE00000F011BA4FEA3C00000A40EBC25028BFA4
:100EF0001CF0FF0F4FEA400CE6D018BFBCF17F4F4B
:100F000038BF7047EAE79CEA026F05D010EA5C0F31
:100F100008BF00F00040704710B500F0AEF900BF08
:100F200064FBBE3E4FF47F0C1CEAD0121EBF1CEACD
:100F3000D11392EA0C0F93EA0C0F00F0858090EA2F
:100F4000010F48BF42F4807240F4000C41F40000ED
:100F50002CF07F4120F07F4000B58142A2EB0302DC
:100F60000FF2081CACEB504EC0F100009EF800E000
:100F70004FEA4E0E00FB0EFC38BF49004FEA2C1C16
:100F800002F5FA020CFB0EF34FEACE1E4FEA112CCB
:100F90004FEAC1210EEB635E42EB22420EFB0CFCDA
:100FA0004FEA1C5300FB03114FEA112C4FEA0131A9
:100FB0000EFB0CFC4FEADC4C00FB0C11C14228BFBD
:100FC00009184CEB03335DF804EB10EB410143EBE4
:100FD000C250B2F57C0F38BF704729D512F0F00F20
:100FE0001CBF00F1C04000F00040704700818283C8
:100FF0008485868788898B8C8D8E8F919293959628
:1010000097999A9C9D9FA0A2A3A5A7A8AAACAEB0B1
:10101000B2B3B5B7B9BCBEC0C2C5C7C9CCCED1D4B6
:10102000D7D9DCDFE2E6E9ECF0F3F7FAFE000000E6
:101030004FEA400C0CF1807CBCF17E4F28BF70471A
:10104000B0F1C04000F05FB990EA010F0CEAD11393
:1010500048BF42F48072624538BF634507D213F43B
:101060007F0F16D080EA010000F00040704710B5F5
:1010700000F003F9097EFC3E00F005B880EA0100AB
:1010800000F00040704780EA010000F0004000F0EE
:101090003AB912F47F0F04BF0248704780EA01009A
:1010A00000F031B90000C07F41000B0ED3F19E0269
:1010B00008D950F400034FEA032323FA02F048BF93
:1010C0004042704710B500F0D8F800BF4992248024
:1010D000002070476FF0004282EA20007047000055
:1010E000C10DD1F19E0206DB4FEA002343F000431D
:1010F00023FA02F07047004207D54FEA4001B1F1F0
:10110000FE4F02D24FF00000704710B500F0B5F866
:1011100049922480002070476FEA20007047000049
:1011200010F0004148BF4042B0FA80F310FA03F2D9
:10113000C3F19D030BD051EAC35101EB12205306BA
:1011400038BF704700F1010008BF20F00100704770
:10115000B0FA80F310FA03F2C3F19D030AD0D90567
:1011600001EB1220530638BF704700F1010008BFA1
:1011700020F00100704700004FF47F0C1CEAD012F1
:101180001EBF1CEAD11392EA0C0F93EA0C0F00F079
:10119000478090EA010F48BF42F480724FF0004C44
:1011A0004CEA00204CEA012102EB0302A0FB0113F0
:1011B000A2F50002002918BF43F001035B0028BF1D
:1011C0004FEA330342EB22425FEA132C4CEBC2504E
:1011D0002EBFBCEB436FB2F57C0F70474FEA036C38
:1011E000BCF1004F08BF20F00100B2F57C0F38BF02
:1011F00070470BD582F0FF0212F5803FC8BF7047E1
:1012000000F1C040D8BF00F00040704700F5000C6E
:101210005FEA4C0C48BF7047B0F1C04000F073B8B3
:1012200090EA010F0CEAD11348BF42F48072624584
:1012300038BF634504D280EA010000F000407047E7
:1012400010B500F01AF800BF8900013E00F007B8A1
:1012500000F009B85FEA410C5FEA1C6C08D080EA34
:10126000010000F050B85FEA400C5FEA1C6CF6D158
:101270004FF00040A0F5800070470EF1020E2EF0F6
:10128000030E5EF8044B244204D44FEA4102B2F14B
:101290007F4F11D84FEA4003B3F17F4F0CD80ED1E6
:1012A0004FEAD07CB2F17F4F0CEB4C0C0CF1020CEE
:1012B00008BF4CEBD17C04E04FF0080C01E04FEA92
:1012C000D17C0CEB4C0324FA03F404F00704B4F1D2
:1012D000040C06D20EEB840CBDE810404CF0010C5F
:1012E0006047DFE80CF0070802024FF00040A0F56D
:1012F000800010BD0846420018BFD2F1807288BF3E
:1013000000F0004010BDFF2141EAD050C0057047F9
:1013100080F0004090EA010F7FF5A9AD81F0004117
:1013200000F007B890EA010F48BF81F000413FF597
:101330009EAD421A04D882F00042A0EB0200114494
:101340004FEAD0524FF07F4C1CEA410FA2EBD15331
:1013500018BF9CEA026F4AD04FF0004C4CEA0020C4
:101360004CEA012121FA03FCB0EB0C0C0FD412F073
:10137000FE0F36D05FEA4C001DD5001240EBC25084
:1013800038BF70471CF03F0F18BF70470BE0A2F149
:1013900001025FEA1C2040EBC25038BF70471CF0CE
:1013A0007F0F18BF7047C3F12003994014BF401E40
:1013B00020F00100704780084FEA122308BF7047F1
:1013C000B0FA80FCA2EB0C02CCF1280C60FA0CF015
:1013D00093EA122F04BF00EBC25070474FEAC3706C
:1013E0007047130A5FEADC1008BF7047F6E79CEA13
:1013F000026F04D010EA5C0F08BF0020704710B5E0
:10140000FFF73BFF40DFF63E81F0004070470000F1
:1014100034140008000000204C0000006C0100089B
:10142000801400084C000020CC0500008801000852
:10143000D5F5FFFF08097F00000C01400500000002
:1014400000180140050000000018014004000000E1
:1014500000180140030000000018014002000000D5
:101460000008014000000000000801400A000000E0
:10147000000801400900000000000000000000001A
:0400000508000131BD
:00000001FF
