:020000040800F2
:1000000050110020C5020008C9020008CB020008F8
:10001000CD020008CF020008D10200080000000055
:10002000000000000000000000000000D3020008F3
:10003000D502000800000000D7020008D90200081D
:10004000111D0008DB020008DB020008DB020008CB
:10005000DB020008DB020008BD1900080D1A0008C9
:100060002D1A00084D1A00086D1A0008051900081D
:100070001519000825190008351900084519000848
:100080005519000865190008DB020008DB020008AA
:10009000DB020008DB020008DB0200088D1A000802
:1000A000DB020008211C0008111C0008011C0008CC
:1000B000311C0008411C0008511C0008DB0200082C
:1000C000DB020008DB020008DB020008DB0200089C
:1000D000DB020008E11C0008F11C0008011D0008FB
:1000E000DD190008DB020008DB020008DB02000863
:1000F000B11C0008A11C0008911C0008DB020008CC
:10010000DB020008DB020008611C0008DB020008BB
:10011000C11C0008D11C0008711C0008811C0008CB
:10012000751900088519000895190008A519000817
:1001300000F002F800F0B6F80AA090E8000C824443
:100140008344AAF10107DA4501D100F0ABF8AFF220
:10015000090EBAE80F0013F0010F18BFFB1A43F0A5
:1001600001031847744100009441000010F8013B5E
:100170000A4413F0030408BF10F8014B1D1108BF17
:1001800010F8015B641E05D010F8016B641E01F8C5
:10019000016BF9D1002D15D010F8014B03F00C03C1
:1001A0000C2BA1EB04040ABF10F8013BA4EB831451
:1001B000A4EB032405F1010314F8016B5B1E01F8A5
:1001C000016BF9D5914238BF10F8013BD1D370478C
:1001D0000023002400250026103A28BF78C1FBD850
:1001E000520728BF30C148BF0B6070476E2900F02E
:1001F0007B81702900F0BD82662903F0FE876529A6
:1002000003F0FB87672903F0F8876129AFF30080CB
:1002100003681B0A28BF41F08001692900F028818A
:10022000642900F02581752900F022816F2900F0F2
:100230004A82782900F08982E92900F0E581E429E1
:1002400000F0E281F52900F0DF81EF2900F047821C
:10025000F82900F088820368DB0928BF41F080019B
:10026000632900F00C86732900F01186E32900F061
:100270001C86F32900F02186002070471FB500F08E
:100280006DFE04000020002103F0C2FA401C6060F3
:100290000020002103F0A6FAE06000F075F81FBD11
:1002A00010B510BD00F02DFE1146FFF7E7FF03F07B
:1002B0004BFA00F009FF03B4FFF7F2FF03BC00F0B4
:1002C00053FF000008480047FEE7FEE7FEE7FEE7B1
:1002D000FEE7FEE7FEE7FEE7FEE7FEE70348044928
:1002E000024A044B7047000031010008500D002005
:1002F00050110020500D00201CB50C46064B7B44CD
:1003000069460090204600F008F90446002069463E
:1003100000F016F920461CBD3F02000010B5203A3F
:10032000C0F00B80B1E81850203AA0E81850B1E8AE
:100330001850A0E81850BFF4F5AF5FEA027C24BF64
:10034000B1E81850A0E8185044BF18C918C0BDE85B
:1003500010405FEA827C24BF51F8043B40F8043B24
:1003600008BF7047D20728BF31F8023B48BF11F8D9
:10037000012B28BF20F8023B48BF00F8012B704733
:10038000704770477047000070B5064C7C44064DBE
:100390007D4403E0206820448047241DAC42F9D10D
:1003A00070BD0000944000009C40000070B5044601
:1003B00085690068C10601D5302600E02026C00707
:1003C00007D070BDD4E9012130469047206A401C17
:1003D00020626D1EF6D570BD70B504468569007843
:1003E000C00707D170BDD4E9012120209047206AC1
:1003F000401C20626D1EF6D570BD09684A0501D506
:1004000040B27047C905FCD500B2704709684A057B
:1004100001D5C0B27047C905FCD580B2704770B530
:100420000C460546012A05D02878800600D5EA69E1
:10043000002302E0012305E05B1C934202D2E05C52
:100440000028F9D1A869E618C01AA861286A1844DA
:1004500028622846FFF7AAFF04E0D5E9012114F835
:10046000010B9047B442F8D32846FFF7B5FF70BDA3
:100470002DE9F0410646002410687529314616A57D
:1004800010D0FFF7BAFF002802DA404213A507E0B8
:1004900031688A0701D512A502E0490704D511A5E4
:1004A000012401E0FFF7B2FF00210A2206F1240730
:1004B00009E0B0FBF2FCB0FBF2F302FB1C003030B1
:1004C00078541846491C0028F3D123462A46304662
:1004D000BDE8F04100F061BA000000002D0000000E
:1004E0002B0000002000000011680268006A53051C
:1004F00001D508700AE0D30501D5088006E013068F
:1005000003D5C217C1E9000200E00860012070476E
:1005100001694A1C02610878704700B58FB0CDE9C7
:1005200001310021059105497944CDE903101146B7
:10053000684600F029F90FB000BD0000E5FFFFFF9D
:100540000A6802F8010B0A60704700002DE9FF5F9E
:1005500015468A460446DFF8AC80F8440027D8E9FF
:1005600000103E46CDE9001010E03AF816106A4639
:1005700002A800F0A6FC411C07D02178890603D50B
:10058000E269391891420DD80744761C207880061C
:1005900002D5E069B84205DDAE42E6DB3AF8160066
:1005A0000028E2D1A069C01BA0612046FFF7FEFE33
:1005B000D8E90010CDE90010002017E03AF8181033
:1005C0006A4602A800F07DFCB0F1FF3F81460BD0E7
:1005D00000250DF1080B05E0D4E901211BF8050009
:1005E00090476D1C4D45F7D308F10100B04280469D
:1005F000E4DB206A384420622046FFF7EDFEBDE8C8
:10060000FF9F0000A23C00002DE9F0418046D21D72
:1006100022F007020025D2E90002F52915A614D020
:10062000011E72F1000106DA0023D0EB030063EB38
:10063000020211A608E0D8F800108B0701D50FA61A
:1006400002E0490701D50EA601251146002408F154
:10065000240704E000F05CF930323A55641C50EA9B
:100660000102F7D12B46324621464046BDE8F04113
:1006700000F093B9000000002D0000002B000000E6
:100680002000000030B4002100F1240408E002F052
:100690000705D208303542EA4372DB086554491C2D
:1006A00052EA0305F3D10468002310A2250707D5F9
:1006B000A40600D421B1C46901230DA2641EC46143
:1006C00030BC00F06AB910B5044621461068FFF747
:1006D0009DFE02462046BDE810400023D2E7D21D11
:1006E00022F00701D1E90023CCE700000000000060
:1006F00030000000F0B40D460188090502D5214CF8
:100700007C4402E01F4C7C440E34002100F124069E
:1007100008E002F00F071209E75D42EA03721B09C5
:100720007754491C52EA0307F3D1027800231207D9
:1007300004D5702D06D009B1022311342246F0BC35
:1007400000F02BB901231034F8E770B504460D46CC
:1007500021461068FFF75AFE024629462046BDE8AA
:1007600070400023C6E7D21D22F00703D3E900231F
:10077000C0E70368126843F0200303600823C361E5
:100780000023B7E7043B00002DE9F05F89460446EB
:100790004FF0000ADFF874B1FB44C0F820A02046F7
:1007A000E1688847002874D0252806D0D4E90121C3
:1007B0009047206A401C2062F1E700265F462046F1
:1007C000E16888472028054607DB312D05D27819D6
:1007D00010F8200C08B10643F1E7B00701D526F068
:1007E0000406C4F81CA00027C4F818A02A2D09D0BC
:1007F000284602F0A1FF38B304EB8708303DC8F863
:10080000185019E059F8041B204604EB8702916147
:10081000E1688847012F054618D1E069002820DAF1
:1008200026F020061DE0D8F8180000EB800005EB4C
:1008300040003038C8F818002046E168884705466F
:1008400002F07AFF0028EED1012F0AD02E2D08D118
:100850002046E16888477F1C0546022F46F02006A7
:10086000C4DBA069002803DA404246F00106A0611B
:10087000F00701D026F010066C2D0BD0682D09D0A2
:100880004C2D39D06A2D35D0742D35D07A2D33D0FA
:1008900016E038E0E1682F4620468847B842054612
:1008A00009D16C2F26D04FF48060E16806432046C2
:1008B0008847054604E06C2F1AD04FF48070064339
:1008C0000DB3A5F14100192802D8203546F4006681
:1008D0004A462946204626604E46FFF787FC80B1EF
:1008E00001280BD0F61D26F0070000F1080956E795
:1008F0004020E4E78020D8E70020D6E706F104098D
:100900004DE7284652E7206ABDE8F09F943A000080
:1009100030B5B0F10A024FEA900E71F100034EEAD1
:10092000817EB0EB0E0061EB91014FEA101E4EEAA2
:10093000017E10EB0E0041EB11114FEA102E4EEA32
:10094000016E10EB0E0041EB11214FEA104E4EEA02
:10095000014E10EB0E0041EB1141401841F1000136
:100960004FEAD00040EA41704FEAD10110EB800518
:100970004FEA810444EA907444EB01046D1944EB9E
:100980000404521BA3414FF0000348BF0A3200D5B4
:1009900030BD401C41F1000130BD2DE9F0470D464E
:1009A00099469246044600F124080168880604D559
:1009B000E06921F01001216000E00120A84201DD82
:1009C000471B00E00027A1697A1902EB0900081A09
:1009D000A0612078C00602D42046FFF7E7FC00267D
:1009E00008E0D4E901211AF806009047206A401C6B
:1009F000761C20624E45F4DB2078C0060AD52046DE
:100A0000FFF7D4FC06E0D4E9012130209047206AAA
:100A1000401C2062381EA7F10107F4DC07E0D4E98E
:100A2000012118F805009047206A401C2062281E0A
:100A3000A5F10105F3DC2046FFF7CEFC2078000687
:100A400002D50220BDE8F0870120FBE770472DE9C1
:100A5000FF4F0C461E464FF0FF378BB0D2E9000126
:100A6000DDF860800A908A46C1F30A5505B93D4613
:100A7000002108464FF00000BAF1000F00F44000DA
:100A800005DA00EB80004FF4400101EA50004FEA24
:100A90009059B9F1010F00DDB9460A9850EA4A00B1
:100AA0000ED044F61050A5F2FF3545432F14B8F18F
:100AB000000F1ED07542291E1EDDC9F100021CE088
:100AC000B8F1010F4FF0000001D0302103E0F243F4
:100AD00005E02154401CB042FBDB304600220021DF
:100AE00021540B99C1F80880C1E900200FB0BDE87E
:100AF000F08FBD1B6D1CDEE74A4600DA694206A88E
:100B000000F070FA06AB93E8070003AB83E8070038
:100B100050460A9900F02EFB8DE80700A0F5005022
:100B20001F3800900398002D0ADD42F21F014A464B
:100B30000844002303A90390684600F097FD09E0EC
:100B4000A0F500504A461F38002303A903906846C9
:100B500000F0A1FD8DE807000004000C03D04FF069
:100B6000FF30410800E01046B8F1000F03D000222A
:100B7000009215461EE0751E05D4FFF7C9FE3032FF
:100B800062556D1EF9D5B3460122084302D00022FA
:100B90007F1C04E02078302801D100227F1E002A2B
:100BA000099784D01DE0112D07DAFFF7B1FE30322E
:100BB00062556D1C50EA0102F5D1084302D000983D
:100BC000C8B10EE00021681E05E0235C625C63543E
:100BD0002254401E491C8142F7DBAB46A81B401E35
:100BE0000990002004F80B000B98099AC0F80880BF
:100BF000C0E9002B7AE711264FF0000857E72DE9EE
:100C0000F04F88460446D21D22F0070191B0D1E989
:100C10000001CDE90A0102F0B6FC02460B98C00FB4
:100C200001D02D2007E02068810701D52B2002E0AC
:100C3000202101EAC000032A099001D0072A05DB20
:100C400003464146204600F08DF90BE120788006EE
:100C500001D5E06900E00620B8F1650F814606D0B5
:100C6000B8F1660F18D0B8F1670F70D131E00020ED
:100C7000B9F1110F009001DB112301E009F101032B
:100C80000AAA01A90CA8FFF7E2FEDDE90C70002614
:100C900009F10105834647E001204B4600904FF0E3
:100CA00000470AAA01A90CA8FFF7D1FEDDE90DB0A3
:100CB0000C995D46002610B909F101000D18B9EB39
:100CC000050003D4C0F1FF3609F10105A5EB0900C9
:100CD0002BE0B9F1010F01DA4FF001090020B9F161
:100CE000110F0090484601DD112300E003460AAAD7
:100CF00001A90CA8FFF7ABFEDDE90C704D460026FC
:100D00008346207800070AD4AB4500DA5D4601A887
:100D1000012D04DD411911F8011C302907D04F4580
:100D200002DA17F1040F04DA012082460FE06D1E8B
:100D3000EEE7002F02DCED1B3E4403E0781CA842E6
:100D400000DD7D1CB81B00F1010A4FF00047207840
:100D5000000703D4AA4501DB4FF0FF3A0021B7F1A9
:100D6000004F0DF143088DF8431024D002202B23AF
:100D7000002F01DA7F422D230A21021EA0F101007B
:100D800000DC5FB197FBF1FC97FBF1F201FB1C7CEF
:100D900017460CF1300C08F801CDEEE7A8F1010080
:100DA00003702188090501D5452100E06521A0F1E6
:100DB000010800F8011C09980FA9A1EB0807FF1D05
:100DC00000B10120411901EBEA70A1693844081A09
:100DD000401EA0612078C00602D42046FFF7E6FA44
:100DE000099828B1D4E901219047206A401C20626B
:100DF0002078C00622D52046FFF7D8FA1EE0002E44
:100E000004DBB34502DD01A8805D00E03020D4E9B9
:100E100001219047206A401C2062761CAAF1010043
:100E20005FEA000A0AD100F099F8C0680168405CE6
:100E3000D4E901219047206A401C2062281EA5F1B8
:100E40000105DCDC07E0D4E9012118F8010B90472B
:100E5000206A401C2062381EA7F10107F3DC2046FF
:100E6000FFF7BAFA032011B041E610B5436913B198
:100E7000AFF3008001E0FFF7D2FA012010BD127835
:100E800000F124010A7000224A700122EDE7116886
:100E90004FF0FF32E9E710B5436913B1AFF30080BB
:100EA00001E0FFF753FB012010BD128800F124017F
:100EB00082840022C2840122EDE711684FF0FF32E4
:100EC000E9E770B516460C46054600F03FF80368A2
:100ED00093F80101012806D0FF2C0FD8185D68B1E6
:100EE00001202C7070BDD3F807013246214603F271
:100EF000071303442846BDE8704018474FF0FF3001
:100F000070BD754600F0EAF8AE46050069465346E6
:100F100020F00700854618B020B5FFF7DFF9BDE8DF
:100F200020404FF000064FF000074FF000084FF050
:100F3000000B21F00701AC46ACE8C009ACE8C009E1
:100F4000ACE8C009ACE8C0098D46704710B500F0A8
:100F500005F8001D10BD00BFB9280000004870470B
:100F60000C0D00202DE9F0411F46044603260168C0
:100F7000072A01F4006004DB08B116A505E016A5F8
:100F800003E008B115A500E015A521F010002060D0
:100F9000A069C01EA0610FB1401EA0612046FFF7EE
:100FA00005FA4FB1D4E9012138469047206A401C28
:100FB0002062C01C206206E0206AFAE7D4E9012121
:100FC00015F8010B9047761EF8D22046FFF704FA79
:100FD000BDE8F0814E414E006E616E00494E460004
:100FE000696E66002DE9F047814616468AB035489D
:100FF00078440DC88DE80D0032487844801C03AC5D
:101000000DC884E80D0041F69B300844372190FB61
:10101000F1F290FBF1F5A5F1800501FB12041B3CF8
:1010200002D56442012000E00020DFF898A080464D
:101030000027FA44AAF1BE0A0EE0E0070AD03246C1
:10104000684607EB470101230AEB810100F023FB0F
:101050008DE8070064107F1C002CEED1194F7F44EF
:10106000AE3F19E0E80715D007EB04100DF1180AA0
:1010700090E80E008AE80E00C068F04201D198198D
:1010800008903246012306A903A800F004FB03AB35
:1010900083E807006D10641C002DE3D14FF00103BD
:1010A00032466946B8F1000F03A802D000F0DEFA1C
:1010B00001E000F0F0FAC9E90001C9F808200AB01F
:1010C000BDE8F087CC32000010B50446AFF30080D5
:1010D0002046BDE81040FFF7EEB80000004870471A
:1010E000EC0C00204FF0013C50F8042B51F8043B6D
:1010F0009A4221D1A2EB0C03934313EACC1317D1EC
:1011000050F8042B51F8043B9A4215D1A2EB0C0382
:10111000934313EACC130BD150F8042B51F8043B42
:101120009A4209D1A2EB0C03934313EACC13DBD010
:101130004FF00000704700BFD01A01BAB1FA81F138
:1011400001F0180122FA01F0CB40C1F12001DBB21D
:10115000C0B2C01A2CFA01F3D11A914311EAC3119B
:10116000E6D170477047000001491820ABBEFEE78A
:10117000260002005FEA400C08BF91F0000F4FEA22
:101180008C234FEAC12243EA51514FEA1C5018BF49
:1011900000F5F0404FEA300018BF41F000415FEA2F
:1011A0006C5C00F02980BCF1FF3F08BF40F080403C
:1011B0007047130C06BF12044FF0100C4FF0000CD8
:1011C000130E04BF12020CF1080C130F04BF12011E
:1011D0000CF1040C930F04BF92000CF1020CD30F1E
:1011E00004BF52000CF1010C11464FF00002A0F1B7
:1011F0001F00A0EB0C00704711F0004F08BF7047B4
:1012000031F000413FF4D5AF0B0C06BF09044FF09D
:10121000100C4FF0000C0B0E04BF09020CF1080C6F
:101220000B0F04BF09010CF1040C8B0F04BF8900E4
:101230000CF1020CCB0F04BF49000CF1010CCCF1F6
:101240002003A0EB0C0022FA03F302FA0CF241EAAD
:10125000030100F10100704720F07F4C80EA030099
:1012600023F07F47ACEB070303F57C5300F000400D
:1012700003F1FF032DE980494FEA154B09B44FEA0A
:10128000144325EA0B4E24EA03480FF2042606EB2A
:10129000132749083E785FEA320203FB0667C7F569
:1012A000000707FB06F64FEA54374FEAD64606F129
:1012B000020607FB066CCCF1005C4FEA1C472CEAE7
:1012C000074C07FB06F40CFB06F504EB15464FEA4A
:1012D000961634BF00204FF000404FEAD13706FB8E
:1012E00007FC4FEA1C4C0CFB0BF7D21B03FB0CF763
:1012F00061EB07010CFB0EF7B0EB074072EB1742F6
:101300000CFB08F734BFA2EB0742B2EB074261EBDC
:1013100017414FEA0C444FEA910706FB07FC4FEADE
:101320001C4C0CFB0BF7B0EBC74072EB573203FBC6
:101330000CF734BFA2EBC742B2EBC74261EB5731A7
:101340000CFB0EF7B0EBC70072EB57720CFB08F703
:1013500034BFA2EBC702B2EBC70261EB5771039F28
:101360004FEA816141EA921104EBCC044FEAD13794
:101370004FEA826206FB07FC42EA90124FEA806065
:101380004FEA1C4C0CFB0BF7D21B03FB0CF761EB79
:1013900007010CFB0EF7B0EB074072EB17420CFB9A
:1013A00008F734BFA2EB0742B2EB074261EB1741EB
:1013B0004FEA8C554FEA910704EB9C2406FB07FC8F
:1013C0004FEA1C4C0CFB0BF7B0EBC74072EB5732EB
:1013D00003FB0CF734BFA2EBC742B2EBC74261EB91
:1013E00057310CFB0EF7B0EBC70072EB57720CFBDA
:1013F00008F734BFA2EBC702B2EBC70261EB57712B
:1014000015EB4C254FEA816141EA92114FEA826265
:101410004FEAD13742EA901206FB07FC44F1000480
:101420004FEA80604FEA1C4C0CFB0BF7D21B03FB0E
:101430000CF761EB07010CFB0EF7B0EB074072EB0A
:1014400017420CFB08F734BFA2EB0742B2EB07428E
:1014500061EB174115EB1C154FEA813141EA9241CE
:101460004FEA823242EA90424FEA80304FEA0C76ED
:1014700044F1000448EA03434EEA0B484FF0000EE3
:10148000B2EB080C71EB030724BF624639464EEB02
:101490000E0E4FF0000B0018524149414BEB0B0B65
:1014A000B2EB080C71EB03077BF1000B24BF624623
:1014B00039464EEB0E0E4FF0000B001852414941D9
:1014C0004BEB0B0BB2EB080C71EB03077BF1000B42
:1014D00024BF624639464EEB0E0E51EA020718BF92
:1014E00046F0010616EB0E7655F1000254F10001AC
:1014F00003D5BDE88901BDE80088BDE88901BDE8E4
:101500000048B619524141EB0101A3F101037047B4
:1015100080807F7E7D7C7B7A797877767675747330
:10152000727171706F6E6E6D6C6C6B6A6A696868EF
:10153000676666656464636362616160605F5F5E85
:101540005E5D5D5C5C5B5B5A5A59595858575756FB
:101550005655555554545353525252515150505060
:101560004F4F4F4E4E4D4D4D4C4C4C4B4B4B4A4AB2
:101570004A494949484848474747474646464545F6
:10158000454444444443434343424242424141412F
:10159000002B9C4630D477002BD01CB54FEA370780
:1015A00003B44FF010004FF01001BAF1000F06D055
:1015B000BCF1000FDCBF40F0080040F008014FF024
:1015C00000000FBCBDE810400BF1010BBBF1010F97
:1015D00008BF5FEA170722BF12F1010211F10101F2
:1015E0004FF0004143F1000300F0004043EA0000E7
:1015F0007047F9D35708D0E746EA064613F1400F83
:101600004FEA16461FDD13F1200FDFBF16430A46CF
:10161000002120335B42BED0C3F1200746EA0646D4
:1016200002FA07F74FEA164646EA0706C3F1200713
:1016300022FA03F201FA07F721FA03F14FF000034F
:1016400042EA0702A7E746EA020646EA06464FEAEA
:10165000164646EA0106BCBF46EA0646360C4FF07F
:1016600000034FF000024FF0000194E72DE9804C99
:101670009A46934670B491E8380007C831EA400CA6
:1016800048BF34EA430C03D5FFF7E6FDFFF780FFC0
:10169000F0BCBDE8008C2DE9804C9A46934670B4AE
:1016A00091E8380007C810F0804F08BF13F0804F52
:1016B00003D100F005F8FFF76BFFF0BCBDE8008C2C
:1016C00020F07F4780EA030023F07F4C07EB0C03F8
:1016D000A3F57C5300F00040A3F1FE0392F0000F4D
:1016E00000F0B38095F0000F00F077802DE90149FC
:1016F0004FEA11404FEA144621EA004800FB06FC7D
:1017000024EA064708FB06F607FB08F800FB07F784
:1017100018EB06484CEB164C4FEA124B18EB0748F7
:101720004FEA15464CEB174022EA0B4E0BFB06FC2A
:1017300025EA06470EFB06F607FB0EFE0BFB07F736
:101740001EEB064E4CEB164C4FF000061EEB074E00
:101750004CEB174B18EB0B0840F1000018EB0E0B8D
:1017600058EB000840F100008F1A4FF000013CBF19
:10177000C943661B14BFB5EB040C00213CBFC94331
:10178000F61B4FEA17444EEA8E0E27EA04454FEA4D
:101790001C4704FB07622CEA074C05FB07F70CFB10
:1017A00005F604FB0CFC16EB074642EB174216EB62
:1017B0000C4642EB1C421BEB060658EB0202414171
:1017C00046EA9E0601D5BDE80189B619524141EBB2
:1017D0000101A3F10103BDE801894FEA14454FEA75
:1017E000114724EA054621EA074C05FB07F406FBEE
:1017F00007F70CFB06F105FB0CFC11EB074144EB72
:1018000017444FEA124711EB0C4144EB1C4422EA07
:10181000074C05FB07F206FB07F70CFB06F605FB7A
:101820000CFC16EB074642EB174216EB0C4642EB5C
:101830001C456A1854F1000148BF7047B61952415F
:1018400041EB0101A3F10103704795F0000F37D080
:101850004FEA11424FEA144721EA024624EA074CB4
:1018600002FB07F106FB07F70CFB06F402FB0CFC7E
:1018700014EB074441EB17414FEA154714EB0C44B6
:1018800041EB1C4125EA074C02FB07F506FB07F775
:101890000CFB06F602FB0CFC16EB074645EB174566
:1018A00016EB0C4645EB1C42121951F1000148BFE2
:1018B0007047B619524141EB0101A3F10103704792
:1018C0004FEA14454FEA114724EA054621EA074C3E
:1018D00005FB07F106FB07F70CFB06F24FF00006CD
:1018E00005FB0CFC12EB074241EB174112EB0C42DB
:1018F00051EB1C4148BF7047921841EB0101A3F125
:101900000103704710B5024801F0F8FC10BD00005B
:10191000EC02002010B5024801F0F0FC10BD000000
:10192000F802002010B5024801F0E8FC10BD0000EC
:101930000403002010B5024801F0E0FC10BD0000D7
:101940001003002010B5024801F0D8FC10BD0000C3
:101950001C03002010B5024801F0D0FC10BD0000AF
:101960002803002010B5024801F0C8FC10BD00009B
:101970003403002010B5024801F0C0FC10BD000087
:101980004003002010B5024801F0B8FC10BD000073
:101990004C03002010B5024801F0B0FC10BD00005F
:1019A0005803002010B5034801F0A8FC024801F0DC
:1019B000A5FC10BD640300207003002010B505488D
:1019C000006810B103490868804701200249086097
:1019D00010BD0000AC0200201404014010B50A2420
:1019E0000DE0084850F8240018B1064951F82400C9
:1019F00080470120A04004490860601CC4B2102C3C
:101A0000EFDB10BDAC0200201404014010B5054806
:101A1000406810B1034948688047022002490860C5
:101A200010BD0000AC0200201404014010B50548B0
:101A3000806810B103498868804704200249086023
:101A400010BD0000AC0200201404014010B5054890
:101A5000C06810B10349C86880470820024908607F
:101A600010BD0000AC0200201404014010B5054870
:101A7000006910B1034908698047102002490860D5
:101A800010BD0000AC0200201404014010B5052474
:101A90000DE0084850F8240018B1064951F8240018
:101AA00080470120A04004490860601CC4B20A2C91
:101AB000EFDB10BDAC020020140401402DE9F04121
:101AC0000746884614461D46284600F033F8C5F1FF
:101AD000040007FA00F60F20284100EA0800064338
:101AE00006F00F06E21704EBD2625211920002F1E7
:101AF000E022D2F800212146E31704EBD3635B1107
:101B0000A4EB431C012303FA0CF31A432046E3170A
:101B100004EBD3635B119B0003F1E023C3F80021C6
:101B20000348005D40EA061001490855BDE8F08110
:101B300000E400E00146072323EA01021202054BFC
:101B400018684FF6FF031840034B18431043014B2E
:101B5000186070470CED00E00000FA05024A0A40E8
:101B60000243024B1A60704780FFFF1F08ED00E040
:101B700030B50446002500F0E1F81F48006840F445
:101B800080301D49086000BF1B480068400C0028D9
:101B9000FAD04FF4806018494860A01EC4B20846CD
:101BA000406840EA844048600846406840F480301D
:101BB00048601248006840F03200104908600E4842
:101BC000006840F080700C49086000BF0A48006857
:101BD000400E0028FAD00848406840F0020006494C
:101BE000486005E004484068C0F3870505F0030538
:101BF000022DF7D130BD000000100240002002404D
:101C000010B5024801F0BAF810BD00007C030020B6
:101C100010B5024801F0B2F810BD00007C030020AE
:101C200010B5024801F0AAF810BD00007C030020A6
:101C300010B5024801F0A2F810BD00009803002082
:101C400010B5024801F09AF810BD0000B40300205E
:101C500010B5024801F092F810BD0000D00300203A
:101C600010B5024801F08AF810BD0000EC03002016
:101C700010B5024801F082F810BD000008040020F1
:101C800010B5024801F07AF810BD000024040020CD
:101C900010B5024801F072F810BD000040040020A9
:101CA00010B5024801F06AF810BD000040040020A1
:101CB00010B5024801F062F810BD00004004002099
:101CC00000B5024800F0AAFC00BD00008C0900200D
:101CD00000B5024800F0A2FC00BD00003C0B002053
:101CE00000B5024800F09AFC00BD00007C04002012
:101CF00000B5024800F092FC00BD00002C06002058
:101D000000B5024800F08AFC00BD0000DC0700209E
:101D1000044800780449086000200349083108603D
:101D2000704700000E000020002C004002480068B0
:101D3000401C0149086070470800002000B50020E1
:101D400015490861C8601420486100208861C86195
:101D50000846006840F001000860084640680F49E6
:101D600008400D494860084600680D4908400A4986
:101D700008600846006820F4802008600846406833
:101D800020F4FE0048600020886000214FF00060D1
:101D9000FFF7E4FE00BD0000001002400000FFF865
:101DA000FFFFF6FEF8B506460C4617461D4651499C
:101DB000B069086000200BE00121814029404E4AB3
:101DC00011540121814029404C4A1154411CC8B290
:101DD0000428F1DB0021304601F046FA47224FF695
:101DE000FF71304601F0A0F804F00100C8B143488B
:101DF00000783B46012211460090304601F0A4F8DD
:101E00003F480188ADF8001080788DF8020001226B
:101E10003C493046009B00F0F3FF0121304601F0C1
:101E200088F804F00200C8B1344840783B460122EB
:101E300002210090304601F087F831480188ADF862
:101E4000001080788DF8020002222F493046009B56
:101E500000F0D6FF0221304601F06BF804F00400D8
:101E6000C8B1264880783B460122032100903046C5
:101E700001F06AF822480188ADF8001080788DF8EA
:101E80000200032221493046009B00F0B9FF0321E4
:101E9000304601F04EF804F00800C8B11748C07889
:101EA0003B46012204210090304601F04DF81448D1
:101EB0000188ADF8001080788DF8020004221449E2
:101EC0003046009B00F09CFF0421304601F031F8C1
:101ED0000B480188ADF8001080788DF802000022D0
:101EE0000C493046009B00F08BFF304601F0ECF9C6
:101EF000F8BD000000020020F0010020F4010020E5
:101F000003000020A11F000825200008A9200008C8
:101F10002D210008D52200082DE9F84305460E467C
:101F200017469846DDF820901A49A86908600021F4
:101F3000284601F099F93946284600F0DFFF0124D0
:101F400013E0601E012101FA00F0304058B1601E1C
:101F500001FA00F000EA0900434600222146009001
:101F6000284600F0F1FF601CC4B2052CE9DB0A48EA
:101F70000188ADF8001080788DF802000022074932
:101F80002846009B00F03CFF284601F09DF9BDE883
:101F9000F883000004020020030000202D22000826
:101FA00010B500241A48005D1A49095D884217D10E
:101FB0001748005D08B9012000E0002014490855C9
:101FC0000A46115D621CD0B200F096F91248006812
:101FD000808E124941F8240000201149085516E06E
:101FE0000C48005D0A4908550A46115D621CD0B2D2
:101FF00000F082F9094850F8240007490968898EE1
:102000000844064941F8240001200549085510BD3F
:10201000F0010020F4010020000200205C040020F8
:10202000F801002010B501241A48005D1A49095D25
:10203000884217D11748005D08B9012000E0002050
:10204000144908550A46115D621CD0B200F054F9DB
:1020500012480068008F124941F8240000201149FD
:10206000085516E00C48005D0A4908550A46115DFE
:10207000621CD0B200F040F9094850F8240007492A
:102080000968098F0844064941F8240001200549E0
:10209000085510BDF0010020F401002000020020CE
:1020A0005C040020F801002010B502241A48005DED
:1020B0001A49095D884217D11748005D08B9012007
:1020C00000E00020144908550A46115D621CD0B298
:1020D00000F012F912480068808F124941F824007C
:1020E00000201149085516E00C48005D0A490855C2
:1020F0000A46115D621CD0B200F0FEF8094850F8A3
:10210000240007490968898F0844064941F82400DA
:1021100001200549085510BDF0010020F401002000
:10212000000200205C040020F801002010B5032408
:102130001B48005D1B49095D884218D11848005DA5
:1021400008B9012000E00020154908550A46115D34
:10215000621CD0B200F0D0F813480068B0F840001C
:10216000124941F8240000201149085517E00D4894
:10217000005D0B4908550A46115D621CD0B200F0A3
:10218000BBF80A4850F8240007490968B1F8401024
:102190000844064941F8240001200549085510BDAE
:1021A000F0010020F4010020000200205C04002067
:1021B000F80100200448B0F89A0140F400400249B8
:1021C000A1F89A01704700007C0400200448B0F890
:1021D0009A0140F400400249A1F89A0170470000BA
:1021E0002C0600200448B0F89A0140F4004002494F
:1021F000A1F89A0170470000DC0700200120024985
:1022000081F89801704700007C04002001200249F9
:1022100081F89801704700002C0600200120024937
:1022200081F8980170470000DC07002010B51FA15D
:10223000204800F0F3FC002434E01F48005D88B122
:102240001EA11C4800F0EAFC00201B4908551D484F
:102250000068008CA20001219140084319490968D7
:1022600008841DE0184850F82400002818DD16489E
:1022700050F82400401E144941F8240013A10D48D1
:1022800000F0CCFC104850F8240048B90D48006814
:10229000008CA2000121914088430A490968088402
:1022A000601CC4B2042CC8DB10BD000070736F75D5
:1022B000740D0A007C040020FC010020737461721C
:1022C000740D0A00040200206C0400202D2D0D0A5C
:1022D00000000000002009E0064951F8201001F537
:1022E0008031044A42F82010411CC8B20428F3DBB4
:1022F000704700005C04002010B561B10C4A126800
:10230000128C431E9B005B1C01249C402243084B03
:102310001B681A840BE0064A1268128C431E9B004D
:102320005B1C01249C40A243014B1B681A8410BD16
:10233000000200200146294A1278294B5A434FF0E7
:10234000E0235A6100229A6101221A6100220CE006
:1023500000BF4FF0E023186900F001031BB100F447
:102360008033002BF5D0531CDAB24FF47A7391FB13
:10237000F3F39342ECDC00224FF0E0231A614FF4B8
:102380007A7291FBF2F302FB1312002A21DD4FF463
:102390007A7291FBF2F302FB13124FF47A735A43F1
:1023A0000E4B1B785A434FF0E0235A6100229A618A
:1023B00001221A6100BF4FF0E022106900F0010213
:1023C0001AB100F48032002AF5D000224FF0E02349
:1023D0001A6100224FF0E0239A6170470D0000203F
:1023E00040420F0030B503468D000F20A840C44383
:1023F00003EA04008D0002FA05F5284330BD000011
:102400007FB516461D46009C184880694FF4803100
:10241000611A8A0A012191400843144988619DF894
:102420000400082807DA9DF8041020683246FFF7F8
:10243000D9FF206008E09DF80420083AD1B2606816
:102440003246FFF7CFFF6060012D07D1E0689DF8AD
:102450000420012191400843E06006E0E0689DF817
:102460000420012191408843E0607FBD00100240BC
:1024700010B5012308220D4803C8FFF7C1FF01234F
:1024800008220A48C1688068FFF7BAFF01230822C2
:10249000064841690069FFF7B3FF0023082203489B
:1024A000C1698069FFF7ACFF10BD00001802002071
:1024B00010B501230322054803C8FFF7A1FF01233C
:1024C0000322034803C8FFF79BFF10BD080200204A
:1024D000100200202DE9F04104460E461546601E0C
:1024E0002A4941F82050012C06D0022C14D0032C8C
:1024F00022D0042C41D12FE025490968888D01F0B4
:102500001DFD8046314601F02DFD074601F0DEFC41
:102510001F490968888631E01D490968888D01F0E6
:102520000DFD8046314601F01DFD074601F0CEFC51
:1025300017490968088721E015490968888D01F065
:10254000FDFC8046314601F00DFD074601F0BEFC62
:102550000F490968888711E00D490968888D01F0E5
:10256000EDFC8046314601F0FDFC074601F0AEFC73
:1025700007490968A1F8400000E000BF00BF012141
:10258000601E044A1154BDE8F08100006C04002074
:1025900004020020FC01002038B505460C46144812
:1025A0000570144804702046FFF7E2FA4FF0E0206F
:1025B000006920F004004FF0E021086100210E487E
:1025C00000F052FE4FF47A710B4800F097FC0B4874
:1025D0000188ADF8001080788DF8020000220849CB
:1025E0000548009B00F00CFC034800F06DFE38BD70
:1025F0000C0000200D0000207C03002003000020C0
:102600002D1D000813B504469DF804309DF80610F2
:102610009DF805002246FFF751FA1CBD0146D1F88E
:10262000A021128802F0100252B1B1F89A2142F4AE
:102630000042A1F89A21D1F8A0219288D0B2A8E056
:10264000D1F8A021128802F02002002A74D0D1F81B
:10265000A0219288D0B291F89C21052A6BD2DFE8A4
:1026600002F00304364D690065E0B1F89A2102F4E6
:1026700000425ABBB1F89A2102F4804262B10A28A2
:1026800003D00022A1F89A2120E0B1F89A2142F467
:102690000042A1F89A2119E00D2806D1B1F89A213B
:1026A00042F48042A1F89A2110E0B1F89A21C2F3D5
:1026B0000D028854B1F89A21521CA1F89A21B1F860
:1026C0009A21C72A02DD0022A1F89A2133E0B1F84D
:1026D0009A2102F4004282B9B1F89A21C2F30D02A4
:1026E0008854B1F89A21521CA1F89A21B1F89A2184
:1026F000C72A02DD0022A1F89A211CE0B1F8A62128
:10270000B1F8A4319A4202DBB1F8A82182B9B1F83C
:10271000A6218854B1F8A621521C92B2A1F8A62194
:10272000C82A05DB0022A1F8A6210122A1F8A821D0
:1027300001E001E000BF2CE0D1F8A021128802F0F6
:10274000400232B391F8AA31B1F8AC21521E934243
:102750000DDA91F8AA21521C81F8AA2191F8AA3128
:1027600001F1C802D25CD1F8A0319A8011E00122B7
:1027700001F5CC710A708A68928922F040028B6858
:102780009A818A68128822F040028B68A1F5CC7188
:102790001A8070472DE9F04F8FB004460D4616465B
:1027A0001F46DDF8608084F89C6184F89D7184F890
:1027B0009E81F6480078F64909784843C0B20D90EA
:1027C000F449D4F8A001884210D1F348C06840F41D
:1027D0008040F149C8600846C06820F48040C86065
:1027E0000846806940F48040886132E00D9800EB33
:1027F000D071C1F347010D91E74800694FF4884259
:10280000D4F8A011891A112202EB912201219140E2
:102810000843E1490861084600694FF48842D4F84A
:10282000A011891A112202EB9122012191408843C3
:10283000D94908610846C0694FF48842D4F8A0110C
:10284000891A112202EB9122012191400843D249B9
:10285000C8611999080101F071FB8346CF4A0D99AF
:1028600001FB02F001F052FB5946089001F050FACA
:102870008146484601F02AFB1FFA80FA504601F0D3
:102880005DFB4946079001F039FC83464FF08341D8
:1028900001F068FB0890089801F0FCFA834608985C
:1028A00001F0F8FA019001F031FB0290089901F073
:1028B00025FC039001F09EF90022B94BCDE90401FB
:1028C00000F0BCFFCDE9060101F010F9584480B2D8
:1028D0000E900E9800EB0A1004F5D0742168088160
:1028E0002068808942F20C010843216888812068B1
:1028F00081891A9841EA40202168A4F5D074888122
:10290000022E07D1D4F8A001808940F01000D4F83D
:10291000A0118881B8F1020F56D1D4F8A001808AA5
:1029200040F08000D4F8A011888201200021049199
:102930000591CDE90610084601210022C823CDE902
:102940000032CDE90210D4F8A021111D012304F1B9
:10295000C802D4F8940100F0B1FD9249D4F8A00166
:10296000084498B1B0F5806F1ED0B0F5744F29D1EE
:102970008D490A88D4F89401ADF8202089788DF823
:1029800022108A49089A00F007FD1CE086490A884F
:10299000D4F89401ADF8202089788DF8221084496C
:1029A000089A00F0F9FC0EE07F490A88D4F89401F7
:1029B000ADF8202089788DF822107E49089A00F021
:1029C000EBFC00E000BF00BF012F08D1D4F8A0014C
:1029D000808940F02000D4F8A011888157E0022FB0
:1029E00055D1D4F8A001808A40F04000D4F8A0115D
:1029F00088820120002104910591CDE90610084646
:102A000001210022C823CDE90032CDE90210D4F81B
:102A1000A021111D00232246D4F8900100F04EFDA4
:102A20006049D4F8A001084498B1B0F5806F1ED079
:102A3000B0F5744F29D15C490A88D4F89001ADF8FB
:102A4000202089788DF822105B49089A00F0A4FCB8
:102A50001CE055490A88D4F89001ADF82020897807
:102A60008DF822105549089A00F096FC0EE04E4968
:102A70000A88D4F89001ADF8202089788DF82210CA
:102A80004F49089A00F088FC00E000BF00BF4549AC
:102A9000D4F8A0010844C8B1B0F5806F2AD0B0F5D1
:102AA000744F42D1474800EB05130FCBCDE90B2300
:102AB000CDE909014448406820F0040042494860DB
:102AC0000846406840EA850048602FE03F4800EB38
:102AD00005130FCBCDE90B23CDE909013A48406836
:102AE00020F00800384948600846406840EAC500C0
:102AF00048601BE0364800EB0513D3E90012D3E928
:102B00000203CDE90B03CDE90912022D01D1681CA6
:102B1000C5B22D48406820F030002B494860084677
:102B2000406840EA0510486000E000BF00BF022393
:102B30000822DDE90901FFF763FC02230B22DDE92E
:102B40000B01FFF75DFC0EB1012F04D0B8F1010FAE
:102B500001D0022E5ED11F4AD4F8A001811A904202
:102B600049D006DC0F490844B0B3B0F5806F50D1AE
:102B70003AE0B1F5806F45D0B1F56C4F49D10223F1
:102B8000252203210846FEF799FF42E00C000020B1
:102B90000D000020003801400010024040420F00AC
:102BA0000000E03F00BCFFBF00000020FD21000846
:102BB0000D2200081D220008B5210008CD210008C3
:102BC000E5210008380200200000014058020020E2
:102BD00078020020004C0040FFE702232622032158
:102BE0000846FEF76BFF14E0022327220321084664
:102BF000FEF764FF0DE00223342203210846FEF7AE
:102C00005DFF06E00223352203210846FEF756FF4A
:102C100000BF00BF0FB0BDE8F08F00000FB410B5CB
:102C2000044604A8384908600846026804F1C80050
:102C30000399FDF761FBA4F8AC010020324908605C
:102C400084F8AA0184F8980194F89E0158BB14E016
:102C500000BFD4F8A001008800F040000028F8D0A0
:102C600094F8AA1104F1C800405CD4F8A01188803F
:102C700094F8AA01401C84F8AA0194F8AA01B4F8B7
:102C8000AC118842E4DB012084F8980194F89C019F
:102C9000022836D1D4F8A001808940F01000D4F881
:102CA000A01188812DE094F89E01012816D1002002
:102CB00004F5C674A0776069008820F0400061695F
:102CC00008806069808940F040006169888114F85B
:102CD000C40C6169A4F5C674888012E094F89E0162
:102CE00002280ED1B4F8AC31D4F8A021111D04F1A2
:102CF000C802D4F8940100F029FCD4F8940100F043
:102D00002CFC10BC5DF814FBA8020020C0F8A01138
:102D1000012280F898210022A0F89A210E4A9142BF
:102D200006D10E4AC0F890210D4AC0F8942112E055
:102D30000C4A914206D10C4AC0F890210B4AC0F8C7
:102D4000942108E00A4A914205D10A4AC0F890212C
:102D5000094AC0F89421704700440040280300202D
:102D6000340300200048004004030020F802002043
:102D7000003801401C0300201003002070B50446F9
:102D8000A069008A00F0010050B1206808B12068F5
:102D90008047A069008A20F00100A16908822EE026
:102DA000A069008A00F0400050B1606808B1606816
:102DB0008047A069008A20F04000A16908821EE0D7
:102DC00001251AE0A069008A0121A940084090B1BC
:102DD000681E04F1080151F8200060B1691E04F179
:102DE000080252F821008047A069018A0120A8400A
:102DF0008143A0690182681CC5B2042DE2DD70BD6B
:102E00007FB505460E4614460CB92E6008E0062C28
:102E100001D16E6004E0601E05F1080141F82060F8
:102E2000A86980890121A1400843A9698881314AA4
:102E3000A869811A90423DD00CDCB0F1804F25D0BA
:102E40002D49084438B3B0F5806F29D0B0F5006F34
:102E50004CD12AE0B1F5806F31D0B1F58E3F03D06F
:102E6000B1F5923F42D12FE024B919200399FFF721
:102E7000C9FB0AE0062C04D11A200399FFF7C2FB14
:102E800003E01B200399FFF7BDFB30E01C200399F2
:102E9000FFF7B8FB2BE01D200399FFF7B3FB26E0FB
:102EA0001E200399FFF7AEFB21E032200399FFF7C4
:102EB000A9FB1CE036200399FFF7A4FB17E037209D
:102EC0000399FFF79FFB12E024B92C200399FFF729
:102ED00099FB0AE0062C04D12D200399FFF792FB01
:102EE00003E02E200399FFF78DFB00E000BF00BF39
:102EF0007FBD00000010004000FCFFBF30B50A4657
:102F0000084CB4FBF2F1012301E049085B00B1F584
:102F1000803FFAD84C1E8569AC855C1E85692C857E
:102F200030BD000000A24A048369998583691A852F
:102F3000704710B58269128C4B1E9C000123A34080
:102F40001A4383691A8410BD2DE9F0418AB0044602
:102F50000E4617461D46DDF840802DB1B848806901
:102F600040F00100B6498861B64AA069811A9042D2
:102F700058D007DCB0F1804F24D0B3490844002872
:102F80006CD135E0B1F5806F62D0B1F5923F65D17B
:102F900005EB8500AD4A02EBC00128226846FDF72B
:102FA000BDF9022D01D1681CC5B255B1A8484068D1
:102FB00020F0C000A64948600846406840EA8510F5
:102FC00048604CE005EB8500A24A02EBC0012822D4
:102FD0006846FDF7A3F955B19D48406820F440705C
:102FE0009B4948600846406840EA0520486036E052
:102FF00005EB8500984A02EBC00128226846FDF7E0
:103000008DF9012D01DB681CC5B255B190484068AF
:1030100020F440608E4948600846406840EA8520B8
:1030200048601CE005EB85008C4A02EBC0012822B9
:103030006846FDF773F955B18548406820F4805023
:10304000834948600846406840EA0530486006E029
:10305000282283496846FDF761F900E000BF00BF00
:1030600027B1012F6FD0022F6ED1D5E0012E06D0EF
:10307000022E1DD0032E34D0042E66D14AE0022346
:103080000B22DDE90201FFF7BBF9A069008B20F0FC
:103090000300A1690883A069008B40F06000A1696A
:1030A0000883A069008B40F00800A16908834DE007
:1030B00002230B22DDE90401FFF7A2F9A069008BCE
:1030C00020F44070A1690883A069008B40F4C040DF
:1030D000A1690883A069008B40F40060A16908839E
:1030E00034E002230B22DDE90601FFF789F9A0692C
:1030F000808B20F00300A1698883A069808B40F059
:103100006000A1698883A069808B40F00800A169F4
:1031100088831BE002230B22DDE90801FFF770F929
:10312000A069808B20F44070A1698883A069808B9E
:1031300040F4C040A1698883A069808B40F400609E
:10314000A169888302E00FE067E000BF00BF454946
:10315000A069884207D1A069B0F8440040F400405B
:10316000A169A1F8440059E0012E06D0022E17D023
:10317000032E28D0042E4CD138E002230822DDE9AA
:103180000201FFF73DF9A069008B20F00300A1695F
:103190000883A069008B40F00100A169088339E031
:1031A00002230822DDE90401FFF72AF9A069008B58
:1031B00020F44070A1690883A069008B40F48070FE
:1031C000A169088326E002230822DDE90601FFF752
:1031D00017F9A069808B20F00300A1698883A0699A
:1031E000808B40F00100A169888313E0022308224C
:1031F000DDE90801FFF704F9A069808B20F4407035
:10320000A1698883A069808B40F48070A16988835C
:1032100000E000BF00BF01E000E000BF00BFB8F168
:10322000000F09D0A069008C711E8900491C012281
:103230008A401043A16908840AB0BDE8F08100000B
:10324000001002400008004000FCFFBF10000020FA
:1032500000000140600000200001002078010020F3
:10326000C8010020002C014010B5144B82699A421D
:1032700006D1134A926942F40062114B9A6116E03A
:10328000104B82699A4206D10D4A926942F400526B
:103290000B4B9A610BE08369A3F180439A0A084BB8
:1032A000DB69012494402343054CE36100BF82693C
:1032B000128842EAC10283691A8010BD002C0140C5
:1032C00000100240003401408169098841F0010189
:1032D00082691180704710B50A4682610021016041
:1032E000416000BF06E0002400F1080343F82140DC
:1032F0004B1CD9B20429F6DB10BD000070B50446A2
:103300002349A068884220D22249A068401A14218B
:10331000B0FBF1F51F4808380068A900491C0122DC
:103320008A40104080B11B4808384068A900491CF9
:1033300001228A4010431749083948600120A071D2
:10334000206808B12068804720E011490831A06852
:10335000401A1421B0FBF1F50D480068A900491C82
:1033600001228A40104080B10948001D0068A90070
:10337000491C01228A4010430549091D08600120AB
:10338000A071206808B12068804700BF70BD0000B0
:10339000000402400800024070B504460D46256056
:1033A000A068006840F00200A1680860404AA06878
:1033B000811A90424FD012DC3E4AA0EB02019042AB
:1033C00034D007DC3C490844D8B1142820D0282840
:1033D0006BD124E0142930D0282966D134E0B1F52E
:1033E0006C7F4DD006DCB1F5627F3BD0B1F5677FD5
:1033F0005BD13EE0B1F5717F49D0B1F5767F54D114
:103400004CE002230B2203210846FEF757FB4CE059
:1034100002230C2203210846FEF750FB45E002235D
:103420000D2203210846FEF749FB3EE002230E224F
:1034300003210846FEF742FB37E002230F22032157
:103440000846FEF73BFB30E002231022032108462A
:10345000FEF734FB29E00223112203210846FEF780
:103460002DFB22E00223382203210846FEF726FB2B
:103470001BE00223392203210846FEF71FFB14E05C
:1034800002233A2203210846FEF718FB0DE002232F
:103490003B2203210846FEF711FB06E002233B22F4
:1034A00003210846FEF70AFB00BF00BF70BD000005
:1034B0008000024044000240F8FFFDBF2DE9F05FAC
:1034C00004460D4616461F46DDE90CABDDE90A89C8
:1034D0001C49A068884206D21B48406940F00100A0
:1034E0001949486105E01848406940F00200164952
:1034F0004861002020600520FEF71CFFA068856061
:10350000A068C660A4F804800020A16808603901A2
:10351000109801EB401000EB891000EBCA1000EB93
:103520000B210E9801EB8021119801EB00310F98CF
:1035300001EB8030A16809680843A1680860BDE814
:10354000F09F0000000402400010024010B58468A3
:10355000A1608468E260838010BD00218171816870
:10356000096821F0010182681160818882685160D8
:103570008168096841F001018268116070478160CB
:10358000012282717047490050EAC12018BF04200F
:103590004A0D18BF40F0010040F2FF72B2EB515FDC
:1035A00008BF40F00200012808BF05207047000056
:1035B00000B51D491D48FFF7E2FF1B4914311C48A7
:1035C000FFF7DDFF184928311A48FFF7D8FF1649E1
:1035D0003C311948FFF7D3FF134950311748FFF723
:1035E000CEFF114964311648FFF7C9FF0E49783103
:1035F0001448FFF7C4FF14491448FFF7C0FF1249ED
:1036000014311348FFF7BBFF0F4928311148FFF76A
:10361000B6FF0D493C311048FFF7B1FF0A49503160
:103620000E48FFF7ACFF00BD08000240EC0200208E
:10363000F802002004030020100300201C030020D7
:103640002803002034030020080402404003002027
:103650004C03002058030020640300207003002066
:1036600000B511491148FFF736FE4FF08041104870
:10367000FFF731FE0F491048FFF72DFE0F491048A4
:10368000FFF729FE0F491048FFF725FE0F491048A4
:10369000FFF721FE0F491048FFF71DFE0F491048A4
:1036A000FFF719FE00BD0000002C01407C03002044
:1036B0009803002000040040B403002000080040EC
:1036C000D0030020000C0040EC030020001000405C
:1036D00008040020001400402404002000340140AD
:1036E0004004002000B50A490A48FFF70FFB0A49C9
:1036F0000A48FFF70BFB0A490A48FFF707FB0A498C
:103700000A48FFF703FB0A490A48FFF7FFFA00BD22
:10371000003801407C040020004400402C060020BA
:1037200000480040DC070020004C00408C090020CD
:10373000005000403C0B002030380A2801D2012004
:1037400070470020704700000EB509210820FEF7E1
:1037500023FF00204FF4E131CDE9000101230222D3
:10376000014602901B48FFF715F8FEF7A1FEFEF791
:103770007FFE00231A4601211748FEF713FB0020A5
:1037800001231A46022100901448FEF7C5FB4FF4AE
:10379000FA60FEF7CFFD0022114800680C3000F0FF
:1037A000704000F100700E4909680C31C1F313013B
:1037B00000EB41100A49097940F8212009E0032271
:1037C0004FF07C510220FEF785FE41F28830FEF773
:1037D000B1FDF4E77C040020EC030020B4030020DA
:1037E0001002002010B500290AD00878002807D060
:1037F00005487844FDF776FC002801D0002010BD74
:103800000248784410BD0000060B0000FE0A0000CC
:1038100010B500290AD00878002807D00548784458
:10382000FDF760FC002801D0002010BD024878445C
:1038300010BD0000F60A0000EE0A00002DE9C041AC
:1038400030B4DFF8A0C23CEA111418BF3CEA1314EC
:1038500000F0EC8081EA03051CEA111444EAD574F7
:1038600018BF1CEA131500F0C780A4EB05044FF045
:10387000004545EAC12145EAC32341EA505143EAE4
:10388000525304F17F74994204F500344FEAC0208A
:103890004FEAC22208BF904200F09C804FEA1365B5
:1038A0000FF24016765D4FEA134506FB05F7C7F1A8
:1038B000807706FB07F74FEAD737A7FB0368764206
:1038C000C8F58038A7FB06CE38BFA8F1010807FB72
:1038D00008E64FF0000EA6FB028CE6FB03CEDCF1FF
:1038E000000CCEF1004E38BFAEF1010EA6FB0C5815
:1038F0004FF000074FF00005E6FB0E87A1FB08C65E
:10390000A0FB07CE16EB0E0645F10005E1FB0765AF
:1039100015F1E04E7EBFA4F580345FEA46066D41A6
:1039200016F1800745F100054FEA17274FEA0666B2
:1039300047EA0567A6F1DE46B6F1805F4FEA152536
:103940001FD9384624F0010C05EBC471BCF1FE6FA1
:1039500001EB0C1102D8F0BCBDE8008124425CBF31
:1039600001F5801E9EEAC47F02D4F0BCBDE8008150
:10397000244238D4F0BCA1F1C041BDE8004100F0C0
:1039800032B94FEAD22242EA43524FEAD323A7FB8D
:1039900002864FEAD02040EA415007FB03661EEA48
:1039A0000E0F4FEAD12105FB026658BFA6EB005669
:1039B000B6EB00564FEA520E4EEAC37E18EB0E0EDF
:1039C00056EB530EBDD518EB02085E417F1C55F136
:1039D0000005B6E74FF480154FF000074FF00006E2
:1039E0004FF00008ADE7F0BC4FF0000001F1C0411E
:1039F00001F00041BDE8008111EA0C1F0CEA13152B
:103A000000D00CE013EA0C1F00F025804FF00000FE
:103A1000F0BC81EA030101F00041BDE80081F0BC87
:103A2000BDE8004181EA030100F0DDB8F0BCBDE86B
:103A3000004170B500F089F8097EFC3E00F007B83F
:103A400081EA03014FF0000001F00041704781EA74
:103A5000030100F0C8B8F0BCBDE800414FF0000021
:103A600021497047FFFDFBF9F7F5F4F2F0EEEDEBBD
:103A7000E9E8E6E4E3E1E0DEDDDBDAD8D7D5D4D36C
:103A8000D1D0CFCDCCCBCAC8C7C6C5C4C2C1C0BFB8
:103A9000BEBDBCBBBAB9B8B7B6B5B4B3B2B1B0AFBE
:103AA000AEADACABAAA9A8A8A7A6A5A4A3A3A2A1A2
:103AB000A09F9F9E9D9C9C9B9A999998979796955D
:103AC00095949393929191908F8F8E8E8D8C8C8BF9
:103AD0008B8A898988888787868585848483838281
:103AE000828181800000FF070000F87F4FEA4103D8
:103AF0004FEA5353A3F58063D3F11E03C8BFD3F13C
:103B0000210C0CDD4FF0004242EAC12242EA505241
:103B100032FA03FC8CEAE17CACEBE1707047102BCD
:103B2000C4BF0020704703F5787CBCF1FF3F04D090
:103B30006FF0004282EA2100704770B500F005F88E
:103B40004992248000207047F2E70EF1020E2EF019
:103B5000030E5EF8046B364205D4012A43EB0305DD
:103B600015F5001F12D8012841EB010C1CF5001FB0
:103B70000CD80ED14FEAD17C15F5001F0CEB4C0C84
:103B80000CF1020C08BF4CEBD37C04E04FF0080CA6
:103B900001E04FEAD37C0CEB4C0526FA05F606F063
:103BA0000706B6F1040C06D20EEB860CBDE8704099
:103BB0004CF0010C6047DFE80CF0090B02024FF0FB
:103BC00000414FF00000A1F5002170BD19461046DC
:103BD000012851EB010418BFD4F5001484BF002064
:103BE00001F0004170BD0808A0F500114FEA310155
:103BF0007047000043004FEAD30C4FEA3C0C4340AF
:103C00001FBF40070CF1605113F0FE4F70471CF0CE
:103C1000006F03D100200CF0004170470CF000430E
:103C200043EA507010B540EACC0000F01CFA00BF27
:103C3000000000924FEA0001FFF7D5BF4FF00041AE
:103C40004FF00000A1F500217047000090EA010F3D
:103C500048BF81F0004100F16282421A3CBF801AE5
:103C600089184FEAD0524FF07F4C1CEA410FA2EB6B
:103C7000D15318BF9CEA026F00F03B804FF0004C1C
:103C80004CEA00204CEA012121FA03FC10EB0C0C59
:103C90001ED202F1FF325FEA1C2040EBC25038BF57
:103CA00070471CF07F0F4FEA400C18BFBCF17F4FEC
:103CB00038BF7047C3F12003994008BF20F00100CE
:103CC000BCF17F4F38BF7047A0F1C04000F011BA7F
:103CD0004FEA3C00000A40EBC25028BF1CF0FF0F27
:103CE0004FEA400CE6D018BFBCF17F4F38BF704799
:103CF000EAE79CEA026F05D010EA5C0F08BF00F00B
:103D00000040704710B500F0AEF900BF64FBBE3E46
:103D10004FF47F0C1CEAD0121EBF1CEAD11392EAAA
:103D20000C0F93EA0C0F00F0858090EA010F48BF5A
:103D300042F4807240F4000C41F400002CF07F410A
:103D400020F07F4000B58142A2EB03020FF2081C75
:103D5000ACEB504EC0F100009EF800E04FEA4E0E72
:103D600000FB0EFC38BF49004FEA2C1C02F5FA029A
:103D70000CFB0EF34FEACE1E4FEA112C4FEAC12185
:103D80000EEB635E42EB22420EFB0CFC4FEA1C532F
:103D900000FB03114FEA112C4FEA01310EFB0CFC22
:103DA0004FEADC4C00FB0C11C14228BF09184CEB58
:103DB00003335DF804EB10EB410143EBC250B2F565
:103DC0007C0F38BF704729D512F0F00F1CBF00F1EF
:103DD000C04000F000407047008182838485868760
:103DE00088898B8C8D8E8F919293959697999A9CBA
:103DF0009D9FA0A2A3A5A7A8AAACAEB0B2B3B5B729
:103E0000B9BCBEC0C2C5C7C9CCCED1D4D7D9DCDFFE
:103E1000E2E6E9ECF0F3F7FAFE0000004FEA400CAE
:103E20000CF1807CBCF17E4F28BF7047B0F1C040E0
:103E300000F05FB990EA010F0CEAD11348BF42F4D9
:103E40008072624538BF634507D213F47F0F16D0E6
:103E500080EA010000F00040704710B500F003F95F
:103E6000097EFC3E00F005B880EA010000F0004049
:103E7000704780EA010000F0004000F03AB912F407
:103E80007F0F04BF0248704780EA010000F031B99B
:103E90000000C07F41000B0ED3F19E0208D950F400
:103EA00000034FEA032323FA02F048BF4042704761
:103EB00010B500F0D8F800BF499224800020704768
:103EC0006FF0004282EA200070470000C10DD1F17E
:103ED0009E0206DB4FEA002343F0004323FA02F080
:103EE0007047004207D54FEA4001B1F1FE4F02D2C0
:103EF0004FF00000704710B500F0B5F849922480EB
:103F0000002070476FEA20007047000010F0004169
:103F100048BF4042B0FA80F310FA03F2C3F19D03A8
:103F20000BD051EAC35101EB1220530638BF704742
:103F300000F1010008BF20F001007047B0FA80F3E3
:103F400010FA03F2C3F19D030AD0D90501EB122048
:103F5000530638BF704700F1010008BF20F0010090
:103F6000704700004FF47F0C1CEAD0121EBF1CEA01
:103F7000D11392EA0C0F93EA0C0F00F0478090EAFD
:103F8000010F48BF42F480724FF0004C4CEA002011
:103F90004CEA012102EB0302A0FB0113A2F500028F
:103FA000002918BF43F001035B0028BF4FEA330329
:103FB00042EB22425FEA132C4CEBC2502EBFBCEB0B
:103FC000436FB2F57C0F70474FEA036CBCF1004FB2
:103FD00008BF20F00100B2F57C0F38BF70470BD549
:103FE00082F0FF0212F5803FC8BF704700F1C04069
:103FF000D8BF00F00040704700F5000C5FEA4C0CA1
:1040000048BF7047B0F1C04000F073B890EA010FAC
:104010000CEAD11348BF42F48072624538BF634551
:1040200004D280EA010000F00040704710B500F0B3
:104030001AF800BF8900013E00F007B800F009B887
:104040005FEA410C5FEA1C6C08D080EA010000F0D6
:1040500050B85FEA400C5FEA1C6CF6D14FF00040AC
:10406000A0F5800070470EF1020E2EF0030E5EF8F0
:10407000044B244204D44FEA4102B2F17F4F11D8DD
:104080004FEA4003B3F17F4F0CD80ED14FEAD07CFA
:10409000B2F17F4F0CEB4C0C0CF1020C08BF4CEB57
:1040A000D17C04E04FF0080C01E04FEAD17C0CEB2E
:1040B0004C0324FA03F404F00704B4F1040C06D210
:1040C0000EEB840CBDE810404CF0010C6047DFE8BB
:1040D0000CF0070802024FF00040A0F5800010BD70
:1040E0000846420018BFD2F1807288BF00F000403D
:1040F00010BDFF2141EAD050C005704780F000405C
:1041000090EA010F7FF5A9AD81F0004100F007B8FA
:1041100090EA010F48BF81F000413FF59EAD421A81
:1041200004D882F00042A0EB020011444FEAD052C2
:104130004FF07F4C1CEA410FA2EBD15318BF9CEA11
:10414000026F4AD04FF0004C4CEA00204CEA0121AB
:1041500021FA03FCB0EB0C0C0FD412F0FE0F36D09A
:104160005FEA4C001DD5001240EBC25038BF7047CB
:104170001CF03F0F18BF70470BE0A2F101025FEA8D
:104180001C2040EBC25038BF70471CF07F0F18BF97
:104190007047C3F12003994014BF401E20F0010076
:1041A000704780084FEA122308BF7047B0FA80FCBE
:1041B000A2EB0C02CCF1280C60FA0CF093EA122F5F
:1041C00004BF00EBC25070474FEAC3707047130A38
:1041D0005FEADC1008BF7047F6E79CEA026F04D084
:1041E00010EA5C0F08BF0020704710B5FFF73BFFD7
:1041F00040DFF63E81F000407047FCF700BD000054
:104200000000000000000000303132333435363712
:10421000383941424344454640305800303132330A
:10422000343536373839616263646566403078000A
:10423000040000080000000000000002000100006F
:104240001000000002400000000000A0000000007C
:1042500005400000000000C8000000000C40000005
:104260000000409C00000000194000000020BCBE7F
:104270000000000034400000BFC91B8E0000000495
:10428000B5400000504BCFD06607E2CF01000000E0
:104290006C4100003E8251AADFEEA734010000000D
:1042A000D9420000DCB5A0E23A301F97FFFFFFFFC4
:1042B000B4450000FD25A0C8E9A3C14FFFFFFFFFE3
:1042C000FF3F00000000008000000000FF3F0000F2
:1042D00000000080000000003044000800000020C2
:1042E000AC0200006C01000800450008AC02002090
:1042F000A40E0000D00100081C00000043000000D4
:10430000F8FFFFFF0C0000000E0000000F0000008F
:104310002E0000001001000043000000F8FFFFFF26
:1043200000404040404040404040414141414140C8
:10433000404040404040404040404040404040407D
:10434000400502020202020202020202020202020C
:104350000220202020202020202020020202020211
:104360000202909090909090101010101010101069
:104370001010101010101010101010100202020275
:1043800002028888888888880808080808080808B9
:1043900008080808080808080808080802020202B5
:1043A00040000000000000000000000000000000CD
:1043B00000000000000000000000000000000000FD
:1043C00000000000000000000000000000000000ED
:1043D00000000000000000000000000000000000DD
:1043E00000000000000000000000000000000000CD
:1043F00000000000000000000000000000000000BD
:1044000000000000000000000000000000000000AC
:10441000000000000000000000000000000000009C
:10442000000000008DF1FFFF39F2FFFFB9F2FFFF3E
:1044300030080202030201030001100408097F058D
:10444000300401400C0D5004014008085209085284
:104450000A08220B2D50051801400708520908616F
:1044600018520D08520E48D20008520160520268DC
:10447000520358A20F08820C18E128011350520C65
:10448000A0520CA0011650E1288214885206F8525E
:104490000780520088A201281168520470021A0590
:1044A000285210505610285610508610306138523D
:1044B00006C061785208D0B1285614985614605638
:1044C000146086143805236801160161D08218082B
:1044D000520408520308D60278AA0A2091C0D606D0
:1044E000D85202C0520608A6058065905610905218
:1044F00010105614285A1488000400000000000010
:0400000508000131BD
:00000001FF
