:020000040800F2
:10000000F0060020D1010008D5010008D701000842
:10001000D9010008DB010008DD0100080000000034
:10002000000000000000000000000000DF010008E8
:10003000E101000800000000E3010008E5010008FC
:1000400019050008E7010008E7010008E7010008BA
:10005000E7010008E7010008C502000815030008D1
:10006000350300085503000875030008E701000880
:10007000E7010008E7010008A5020008B502000832
:10008000E7010008E7010008E7010008E7010008B0
:10009000E7010008E7010008E701000895030008F0
:1000A000E7010008E7010008E7010008E701000890
:1000B000E7010008E7010008E7010008E701000880
:1000C000E7010008E7010008E7010008E701000870
:1000D000E701000809050008E7010008E70100083A
:1000E000E5020008E7010008E7010008E701000851
:1000F000E7010008E7010008E7010008E701000840
:10010000E7010008E7010008E7010008E70100082F
:10011000E7010008E7010008E7010008E70100081F
:10012000E7010008E7010008E7010008E70100080F
:1001300000F002F800F03CF80AA090E8000C8244BD
:100140008344AAF10107DA4501D100F031F8AFF29A
:10015000090EBAE80F0013F0010F18BFFB1A43F0A5
:10016000010318470418000024180000103A24BFA7
:1001700078C878C1FAD8520724BF30C830C144BF0C
:1001800004680C607047000000230024002500264E
:10019000103A28BF78C1FBD8520728BF30C148BFEA
:1001A0000B6070471FB500F031F81FBD10B510BDD2
:1001B00000F03EF81146FFF7F5FF00F0DDFE00F01D
:1001C0005CF803B4FFF7F2FF03BC00F065F8000031
:1001D00008480047FEE7FEE7FEE7FEE7FEE7FEE72A
:1001E000FEE7FEE7FEE7FEE703480449024A044B48
:1001F0007047000031010008F0020020F0060020E6
:10020000F0020020704770477047000070B5064C40
:100210007C44064D7D4403E0206820448047241D33
:10022000AC42F9D170BD00007417000074170000D3
:10023000754600F02BF8AE4605006946534620F09F
:100240000700854618B020B5FFF7CEFFBDE8204077
:100250004FF000064FF000074FF000084FF0000B82
:1002600021F00701AC46ACE8C009ACE8C009ACE835
:10027000C009ACE8C0098D46704710B50446AFF31D
:1002800000802046BDE81040FFF79BBF0048704744
:10029000900200207047000001491820ABBEFEE725
:1002A0002600020010B5024800F030FB10BD00002F
:1002B0004800002010B5024800F016FB10BD0000F9
:1002C0004800002010B50548006810B103490868CF
:1002D000804701200249086010BD00005002002044
:1002E0001404014010B50A240DE0084850F8240019
:1002F00018B1064951F8240080470120A040044964
:100300000860601CC4B2102CEFDB10BD500200204E
:100310001404014010B50548406810B1034948680D
:10032000804702200249086010BD000050020020F2
:100330001404014010B50548806810B1034988686D
:10034000804704200249086010BD000050020020D0
:100350001404014010B50548C06810B10349C868CD
:10036000804708200249086010BD000050020020AC
:100370001404014010B50548006910B1034908692B
:10038000804710200249086010BD00005002002084
:100390001404014010B505240DE0084850F824006D
:1003A00018B1064951F8240080470120A0400449B3
:1003B0000860601CC4B20A2CEFDB10BD50020020A4
:1003C000140401402DE9F0410746884614461D46B5
:1003D000284600F033F8C5F1040007FA00F60F20B4
:1003E000284100EA0800064306F00F06E21704EB76
:1003F000D2625211920002F1E022D2F8002121468D
:10040000E31704EBD3635B11A4EB431C012303FA52
:100410000CF31A432046E31704EBD3635B119B00F4
:1004200003F1E023C3F800210348005D40EA061011
:1004300001490855BDE8F08100E400E001460723CA
:1004400023EA01021202054B18684FF6FF03184019
:10045000034B18431043014B186070470CED00E04C
:100460000000FA05024A0A400243024B1A60704734
:1004700080FFFF1F08ED00E030B50446002500F0C6
:1004800059F81F48006840F480301D49086000BFDB
:100490001B480068400C0028FAD04FF480601849CF
:1004A0004860A01EC4B20846406840EA84404860E4
:1004B0000846406840F4803048601248006840F0C8
:1004C0003200104908600E48006840F080700C4906
:1004D000086000BF0A480068400E0028FAD00848AB
:1004E000406840F002000649486005E00448406862
:1004F000C0F3870505F00305022DF7D130BD0000DC
:10050000001002400020024010B5024800F030F90F
:1005100010BD00004800002004480078044908602D
:1005200000200349083108607047000002000020E5
:10053000002C004000B5002015490861C860142057
:10054000486100208861C8610846006840F00100E9
:100550000860084640680F4908400D494860084651
:1005600000680D4908400A4908600846006820F400
:10057000802008600846406820F4FE0048600020A3
:10058000886000214FF00060FFF76CFF00BD0000A5
:10059000001002400000FFF8FFFFF6FE0146294A66
:1005A0001278294B5A434FF0E0235A6100229A6196
:1005B00001221A6100220CE000BF4FF0E02318690D
:1005C00000F001031BB100F48033002BF5D0531C65
:1005D000DAB24FF47A7391FBF3F39342ECDC00222E
:1005E0004FF0E0231A614FF47A7291FBF2F302FBB1
:1005F0001312002A21DD4FF47A7291FBF2F302FB11
:1006000013124FF47A735A430E4B1B785A434FF030
:10061000E0235A6100229A6101221A6100BF4FF063
:10062000E022106900F001021AB100F48032002AC1
:10063000F5D000224FF0E0231A6100224FF0E023B2
:100640009A6170470100002040420F0030B5034618
:100650008D000F20A840C44303EA04008D0002FA75
:1006600005F5284330BD00007FB516461D46009CA9
:10067000194880694FF48031611A8A0A012191403A
:100680000843154988619DF80400082807DA9DF899
:10069000041020683246FFF7D9FF206008E09DF87B
:1006A0000420083AD1B260683246FFF7CFFF60609D
:1006B000012D07D1E0689DF80420012191400843F5
:1006C000E06007E035B9E0689DF804200121914021
:1006D0008843E0607FBD00000010024010B5012398
:1006E00008220D4803C8FFF7BFFF012308220A486C
:1006F000C1688068FFF7B8FF0123082206484169F6
:100700000069FFF7B1FF002308220348C16980692F
:10071000FFF7AAFF10BD00001400002010B5012350
:100720000322054803C8FFF79FFF01230322034864
:1007300003C8FFF799FF10BD040000200C00002043
:1007400070B505460C4608480570084804702046F8
:10075000FFF792FE4FF0E020006920F004004FF018
:10076000E021086170BD00000000002001000020B1
:100770000146D1F8B421128802F0100252B1B1F84A
:10078000B82142F40042A1F8B821D1F8B4219288EE
:10079000D0B2A8E0D1F8B421128802F02002002AD9
:1007A00074D0D1F8B4219288D0B291F8B021052A42
:1007B0006BD2DFE802F00304364D690065E0B1F862
:1007C000B82102F400425ABBB1F8B82102F48042C9
:1007D00062B10A2803D00022A1F8B82120E0B1F8C4
:1007E000B82142F40042A1F8B82119E00D2806D141
:1007F000B1F8B82142F48042A1F8B82110E0B1F874
:10080000B821C2F30D028854B1F8B821521CA1F8E6
:10081000B821B1F8B821C72A02DD0022A1F8B82119
:1008200033E0B1F8B82102F4004282B9B1F8B8213E
:10083000C2F30D028854B1F8B821521CA1F8B821B6
:10084000B1F8B821C72A02DD0022A1F8B8211CE0C6
:10085000B1F8BC21B1F8BA319A4202DBB1F8BE213D
:1008600082B9B1F8BC218854B1F8BC21521C92B2B3
:10087000A1F8BC21C82A05DB0022A1F8BC21012275
:10088000A1F8BE2101E001E000BF2CE0D1F8B421C5
:10089000128802F0400232B391F8C031B1F8C2219F
:1008A000521E93420DDA91F8C021521C81F8C021EA
:1008B00091F8C03101F1C802D25CD1F8B4319A800C
:1008C00011E0012201F5DA710A740A68928922F0B6
:1008D00040020B689A810A68128822F040020B6875
:1008E000A1F5DA711A80704710B5044604F5C87096
:1008F00000F040FA48B1B4F8B80140F40040A4F860
:10090000B80104F5C87000F017FB10BD10B504461F
:1009100004F5CC7000F02EFA30B1012084F8C40147
:1009200004F5CC7000F008FB10BD00002DE9F04F7D
:100930008BB004460D4616461F4684F8B05184F825
:10094000B16184F8B271A9480078A949097848438F
:1009500000F0FF0AA749D4F8B401884210D1A64894
:10096000C06840F48040A449C8600846C06820F4CC
:100970008040C8600846806940F48040886131E06A
:1009800050460AEBD071C1F3470A9B4800694FF407
:100990008842D4F8B411891A112202EB9122012164
:1009A0009140084394490861084600694FF4884221
:1009B000D4F8B411891A112202EB9122012191403D
:1009C00088438D4908610846C0694FF48842D4F8CD
:1009D000B411891A112202EB91220121914008439E
:1009E0008549C8611499080100F05EFE8346834979
:1009F0000AFB01F000F040FE5946099000F03EFD70
:100A00008046404600F018FE1FFA80F9484600F084
:100A10004BFE4146089000F027FF83464FF083418C
:100A200000F056FE0990099800F0EAFD8346099807
:100A300000F0E6FD019000F01FFE0290099900F021
:100A400013FF039000F08CFC00226D4BCDE90401F4
:100A500000F0AAFACDE9060100F0FEFB584480B28E
:100A60000A900A9800EB091004F5DA7421680881ED
:100A70002068808942F20C0108432168888120683F
:100A80008189159841EA40202168A4F5DA748881AB
:100A9000022D07D1D4F8B401808940F01000D4F8B9
:100AA000B4118881022F21D1D4F8B401808A40F09A
:100AB0008000D4F8B4118882012000220592CDE98B
:100AC000062008901046114601220023CDE901328C
:100AD000CDE90310C8200090D4F8B401011D1346DD
:100AE00004F1C80204F5CC7000F04EF9012E08D1D3
:100AF000D4F8B401808940F02000D4F8B411888182
:100B000021E0022E1FD1D4F8B401808A40F04000C9
:100B1000D4F8B4118882012000220592CDE9062084
:100B200008901046114601220023CDE90132CDE99B
:100B30000310C8200090D4F8B401011D224604F52A
:100B4000C87000F021F90223082204F5C070416A40
:100B5000006AFFF789FD02230B2204F5D070C168FB
:100B60008068FFF781FD0DB1012E03D0012F01D068
:100B7000022D37D1234AD4F8B401811A904222D0F1
:100B800006DC2149084480B1B0F5806F29D113E01B
:100B9000B1F5806F1ED0B1F56C4F22D10223252212
:100BA00003210846FFF70EFC1BE002232622032147
:100BB0000846FFF707FC14E002232722032108461A
:100BC000FFF700FC0DE00223342203210846FFF763
:100BD000F9FB06E00223352203210846FFF7F2FB6A
:100BE00000BF00BF0BB0BDE8F08F00000000002088
:100BF00001000020003801400010024040420F0078
:100C00000000E03F004C004000BCFFBF0FB47CB5CB
:100C100004460D4604F5C87000BFA0F5C87404F57D
:100C2000CC7000BFA0F5CC74C4F8B45104F5C0700A
:100C300008A94EC920304EC0012084F8C40100200C
:100C4000A4F8B8012548854213D12549684600F02B
:100C50007AF904F5C07105C8C1E9040220491431CC
:100C6000684600F070F904F5C07105C8C1E90602D4
:100C70002FE01C48854214D119493C39684600F0E0
:100C800062F904F5C07105C8C1E90402144950397C
:100C9000684600F058F904F5C07105C8C1E90602BC
:100CA00017E01148854214D10D491439684600F007
:100CB0004AF904F5C07105C8C1E904020849283998
:100CC000684600F040F904F5C07105C8C1E90602A4
:100CD00000BF20467CBC5DF814FB000000440040CF
:100CE0006C000240004800400038014010B51F4A27
:100CF000416891421CD21E4B4268D21A1423B2FBA7
:100D0000F3F11B4A083A12688B005B1C01249C40DB
:100D1000224062B1164A083A52688B005B1C0124DB
:100D20009C402243124B083B5A60012282701CE017
:100D30000E4B08334268D21A1423B2FBF3F10B4A6C
:100D400012688B005B1C01249C40224062B1074A60
:100D5000121D12688B005B1C01249C402243034B34
:100D60001B1D1A600122827000BF10BD00040240EA
:100D70000800024010B50446A07810B92046FFF7DD
:100D8000B5FFA07810BD00002DE9F05F04460D46C8
:100D900016461F46DDE90BABDDF82890DDF84880EC
:100DA00060496068884206D25F48406940F00100AF
:100DB0005D49486105E05C48406940F002005A49DD
:100DC00048610520FFF7EAFB606885606068C660DF
:100DD000A4F800900020616808603901109801EBC8
:100DE000401000EB8A1000EBCB110D9801EB0021B5
:100DF0000E9801EB8021119801EB00310F9801EB67
:100E0000803061680968084361680860606800684C
:100E100040EA480061680860B8F1000F70D0434AAA
:100E20006068811A90424FD012DC414AA0EB020167
:100E3000904234D007DC3F490844D8B1142820D070
:100E400028286CD124E0142930D0282967D134E037
:100E5000B1F56C7F4DD006DCB1F5627F3BD0B1F5CA
:100E6000677F5CD13EE0B1F5717F4AD0B1F5767F06
:100E700055D14DE002230B2203210846FFF7A2FAC9
:100E80004DE002230C2203210846FFF79BFA46E0BF
:100E900002230D2203210846FFF794FA3FE00223C4
:100EA0000E2203210846FFF78DFA38E002230F22B5
:100EB00003210846FFF786FA31E0022310220321BE
:100EC0000846FFF77FFA2AE0022311220321084691
:100ED000FFF778FA23E00223382203210846FFF7C0
:100EE00071FA1CE00223392203210846FFF76AFA4F
:100EF00015E002233A2203210846FFF763FA0EE0C9
:100F00000EE002233B2203210846FFF75BFA06E0CE
:100F100002233B2203210846FFF754FA00BF00BF1B
:100F2000BDE8F09F00040240001002408000024033
:100F300044000240F8FFFDBF4168096821F001014B
:100F40004268116070474160012282707047000062
:100F50001CB50649D1E90201CDE900010348044965
:100F60000CC80448FFF752FE1CBD000034000020EE
:100F700000380140480000201CB509210820FFF777
:100F8000DFFB00204FF4E13103460122CDE90010E0
:100F900002210448FFF7CAFCFFF7C0FBFFF79EFBE6
:100FA00000BFFEE7480000202DE9C04130B4DFF863
:100FB000A0C23CEA111418BF3CEA131400F0EC8004
:100FC00081EA03051CEA111444EAD57418BF1CEA2F
:100FD000131500F0C780A4EB05044FF0004545EA67
:100FE000C12145EAC32341EA505143EA525304F177
:100FF0007F74994204F500344FEAC0204FEAC222C0
:1010000008BF904200F09C804FEA13650FF2401633
:10101000765D4FEA134506FB05F7C7F1807706FBBF
:1010200007F74FEAD737A7FB03687642C8F5803841
:10103000A7FB06CE38BFA8F1010807FB08E64FF072
:10104000000EA6FB028CE6FB03CEDCF1000CCEF119
:10105000004E38BFAEF1010EA6FB0C584FF0000752
:101060004FF00005E6FB0E87A1FB08C6A0FB07CEEC
:1010700016EB0E0645F10005E1FB076515F1E04EA4
:101080007EBFA4F580345FEA46066D4116F1800705
:1010900045F100054FEA17274FEA066647EA05675C
:1010A000A6F1DE46B6F1805F4FEA15251FD9384616
:1010B00024F0010C05EBC471BCF1FE6F01EB0C11C7
:1010C00002D8F0BCBDE8008124425CBF01F5801E5F
:1010D0009EEAC47F02D4F0BCBDE80081244238D42B
:1010E000F0BCA1F1C041BDE8004100F032B94FEAC7
:1010F000D22242EA43524FEAD323A7FB02864FEAA9
:10110000D02040EA415007FB03661EEA0E0F4FEA6B
:10111000D12105FB026658BFA6EB0056B6EB005680
:101120004FEA520E4EEAC37E18EB0E0E56EB530EEC
:10113000BDD518EB02085E417F1C55F10005B6E7EE
:101140004FF480154FF000074FF000064FF00008F5
:10115000ADE7F0BC4FF0000001F1C04101F00041EB
:10116000BDE8008111EA0C1F0CEA131500D00CE059
:1011700013EA0C1F00F025804FF00000F0BC81EA5C
:10118000030101F00041BDE80081F0BCBDE8004171
:1011900081EA030100F0DDB8F0BCBDE8004170B5A4
:1011A00000F089F8097EFC3E00F007B881EA0301EF
:1011B0004FF0000001F00041704781EA030100F0A8
:1011C000C8B8F0BCBDE800414FF0000021497047AD
:1011D000FFFDFBF9F7F5F4F2F0EEEDEBE9E8E6E4FC
:1011E000E3E1E0DEDDDBDAD8D7D5D4D3D1D0CFCD83
:1011F000CCCBCAC8C7C6C5C4C2C1C0BFBEBDBCBBBC
:10120000BAB9B8B7B6B5B4B3B2B1B0AFAEADACABB6
:10121000AAA9A8A8A7A6A5A4A3A3A2A1A09F9F9E90
:101220009D9C9C9B9A999998979796959594939342
:10123000929191908F8F8E8E8D8C8C8B8B8A8989D9
:10124000888887878685858484838382828181805C
:101250000000FF070000F87F4FEA41034FEA5353B5
:10126000A3F58063D3F11E03C8BFD3F1210C0CDDBD
:101270004FF0004242EAC12242EA505232FA03FCE5
:101280008CEAE17CACEBE1707047102BC4BF00200E
:10129000704703F5787CBCF1FF3F04D06FF000424B
:1012A00082EA2100704770B500F005F84992248069
:1012B00000207047F2E70EF1020E2EF0030E5EF8EA
:1012C000046B364205D4012A43EB030515F5001FD4
:1012D00012D8012841EB010C1CF5001F0CD80ED1CF
:1012E0004FEAD17C15F5001F0CEB4C0C0CF1020CF5
:1012F00008BF4CEBD37C04E04FF0080C01E04FEA50
:10130000D37C0CEB4C0526FA05F606F00706B6F181
:10131000040C06D20EEB860CBDE870404CF0010CBC
:101320006047DFE80CF0090B02024FF000414FF07C
:101330000000A1F5002170BD19461046012851EBAF
:10134000010418BFD4F5001484BF002001F000414F
:1013500070BD0808A0F500114FEA31017047000088
:1013600043004FEAD30C4FEA3C0C43401FBF4007F9
:101370000CF1605113F0FE4F70471CF0006F03D169
:1013800000200CF0004170470CF0004343EA50701D
:1013900010B540EACC0000F01CFA00BF000000923B
:1013A0004FEA0001FFF7D5BF4FF000414FF00000BA
:1013B000A1F500217047000090EA010F48BF81F0BD
:1013C000004100F16282421A3CBF801A89184FEA3C
:1013D000D0524FF07F4C1CEA410FA2EBD15318BF03
:1013E0009CEA026F00F03B804FF0004C4CEA00207A
:1013F0004CEA012121FA03FC10EB0C0C1ED202F185
:10140000FF325FEA1C2040EBC25038BF70471CF02F
:101410007F0F4FEA400C18BFBCF17F4F38BF7047B9
:10142000C3F12003994008BF20F00100BCF17F4FB9
:1014300038BF7047A0F1C04000F011BA4FEA3C003D
:10144000000A40EBC25028BF1CF0FF0F4FEA400CCF
:10145000E6D018BFBCF17F4F38BF7047EAE79CEA7F
:10146000026F05D010EA5C0F08BF00F00040704723
:1014700010B500F0AEF900BF64FBBE3E4FF47F0C28
:101480001CEAD0121EBF1CEAD11392EA0C0F93EA99
:101490000C0F00F0858090EA010F48BF42F4807283
:1014A00040F4000C41F400002CF07F4120F07F401C
:1014B00000B58142A2EB03020FF2081CACEB504EC8
:1014C000C0F100009EF800E04FEA4E0E00FB0EFC5B
:1014D00038BF49004FEA2C1C02F5FA020CFB0EF350
:1014E0004FEACE1E4FEA112C4FEAC1210EEB635E8C
:1014F00042EB22420EFB0CFC4FEA1C5300FB031193
:101500004FEA112C4FEA01310EFB0CFC4FEADC4C88
:1015100000FB0C11C14228BF09184CEB03335DF8E6
:1015200004EB10EB410143EBC250B2F57C0F38BF26
:10153000704729D512F0F00F1CBF00F1C04000F039
:1015400000407047008182838485868788898B8CE0
:101550008D8E8F919293959697999A9C9D9FA0A21C
:10156000A3A5A7A8AAACAEB0B2B3B5B7B9BCBEC06C
:10157000C2C5C7C9CCCED1D4D7D9DCDFE2E6E9EC0D
:10158000F0F3F7FAFE0000004FEA400C0CF1807C0B
:10159000BCF17E4F28BF7047B0F1C04000F05FB98A
:1015A00090EA010F0CEAD11348BF42F48072624501
:1015B00038BF634507D213F47F0F16D080EA0100CD
:1015C00000F00040704710B500F003F9097EFC3EC2
:1015D00000F005B880EA010000F00040704780EAA2
:1015E000010000F0004000F03AB912F47F0F04BF90
:1015F0000248704780EA010000F031B90000C07F66
:1016000041000B0ED3F19E0208D950F400034FEABB
:10161000032323FA02F048BF4042704710B500F0A0
:10162000D8F800BF49922480002070476FF0004234
:1016300082EA200070470000C10DD1F19E0206DB56
:101640004FEA002343F0004323FA02F070470042C0
:1016500007D54FEA4001B1F1FE4F02D24FF0000032
:10166000704710B500F0B5F849922480002070470B
:101670006FEA20007047000010F0004148BF404270
:10168000B0FA80F310FA03F2C3F19D030BD051EAD4
:10169000C35101EB1220530638BF704700F101001F
:1016A00008BF20F001007047B0FA80F310FA03F28F
:1016B000C3F19D030AD0D90501EB1220530638BFB0
:1016C000704700F1010008BF20F0010070470000E2
:1016D0004FF47F0C1CEAD0121EBF1CEAD11392EA11
:1016E0000C0F93EA0C0F00F0478090EA010F48BFFF
:1016F00042F480724FF0004C4CEA00204CEA012189
:1017000002EB0302A0FB0113A2F50002002918BF9F
:1017100043F001035B0028BF4FEA330342EB224250
:101720005FEA132C4CEBC2502EBFBCEB436FB2F5FB
:101730007C0F70474FEA036CBCF1004F08BF20F0EC
:101740000100B2F57C0F38BF70470BD582F0FF0265
:1017500012F5803FC8BF704700F1C040D8BF00F00D
:101760000040704700F5000C5FEA4C0C48BF704722
:10177000B0F1C04000F073B890EA010F0CEAD11349
:1017800048BF42F48072624538BF634504D280EAA4
:10179000010000F00040704710B500F01AF800BFDB
:1017A0008900013E00F007B800F009B85FEA410C7B
:1017B0005FEA1C6C08D080EA010000F050B85FEAD4
:1017C000400C5FEA1C6CF6D14FF00040A0F58000A1
:1017D00070470EF1020E2EF0030E5EF8044B244209
:1017E00004D44FEA4102B2F17F4F11D84FEA4003CF
:1017F000B3F17F4F0CD80ED14FEAD07CB2F17F4FBE
:101800000CEB4C0C0CF1020C08BF4CEBD17C04E04F
:101810004FF0080C01E04FEAD17C0CEB4C0324FAAA
:1018200003F404F00704B4F1040C06D20EEB840CAC
:10183000BDE810404CF0010C6047DFE80CF00708F1
:1018400002024FF00040A0F5800010BD08464200A3
:1018500018BFD2F1807288BF00F0004010BDFF2198
:1018600041EAD050C005704780F0004090EA010F77
:101870007FF5A9AD81F0004100F007B890EA010FB3
:1018800048BF81F000413FF59EAD421A04D882F076
:101890000042A0EB020011444FEAD0524FF07F4CBF
:1018A0001CEA410FA2EBD15318BF9CEA026F4AD049
:1018B0004FF0004C4CEA00204CEA012121FA03FCD5
:1018C000B0EB0C0C0FD412F0FE0F36D05FEA4C00D8
:1018D0001DD5001240EBC25038BF70471CF03F0FBF
:1018E00018BF70470BE0A2F101025FEA1C2040EB39
:1018F000C25038BF70471CF07F0F18BF7047C3F14C
:101900002003994014BF401E20F00100704780085A
:101910004FEA122308BF7047B0FA80FCA2EB0C021A
:10192000CCF1280C60FA0CF093EA122F04BF00EB04
:10193000C25070474FEAC3707047130A5FEADC1069
:1019400008BF7047F6E79CEA026F04D010EA5C0F0C
:1019500008BF0020704710B5FFF73BFF40DFF63EA1
:1019600081F00040704700008C1900080000002042
:10197000480000006C010008D4190008480000204D
:10198000A806000088010008C9F5FFFF08097F00CC
:10199000000C014005000000001801400500000097
:1019A000001801400400000000180140030000007E
:1019B0000018014002000000000801400000000083
:1019C000000801400A000000000801400900000072
:0419D0000000000013
:0400000508000131BD
:00000001FF
